:1000000020C100003CC100003AC1000038C100001E
:1000100036C1000034C1000032C10000D1C500006B
:100020002EC100002CC100002AC100000C94D61182
:1000300026C1000030C2000022C1000020C1000023
:100040001EC100001CC100001AC1000018C1000040
:100050000C94860F0C947E1112C1000010C1000098
:100060000EC100000CC100000AC1000008C1000060
:100070000C94B00F0C94A61102C1000000C1000046
:10008000FEC00000FCC00000FAC00000630A800A45
:10009000800A800A800A6B0A800A800A1909800A8D
:1000A000800A800A5B0A800A860A4C0A800A800A53
:1000B000860A800A800A800A800A800A800A800AEA
:1000C000800A800A800A800A800A800A860A800ADA
:1000D000800A800A800A860A800A800A1909800A32
:1000E000800A800A860A800A860A4C0A730A800AF5
:1000F000860A6E616E00696E66006364696E6F7079
:10010000737578585B65666745464700616E006E9B
:1001100066696E69747900CDCCCC3D0AD7233C1753
:10012000B7D13877CC2B329595E6241FB14F0A0012
:100130000020410000C84200401C4620BCBE4CCA02
:100140001B0E5AAEC59D7400407A10F35A00A0727F
:100150004E18090010A5D4E80000E8764817000002
:10016000E40B54020000CA9A3B000000E1F50500D0
:100170000080969800000040420F000000A0860119
:10018000000000102700000000E8030000000064E9
:1001900000000000000A0000000000010000000054
:1001A000002C76D888DC674F0823DFC1DFAE59E129
:1001B000B1B796E5E3E453C63AE651997696E8E698
:1001C000C28426EB898C9B62ED407C6FFCEFBC9C6B
:1001D0009F40F2BAA56FA5F490055A2AF75C936B7D
:1001E0006CF9676DC11BFCE0E40D47FEF520E6B538
:1001F00000D0ED902E0300943577050080841E0812
:100200000000204E0A000000C80C333333330F982F
:100210006E12831141EF8D2114893BE65516CFFEF6
:10022000E6DB18D1844B381BF77C1D901DA4BBE482
:1002300024203284725E228100C9F124ECA1E53DC4
:10024000270011241FBECFEFD0E4DEBFCDBF12E0E8
:10025000A0E0B1E0ECEBF2E400E00BBF02C00790DD
:100260000D92AA35B107D9F723E0AAE5B2E001C0A3
:100270001D92A232B207E1F720D00C945C21C0CECF
:10028000A0E0B0E0E6E4F1E00C943F1D0E945412BF
:10029000DC01CB01BC01CD01E2E00C945B1DA0E0D0
:1002A000B0E0E5E5F1E00C943F1D80910A018F5F1D
:1002B00080930A01E2E00C945B1DCF92DF92EF92F3
:1002C000FF92CF93DF93CDB7DEB715D70E940C0C0A
:1002D0000E947E0D4CD498D50AD560E080E00E9443
:1002E0002D0CC0909102D0909202E0909302F09079
:1002F00094026FD2DC01CB012F2D2F932E2D2F9343
:100300002D2D2F932C2D2F932B2F2F932A2F2F937F
:10031000292F2F938F938AE391E0892F8F938AE37C
:1003200091E08F930E945F208DB79EB70A960FB61B
:10033000F894DEBF0FBECDBF61E080E00E942D0CBF
:100340002091D3023091D4028091A7029091A8020B
:10035000A091A902B091AA02432F4F932F932B2F64
:100360002F932A2F2F93292F2F938F9389E491E096
:10037000892F8F9389E491E08F930E945F208DB73E
:100380009EB708960FB6F894DEBF0FBECDBF0E9491
:1003900048110E949D0AA1CFA2E0B0E0E2EDF1E099
:1003A0000C943F1D9A83898389819A8181309105BC
:1003B00049F488E290E028E230E0F9012081FC0174
:1003C00020830DC089819A81009749F488E290E0EA
:1003D00028E230E0F90120812068FC012083229688
:1003E000E2E00C945B1DA2E0B0E0E9EFF1E00C94D8
:1003F0003F1D9A83898389819A81992354F488E2E5
:1004000090E028E230E0F90120812068FC0120839F
:1004100009C088E290E028E230E0F90120812F77DE
:10042000FC01208389819A818130FFEF9F072CF4A2
:1004300081E09FEF9A8389830AC089819A818F3FE7
:10044000910529F024F08FEF90E09A83898323EBC4
:1004500030E089819A8199231CF4919581959109C5
:10046000F901808389819A8190936D0280936C0257
:100470002296E2E00C945B1DA0E0B0E0E2E4F2E042
:100480000C943F1D83EB90E0FC018081882F90E06D
:10049000E2E00C945B1D1F920F9200905F000F92A0
:1004A000112400905B000F92CF92DF92EF92FF92A7
:1004B0000F931F932F933F934F935F936F937F936C
:1004C0008F939F93AF93BF93EF93FF93CF93DF935C
:1004D000CDB7DEB780915E0290915F020196909356
:1004E0005F0280935E0220918D0230918E024091D6
:1004F0008F025091900280915A0290915B02A091DC
:100500005C02B0915D0279018A01E81AF90A0A0BCE
:100510001B0BD801C7018093A7029093A802A09358
:10052000A902B093AA0280918D0290918E02A091AF
:100530008F02B09190029C0180915A0290915B02CF
:10054000A0915C02B0915D028901081B190BC801E2
:100550009093AC028093AB0280916A0290916B02FF
:100560009C018091A7029091A802A091A902B0914C
:10057000AA02A901481B590BCA019093D402809387
:10058000D3028091D3029091D40236D12091D3022C
:100590003091D40280916802909169027901E81A41
:1005A000F90AC701AA2797FDA095BA2FBC01CD0172
:1005B0000E946717DC01CB012091060130910701F1
:1005C0004091080150910901BC01CD010E94CC1657
:1005D000DC01CB018093910290939202A09393024D
:1005E000B09394028091D3029091D402AA2797FDF0
:1005F000A095BA2FBC01CD010E946717DC01CB0189
:1006000020910201309103014091040150910501B4
:10061000BC01CD010E941B18DC01CB016C017D01E6
:10062000D8D0DC01CB012091600230916102409171
:10063000620250916302BC01CD010E941B18DC01D3
:10064000CB019C01AD01C701B6010E946416DC011B
:10065000CB016C017D018091640290916502A091B3
:100660006602B0916702209191023091920240910E
:10067000930250919402BC01CD010E941B18DC0131
:10068000CB019C01AD01C701B6010E946316DC01DC
:10069000CB01BC01CD010E943417DC01CB0190934A
:1006A0009E0280939D0220916C0230916D02809198
:1006B0009D0290919E02820F931F90936D028093F2
:1006C0006C0280916C0290916D028DDE80918D02A2
:1006D00090918E02A0918F02B091900280935A0265
:1006E00090935B02A0935C02B0935D028091D30271
:1006F0009091D4029093690280936802DF91CF9128
:10070000FF91EF91BF91AF919F918F917F916F91E9
:100710005F914F913F912F911F910F91FF90EF901B
:10072000DF90CF900F9000925B000F9000925F00DF
:100730000F901F901895A0E0B0E0E1EAF3E00C9470
:100740003F1D80919D0290919E02E2E00C945B1D02
:10075000A0E0B0E0EEEAF3E00C943F1D80916A0265
:1007600090916B02E2E00C945B1DA0E0B0E0EBEB3B
:10077000F3E00C943F1D8091AB029091AC02E2E05B
:100780000C945B1DA0E0B0E0E8ECF3E00C943F1D9E
:100790008091D3029091D402E2E00C945B1DA4E01E
:1007A000B0E0E5EDF3E00C943F1D9A8389837C83F0
:1007B0006B8329813A818B819C81A901481B590B4C
:1007C000CA019093D4028093D3022496E2E00C9461
:1007D0005B1DA0E0B0E0EFEEF3E00C943F1D8091D4
:1007E000C7029091C802A091C902B091CA02BC018F
:1007F000CD01E2E00C945B1DA6E0B0E0E2E0F4E0A5
:100800000C943F1D9E838D8388EE93E09A838983A9
:1008100088E19CEF9C838B8389819A81AA2797FD2D
:10082000A095BA2FBC01CD010E946717DC01CB0156
:100830002091C7023091C8024091C9025091CA026A
:10084000BC01CD010E94171818160CF04BC08B810B
:100850009C81AA2797FDA095BA2FBC01CD010E94CB
:100860006717DC01CB012091C7023091C80240918B
:10087000C9025091CA02BC01CD010E94C81688234A
:100880008CF58D819E81AA2797FDA095BA2FBC017A
:10089000CD010E946717DC01CB0120910601309148
:1008A00007014091080150910901BC01CD010E944E
:1008B0001B18DC01CB012091C7023091C802409186
:1008C000C9025091CA02BC01CD010E946416DC012C
:1008D000CB018093C7029093C802A093C902B09342
:1008E000CA025DC089819A81AA2797FDA095BA2F77
:1008F000BC01CD010E946717DC01CB012091C7022A
:100900003091C8024091C9025091CA02BC01CD0188
:100910000E94C8168823ACF489819A81AA2797FD82
:10092000A095BA2FBC01CD010E946717DC01CB0155
:100930008093C7029093C802A093C902B093CA02E1
:100940002EC08B819C81AA2797FDA095BA2FBC0150
:10095000CD010E946717DC01CB012091C7023091C5
:10096000C8024091C9025091CA02BC01CD010E9447
:1009700017181816A4F48B819C81AA2797FDA095BF
:10098000BA2FBC01CD010E946717DC01CB01809317
:10099000C7029093C802A093C902B093CA022696D8
:1009A000E2E00C945B1DA0E0B0E0E9EDF4E00C9413
:1009B0003F1D8091910290919202A0919302B0917B
:1009C0009402BC01CD01E2E00C945B1DA2E0B0E01A
:1009D000ECEEF4E00C943F1D9A8389832296E2E0CA
:1009E0000C945B1DA0E0B0E0E8EFF4E00C943F1D38
:1009F0008091BF029091C002E2E00C945B1DA0E0E8
:100A0000B0E0E5E0F5E00C943F1D8091AD029091DF
:100A1000AE02E2E00C945B1DA0E0B0E0E2E1F5E0A4
:100A20000C943F1D8091020190910301A09104015B
:100A3000B0910501BC01CD01E2E00C945B1DA0E08A
:100A4000B0E0E5E2F5E00C943F1D809164029091E6
:100A50006502A0916602B0916702BC01CD01E2E09F
:100A60000C945B1DA0E0B0E0E8E3F5E00C943F1DC2
:100A70008091600290916102A0916202B091630244
:100A8000BC01CD01E2E00C945B1DA2E0B0E0EBE420
:100A9000F5E00C943F1D9A83898389819A81909314
:100AA000C0028093BF022296E2E00C945B1DA2E09C
:100AB000B0E0EDE5F5E00C943F1D9A8389838981D0
:100AC0009A819093AE028093AD022296E2E00C945C
:100AD0005B1DA4E0B0E0EFE6F5E00C943F1D6983F8
:100AE0007A838B839C8389819A81AB81BC8180933B
:100AF000020190930301A0930401B0930501249691
:100B0000E2E00C945B1DA4E0B0E0E9E8F5E00C94B1
:100B10003F1D69837A838B839C8389819A81AB8112
:100B2000BC818093640290936502A0936602B093A7
:100B300067022496E2E00C945B1DA4E0B0E0E3EAD7
:100B4000F5E00C943F1D69837A838B839C838981B4
:100B50009A81AB81BC818093600290936102A093E3
:100B60006202B09363022496E2E00C945B1DA0E065
:100B7000B0E0EDEBF5E00C943F1D8AE290E02AE254
:100B800030E0F90120812068FC01208387E290E0B9
:100B900027E230E0F90120812068FC01208380EB0E
:100BA00090E023E8FC01208381EB90E022E0FC014F
:100BB000208383EB90E0FC011082E2E00C945B1D4B
:100BC0001F920F9200905F000F92112400905B0023
:100BD0000F922F933F938F939F93AF93BF93EF9376
:100BE000FF93CF93DF9300D000D0CDB7DEB789E27B
:100BF00090E0FC018081882F90E08470992721E0AB
:100C0000181619060CF020E0822F90E09A83898351
:100C100089E290E0FC018081882F90E0887099271C
:100C200021E0181619060CF020E0822F90E09C833A
:100C30008B838091C3029091C4029C0189819A8127
:100C400028173907A1F480918D0290918E02A0910E
:100C50008F02B09190020196A11DB11D80938D026B
:100C600090938E02A0938F02B09390021DC080914A
:100C7000C5029091C6029C018B819C81281739077F
:100C800099F480918D0290918E02A0918F02B09183
:100C900090020197A109B10980938D0290938E0271
:100CA000A0938F02B093900289819A819093C6029B
:100CB0008093C5028B819C819093C4028093C30270
:100CC0000F900F900F900F90DF91CF91FF91EF91C8
:100CD000BF91AF919F918F913F912F910F90009273
:100CE0005B000F9000925F000F901F901895A0E09E
:100CF000B0E0EDE7F6E00C943F1D83E790E02FE0D5
:100D0000FC01208388E690E02FEFFC0120838BE339
:100D100090E02FEFFC01208389E290E0FC018081CC
:100D2000882F90E08470992721E0181619060CF09E
:100D300020E0822F90E09093C6028093C50289E262
:100D400090E0FC018081882F90E08870992721E055
:100D5000181619060CF020E0822F90E09093C40240
:100D60008093C3027894E2E00C945B1DA2E0B0E0B3
:100D7000ECEBF6E00C943F1D9A83898389819A817C
:100D8000AA2797FDA095BA2FBC01CD010E94671735
:100D9000DC01CB012FE339EE47EC50E4BC01CD017F
:100DA0000E941B18DC01CB01BC01CD010E9434174D
:100DB000DC01CB012296E2E00C945B1DA8E0B0E0E0
:100DC000E4EEF6E00C943F1D9E838D8378876F835D
:100DD00080918D0290918E02A0918F02B09190022D
:100DE00089839A83AB83BC838F81988581309105F9
:100DF00021F481E090E0D0DA03C080E090E0CCDA2A
:100E00002896E2E00C945B1DA0E0B0E0EAE0F7E099
:100E10000C943F1D80E890E020E8FC01208381E8ED
:100E200090E02AE0FC01208388E890E028EA31E69F
:100E3000FC01318320838FE690E022E0FC012083D7
:100E4000E2E00C945B1DA0E1B0E0E9E2F7E00C9475
:100E5000391D16DADC01CB0189839A83AB83BC830D
:100E60008091BB029091BC02A091BD02B091BE02E4
:100E700029813A814B815C8179018A01E81AF90A5A
:100E80000A0B1B0BD801C701BC01CD010E946517DD
:100E9000DC01CB018D839E83AF83B88780919F0255
:100EA0009091A002A091A102B091A2022091CB0248
:100EB0003091CC024091CD025091CE02BC01CD01C7
:100EC0000E946316DC01CB0189879A87AB87BC87B8
:100ED0002D813E814F81588569857A858B859C85DA
:100EE0000E941B18DC01CB012091A3023091A402C7
:100EF0004091A5025091A602BC01CD010E9464164A
:100F0000DC01CB018093A3029093A402A093A502DD
:100F1000B093A6028091B3029091B402A091B50261
:100F2000B091B6029C01AD0169857A858B859C855F
:100F30000E946316DC01CB012D813E814F815885D3
:100F4000BC01CD010E94CC16DC01CB018D879E87B0
:100F5000AF87B88B8091CF029091D002A091D1023F
:100F6000B091D20229853A854B855C85BC01CD01C3
:100F70000E941B18DC01CB016C017D018091B7023E
:100F80009091B802A091B902B091BA022091A30247
:100F90003091A4024091A5025091A602BC01CD015E
:100FA0000E941B18DC01CB019C01AD01C701B601F9
:100FB0000E946416DC01CB016C017D0180919902D5
:100FC00090919A02A0919B02B0919C022D853E8542
:100FD0004F855889BC01CD010E941B18DC01CB0153
:100FE0009C01AD01C701B6010E946416DC01CB0172
:100FF0008093AF029093B002A093B102B093B2027B
:1010000089859A85AB85BC858093B3029093B402A1
:10101000A093B502B093B60289819A81AB81BC815D
:101020008093BB029093BC02A093BD02B093BE021A
:101030006096E8E00C94551DACE0B0E0E2E2F8E028
:101040000C943B1D69837A838B839C832D833E8321
:101050004F835887E986FA860B871C8789819A8196
:10106000AB81BC818093CF029093D002A093D10238
:10107000B093D2028D819E81AF81B8858093B702F3
:101080009093B802A093B902B093BA0289859A8569
:10109000AB85BC858093990290939A02A0939B02A2
:1010A000B0939C022C96E6E00C94571DA0E0B0E0B3
:1010B000ECE5F8E00C943F1D80910B018F5F80936D
:1010C0000B01E2E00C945B1DA4E0B0E0EAE6F8E07E
:1010D0000C943F1D9A8389837C836B832B81898148
:1010E0009A81422FBC0182E00E947C1187D2249613
:1010F000E2E00C945B1DA0E2B0E0E1E8F8E00C94C3
:101100003F1D40E855E260E070E082E00E949A10E6
:1011100040E267ED72E082E0F7D66CE170E08AE5CC
:1011200091E0D2DF6BE170E088E791E0CDDFA0963F
:10113000E2E00C945B1D8F929F92AF92BF92CF9290
:10114000DF92EF92FF92CF93DF93CDB7DEB7EB97AD
:101150000FB6F894DEBF0FBECDBF9BAF8AAFCE01F6
:10116000C696292F2F938F93CE01C596292F2F93A3
:101170008F9384E991E0892F8F9384E991E08F9395
:101180008BAD8F938AAD8F930E94A0202DB73EB771
:10119000285F3F4F0FB6F894DEBF0FBECDBF9A83D6
:1011A00089838EA99FA9A8ADB9AD2DA9332727FDA5
:1011B00030954B2F4F934A2F4F93492F4F938F9337
:1011C000832F8F93822F8F938AE991E0892F8F93BA
:1011D0008AE991E08F93CE010596292F2F938F9363
:1011E0000E947120EDB7FEB73A960FB6F894DEBFB5
:1011F0000FBECDBF9C838B832B813C81CE01059696
:10120000B90162DF8DA9992787FD9095AA2797FDDF
:10121000A095BA2F44E450E022E330E0841B950B04
:101220002817390708F46CC18A5B9F4FFC010C94A6
:101230001F1D80918D0290918E02A0918F02B0911E
:1012400090022B2F2F932A2F2F93292F2F938F9399
:1012500089EA91E0892F8F9389EA91E08F93CE01FB
:101260000596292F2F938F930E9471202DB73EB79B
:10127000285F3F4F0FB6F894DEBF0FBECDBF9C83F3
:101280008B832B813C81CE010596B9011DDF8091B6
:101290006C0290916D02292F2F938F938FEB91E029
:1012A000892F8F938FEB91E08F93CE010596292F95
:1012B0002F938F930E9471200F900F900F900F909B
:1012C0000F900F909C838B832B813C81CE010596E0
:1012D000B901FADE57DA292F2F938F9389ED91E028
:1012E000892F8F9389ED91E08F93CE010596292F59
:1012F0002F938F930E9471200F900F900F900F905B
:101300000F900F909C838B832B813C81CE0105969F
:10131000B901DADE10DA292F2F938F9385EE91E051
:10132000892F8F9385EE91E08F93CE010596292F1B
:101330002F938F930E9471200F900F900F900F901A
:101340000F900F909C838B832B813C81CE0105965F
:10135000B901BADE74DB4B015C0184DB6B017C01FB
:101360005BDBDC01CB012B2D2F932A2D2F93292D15
:101370002F93282D2F932F2D2F932E2D2F932D2DFF
:101380002F932C2D2F932B2F2F932A2F2F93292FF1
:101390002F938F9380EF91E0892F8F9380EF91E0CF
:1013A0008F93CE010596292F2F938F930E94712042
:1013B000EDB7FEB770960FB6F894DEBF0FBECDBF87
:1013C0009C838B832B813C81CE010596B9017CDE09
:1013D000EADA4B015C01FDD96B017C01D3D92B2DDD
:1013E0002F932A2D2F93292D2F93282D2F932F2D97
:1013F0002F932E2D2F932D2D2F932C2D2F93292F7F
:101400002F938F938CE092E0892F8F938CE092E062
:101410008F93CE010596292F2F938F930E947120D1
:101420002DB73EB7225F3F4F0FB6F894DEBF0FBE19
:10143000CDBF9C838B832B813C81CE010596B90166
:1014400043DE93D99C0180916A0290916B02432FF5
:101450004F932F93292F2F938F9382E292E0892F1E
:101460008F9382E292E08F93CE010596292F2F93DE
:101470008F930E947120EDB7FEB738960FB6F8949F
:10148000DEBF0FBECDBF9C838B832B813C81CE0101
:101490000596B90119DE3BC08EA99FA9A8ADB9ADCB
:1014A000BC01CD010E943417DC01CB0190936B028B
:1014B00080936A022CC08EA99FA9A8ADB9ADBC01CA
:1014C000CD0107DB24C08EA99FA9A8ADB9ADBC0191
:1014D000CD0119DB1CC08EA99FA9A8ADB9ADBC0177
:1014E000CD012BDB14C08EA99FA9A8ADB9ADBC015D
:1014F000CD010E943417DC01CB010E94F30107C02B
:101500006BE170E08DE392E0DFDD01C000006BE194
:1015100070E088E791E0D8DDEB960FB6F894DEBF77
:101520000FBECDBFDF91CF91FF90EF90DF90CF90B6
:10153000BF90AF909F908F900895A0E2B0E0E3EA53
:10154000FAE00C943F1D28C080916E0290916F02CA
:101550002091F702222F30E029523D4FF9014081BE
:101560009E012F5F3F4F820F931FFC0140838091AC
:101570006E0290916F02019690936F0280936E02BB
:101580008091F7028F3119F41092F70205C0809113
:10159000F7028F5F8093F70282E0B2D2982F80919A
:1015A000F702981789F680916E0290916F0200976A
:1015B00009F180916E0290916F028130910541F4A2
:1015C00089818A3029F410926F0210926E0212C043
:1015D00080916E0290916F029E012F5F3F4F820FAC
:1015E000931FFC011082CE010196A5DD10926F02BF
:1015F00010926E02A096E2E00C945B1DA0E0B0E0B9
:10160000E4E0FBE00C943F1D01C042D682E088D2AA
:101610008823D9F3E2E00C945B1D80E090E008950C
:1016200081E090E06F9364E06A95F1F76F91019724
:10163000C9F708950F931F93CF93DF9317B13D9888
:101640002898299AC0E0D0E0EBDF2A9AE9DF06B1BA
:101650002A98E6DF2A9AE4DF2A98249605FF10C02C
:101660009E0140E050E08091740290917502A0913B
:101670007602B0917702281739074A075B0720F3F3
:101680009E0140E050E08091740290917502A0911B
:101690007602B0917702281739074A075B0728F0CE
:1016A00082E390E0A0E0B0E004C080E395E7A0E032
:1016B000B0E08093740290937502A0937602B09389
:1016C000770217B9DF91CF911F910F91089528B13B
:1016D00090E08F709070880F991F880F991F237C5E
:1016E000282B28B92A9A9CDF2A989ACFA2E0B0E04A
:1016F000ECE7FBE00C943C1D182F4A83698358D01B
:1017000099DFF7B008B1299869814A81662311F001
:10171000289A01C0289887B18C6387B9413021F09D
:10172000812F82958F70D3DF812F8F70D0DFF7B834
:1017300008B92296E5E00C94581D60E042E0D6CF4F
:1017400061E042E0D3CF60E041E0D0CF3D98459AE0
:1017500080E395E7A0E0B0E0809374029093750277
:10176000A0937602B0937702209A219A229A8EE172
:1017700090E063D683E0E7DF86E090E05ED683E02A
:10178000E2DF82E090E059D683E0DDDF82E090E0A6
:1017900054D682E0D8DF82E090E04FD688E2CDDFF9
:1017A00088E0CBDF81E0C9DF86E0C7DF8CE0C5CF12
:1017B00080917802882321F481E080937802C6CF5B
:1017C000089581E0BADF80917002909171020097D4
:1017D00011F1A0E0B0E208C0E0917002F091710256
:1017E000E20FF31FB083AF5F2A2F30E080910C012E
:1017F00090E0019760910D0170E0869FA001879FA6
:10180000500D969F500D1124241735072CF310927C
:101810007302109272020895D4CF0895A5E0B0E04B
:10182000E4E1FCE00C943E1D182F80E8898380ECF5
:101830008A8384E98B8384ED8C83FE01E60FF11D9E
:101840008181810F6D8379DF109373026D816093C5
:1018500072022596E3E00C945A1DE0CF0895A0E0B3
:10186000B0E0E5E3FCE00C94391DD82E80917002C5
:1018700090917102009709F4F2C02D2D2A3009F4DD
:1018800042C02830C9F48091730281508093730262
:101890008F3F51F480917202815080937202809147
:1018A0000D01815080937302809172028F3F09F085
:1018B000D1C010927202CCC08D2D42DF8091720295
:1018C0008823B9F090E0019740910D0150E0849F8A
:1018D0009001859F300D949F300D112480917302EB
:1018E000E0917002F0917102E20FF31FE80FF11D19
:1018F000D082809173028F5F8093730290910D016B
:10190000891709F0ACC040917202242F30E0809119
:101910000C0190E001972817390709F096C0C0E044
:10192000D0E03FC080E06C2F79DFCC248E010F5FC8
:101930001F4F32C0EC2CFF2430E0C29FC001C39F78
:10194000900DD29F900D1124E0917002F0917102E0
:10195000EE0DFF1DE80FF91F8081F2DE809170020D
:101960009091710220910D0130E0C29FF001C39F60
:10197000F00DD29FF00D11248E0D9F1DE80FF91F61
:10198000029FD001039FB00D129FB00D1124A80F2C
:10199000B91F8C918083C39420910D01C21650F21F
:1019A000E80160910C01862F90E00297C817D907D3
:1019B0000CF4B8CF6230D0F1625080E02FDF00E04D
:1019C00010E230C0C02FD0E080910C0190E002976F
:1019D00050E0849F9001859F300D949F300D11241D
:1019E000E0917002F0917102EC0FFD1FE20FF31F06
:1019F0008081A6DE80910C0190E0029740910D015C
:101A000050E0849F9001859F300D949F300D1124EC
:101A1000E0917002F0917102EC0FFD1FE20FF31FD5
:101A200010830F5F40910D01041760F260910C016B
:101A3000615080E0F3DE10E003C080E281DE1F5FD2
:101A400080910D011817C8F303C04F5F40937202D5
:101A5000109273028091730260917202DFDE2D2D6D
:101A6000332727FD3095C901CDB7DEB7E8E00C94E8
:101A7000551D8091700290917102009711F00E94A3
:101A80000D1E20910C0130E02150304080910D015D
:101A900090E0AC01249FC001259F900D349F900DD4
:101AA00011240E94751D909371028093700200971B
:101AB00021F1A0E0B0E208C0E0917002F091710263
:101AC000E20FF31FB083AF5F2A2F30E080910C014B
:101AD00090E0019760910D0170E0869FA001879FC3
:101AE000500D969F500D1124241735072CF38FE2CB
:101AF0009CE06DE07BE00C94A51F0895BACF08959B
:101B0000282F30E0F901EE0FFF1F43E0220F331FB3
:101B10004A95E1F7E20FF31FE25FFE4F82810895DD
:101B2000282F30E0F901EE0FFF1F73E0220F331F63
:101B30007A95E1F7E20FF31FE25FFE4F4181282F14
:101B400030E0F901EE0FFF1F53E0220F331F5A95CB
:101B5000E1F7E20FF31FE25FFE4F81E0938149134B
:101B600080E00895282F30E0F901EE0FFF1FB3E069
:101B7000220F331FBA95E1F7E20FF31FE25FFE4F2A
:101B8000408551854115510509F452C0282F30E098
:101B9000F901EE0FFF1F73E0220F331F7A95E1F773
:101BA000E20FF31FE25FFE4F7281282F30E0F90150
:101BB000EE0FFF1FB3E0220F331FBA95E1F7E20FDC
:101BC000F31FE25FFE4F9481791790F5282F30E0E4
:101BD000F901EE0FFF1F73E0220F331F7A95E1F733
:101BE000E20FF31FE25FFE4F9281490F511DFA0190
:101BF0006083282F30E0F901EE0FFF1F53E0220F22
:101C0000331F5A95E1F7E20FF31FE25FFE4F928117
:101C10009F5F282F30E0F901EE0FFF1FB3E0220F86
:101C2000331FBA95E1F7E20FF31FE25FFE4F928395
:101C3000282F30E0F901EE0FFF1F73E0220F331F52
:101C40007A95E1F7E20FF31FE25FFE4F4281282F02
:101C500030E0F901EE0FFF1F53E0220F331F5A95BA
:101C6000E1F7E20FF31FE25FFE4F9481491701F5A0
:101C7000282F30E0F901EE0FFF1F93E0220F331FF2
:101C80009A95E1F7E20FF31FE25FFE4F95819923EA
:101C900079F0282F30E0F901EE0FFF1FB3E0220F9B
:101CA000331FBA95E1F7E20FF31FE25FFE4F128296
:101CB00008950F931F93182F823009F474C088235E
:101CC00019F4E1ECF0E002C0E9ECF0E080818F77FC
:101CD0008083812F90E0FC01EE0FFF1F03E0880F4F
:101CE000991F0A95E1F7E80FF91FE25FFE4F808523
:101CF00091850097A1F1212F30E0F901EE0FFF1F30
:101D0000A3E0220F331FAA95E1F7E20FF31FE25F72
:101D1000FE4F9281212F30E0F901EE0FFF1F63E0AB
:101D2000220F331F6A95E1F7E20FF31FE25FFE4FC8
:101D300084819817A0F4112319F4E0ECF0E002C0BC
:101D4000E8ECF0E0808187FF0AC0112319F4E6EC8B
:101D5000F0E002C0EEECF0E06081812F03DF212F84
:101D600030E0F901EE0FFF1F43E0220F331F4A95C9
:101D7000E1F7E20FF31FE25FFE4F8081882309F055
:101D800057C0112319F4E1ECF0E002C0E9ECF0E0F7
:101D90008081806880834CC080912701882319F05E
:101DA0001092240145C080912A0190912B01009747
:101DB00009F43EC090912401809126019817C0F546
:101DC00080917902882399F474D38093790210E08A
:101DD0000AC06CD3E02FF0E03197E11BF109E6581F
:101DE000FD4F80831F5F00917902101790F3A0913F
:101DF0007902AA23E9F080912401E0912A01F0916F
:101E00002B01E80FF11DA150A0937902B0E0A65874
:101E1000BD4F8C918083809124018F5F809324013A
:101E20009091240180912601981709F0BCCFB4CF7E
:101E30001F910F910895823051F0882319F4E1EC3D
:101E4000F0E002C0E9ECF0E090819F779083A82F4A
:101E5000B0E0FD01EE0FFF1F53E0AA0FBB1F5A9524
:101E6000E1F7EA0FFB1FE25FFE4F71876087682F83
:101E700070E0FB01EE0FFF1F93E0660F771F9A954E
:101E8000E1F7E60FF71FE25FFE4F1282682F70E066
:101E9000FB01EE0FFF1FA3E0660F771FAA95E1F786
:101EA000E60FF71FE25FFE4F4483482F50E0FA0130
:101EB000EE0FFF1F63E0440F551F6A95E1F7E40F33
:101EC000F51FE25FFE4F25838230D9F0282F30E0E6
:101ED000F901EE0FFF1F43E0220F331F4A95E1F790
:101EE000E20FF31FE25FFE4F9081992351F48823A4
:101EF00019F4E1ECF0E002C0E9ECF0E080818068E8
:101F00008083089521E097CFFDCF08951F920F920F
:101F10000FB60F920BB60F9211242F933F934F934E
:101F20005F936F937F938F939F93AF93BF93EF9341
:101F3000FF936091C60080E015DEFF91EF91BF91A5
:101F4000AF919F918F917F916F915F914F913F9151
:101F50002F910F900BBE0F900FBE0F901F901895F2
:101F60001F920F920FB60F920BB60F9211242F9360
:101F70003F934F935F936F937F938F939F93AF9311
:101F8000BF93EF93FF936091CE0081E0EBDDFF9173
:101F9000EF91BF91AF919F918F917F916F915F91E1
:101FA0004F913F912F910F900BBE0F900FBE0F904E
:101FB0001F901895882319F4E1ECF0E002C0E9ECD9
:101FC000F0E08081806280830895882319F4E1EC39
:101FD000F0E002C0E9ECF0E080818F7D808308951D
:101FE000282F30E0F901EE0FFF1F93E0220F331F7F
:101FF0009A95E1F7E20FF31FE25FFE4F26813781EA
:102000002115310591F1282F30E0F901EE0FFF1F66
:10201000A3E0220F331FAA95E1F7E20FF31FE25F5F
:10202000FE4F4181282F30E0F901EE0FFF1F63E0E2
:10203000220F331F6A95E1F7E20FF31FE25FFE4FB5
:102040009381491790F4282F30E0F901EE0FFF1F1C
:1020500043E0220F331F4A95E1F7E20FF31FE25FDF
:10206000FE4F9081992309F4A5CFAFCF823029F19B
:10207000282F30E0F901EE0FFF1F53E0220F331F2E
:102080005A95E1F7E20FF31FE25FFE4F908199232B
:1020900049F4882319F4E1ECF0E002C0E9ECF0E047
:1020A00098E908C0882319F4E1ECF0E002C0E9ECFB
:1020B000F0E098E1908394DF78940895882319F0F4
:1020C000813029F402C080E0D1CF81E0CFCF0895E4
:1020D000A0E0B0E0EEE6F0E10C943A1DD82E7A01D3
:1020E0008B01ECDF8D2D823001F1DD2019F4C4EC81
:1020F000D0E002C0CCECD0E0C801B70128EF3FEF40
:102100004FEF5FEF0E94EE1C6050734D8E4C9E4F60
:10211000A8019701E4E0220F331F441F551FEA95E1
:10212000D1F70E94FD1C39832883CDB7DEB7E7E0E5
:102130000C94561DCDCF0895282F30E0F901EE0FF5
:10214000FF1F73E0220F331F7A95E1F7E20FF31FB1
:10215000E25FFE4F468157814115510509F465C084
:10216000282F30E0F901EE0FFF1F93E0220F331FFD
:102170009A95E1F7E20FF31FE25FFE4F6181282F8E
:1021800030E0F901EE0FFF1FA3E0220F331FAA95E5
:10219000E1F7E20FF31FE25FFE4F9381691708F04A
:1021A00044C0882319F4E0ECF0E002C0E8ECF0E071
:1021B000908195FF3AC0882319F4A6ECB0E002C0E4
:1021C000AEECB0E0282F30E0F901EE0FFF1F63E026
:1021D000220F331F6A95E1F7E20FF31FE25FFE4F14
:1021E0009181490F511DFA0190819C93282F30E075
:1021F000F901EE0FFF1F93E0220F331F9A95E1F7CD
:10220000E20FF31FE25FFE4F91819F5F282F30E0C6
:10221000F901EE0FFF1FA3E0220F331FAA95E1F78C
:10222000E20FF31FE25FFE4F9183DACE1F93182F68
:10223000823021F0CADE812F7FDF1CC0809128010F
:10224000909129010097B1F030912301209125014F
:10225000321780F406C0809123018F5F80932301A1
:10226000EDCF20912301820F911DFC01808125D1AA
:10227000882389F71F91089580E0D8DF81E0D6DFB9
:1022800082E0D4DF80E015DD81E013DD82E011CD56
:10229000F3CF0895282F30E0F901EE0FFF1F93E0F0
:1022A000220F331F9A95E1F7E20FF31FE25FFE4F13
:1022B00077836683282F30E0F901EE0FFF1FA3E03C
:1022C000220F331FAA95E1F7E20FF31FE25FFE4FE3
:1022D0001182282F30E0F901EE0FFF1F63E0220F7B
:1022E000331F6A95E1F7E20FF31FE25FFE4F43836E
:1022F000823009F075CE0895CDCF08951F920F92C8
:102300000FB60F920BB60F9211242F933F934F935A
:102310005F936F937F938F939F93AF93BF93EF934D
:10232000FF9380E009DFFF91EF91BF91AF919F9103
:102330008F917F916F915F914F913F912F910F906E
:102340000BBE0F900FBE0F901F9018951F920F920B
:102350000FB60F920BB60F9211242F933F934F930A
:102360005F936F937F938F939F93AF93BF93EF93FD
:10237000FF9381E0E1DEFF91EF91BF91AF919F91DB
:102380008F917F916F915F914F913F912F910F901E
:102390000BBE0F900FBE0F901F9018956F9364E0C7
:1023A0006A95F1F76F910197C9F708952F928F936E
:1023B0009F932FB68091830290918402019680931F
:1023C00083029093840290E080918502891F80931C
:1023D000850290918B029C5F90938B0280918A0280
:1023E00080519742C0F090938B0280938A02809133
:1023F00086029091870201968093860290938702CD
:1024000090E080918802891F8093880280918902E0
:10241000891F809389022FBE9F918F912F901895CD
:10242000CF93DF93EC0104C088EE93E0B7DF2197F0
:102430002097D1F7DF91CF910895F2CF0895E0E78B
:10244000F0E080818E7F8083A0EBB0E08C91836090
:102450008C93A1EBB0E08C91807F8C938C91826007
:102460008C93B89A8081816080837894089580915C
:102470008C02882321F481E080938C02E0CF0895C0
:10248000F6DFE0E7F0E080818E7F80832091860296
:102490003091870240918802509189028081816049
:1024A0008083B901CA010895EBCF08958FEF64E0EE
:1024B00043C083E867E040D0F9CF1F93182F982FCF
:1024C0009095991F9927991F85E8891B65E034D05D
:1024D000812F8F7765E030D01F9108956F9364E06E
:1024E0006A95F1F76F910197C9F70895A1E0B0E0FF
:1024F000ECE7F2E10C943E1D182F249908C02C99AA
:1025000006C02C9A8EE190E06983E8DF698184B18E
:10251000806A84B92698812F837080656C7A862BB7
:102520008CBD81E012FF80E08DBD81E090E078DF1E
:102530002196E3E00C945A1D0F931F93082F162F3A
:102540000CB406FC03C080E064E0D0DF0CB404FCF3
:1025500003C08CB580618CBD0EBD03C00CB404FEFD
:102560000AC00DB407FEFACF112319F0812F90E0B5
:10257000B5DF8EB501C080E01F910F9108952F92B5
:102580003F924F925F926F927F928F929F92AF9203
:10259000BF92CF92DF92EF92FF920F931F93CF9350
:1025A000DF93CDB7DEB763970FB6F894DEBF0FBEEB
:1025B000CDBF7C011B016A01FC0117821682838159
:1025C00081FF66C3BE016F5F7F4F4B01F7019381AF
:1025D000F10193FD859193FF81911F01882309F4F7
:1025E00053C3853239F493FD859193FF81911F0187
:1025F000853239F4B70190E00E942D205601650123
:10260000E5CF10E0512C20E02032A0F48B3269F0AD
:1026100030F4803259F0833269F420612CC08D325D
:1026200039F0803339F4216026C02260246023C051
:10263000286021C027FD27C030ED380F3A3078F4EC
:1026400026FF06C0FAE01F9F300D1124132F13C080
:102650006AE0569E300D1124532E20620CC08E323B
:1026600021F426FD11C3206406C08C3611F42068C5
:1026700002C0883641F4F10193FD859193FF819169
:102680001F018111C1CF9BEB980F933018F420618B
:10269000805E06C09BE9980F933008F0AAC12F7E98
:1026A00026FF16E02F73722E853621F4F22FF06488
:1026B0007F2E08C0863621F4622F6068762E02C015
:1026C0001111115077FE07C01C3348F44424439481
:1026D000410E27E00BC0183030F4212F06C027E050
:1026E0004CE3442E03C027E017E0412C560174E070
:1026F000A70EB11CF6016081718182819381042D46
:10270000A4010E949C1E6C01098100FF02C003FF0E
:1027100006C071FC07C072FC08C0612C08C03DE215
:10272000632E05C02BE2622E02C090E2692E802F3C
:102730008C7099F1662011F084E001C083E085156A
:1027400010F0512C0BC0581A73FC08C0B70180E27E
:1027500090E00E942D205A94C9F7F3CF662029F00B
:10276000B701862D90E00E942D2003FD03C006EFE7
:1027700010E002C002EF10E0F72DF0717F2EF8019B
:102780008491882309F476C271108052B70190E0D9
:102790000E942D200F5F1F4FF2CF77FE0FC04C0C11
:1027A00004FF04C08A81813309F44A94141474F537
:1027B000F8E0F41578F588E0482E2CC076FC2AC0A5
:1027C000812F90E08C159D059CF06CEFC6166FEF85
:1027D000D60674F0772D7068772E0AC0E2E0F0E03C
:1027E000EC0FFD1FE10FF11D8081803319F41150B2
:1027F0001111F4CF77FE0EC044244394410E812F73
:1028000090E0C816D9062CF41C1904C04424439443
:1028100001C010E077FE07C01C141D043CF49601B3
:102820002F5F3F4F05C025E030E002C021E030E0DF
:10283000662011F02F5F3F4F112331F0412F50E000
:102840004F5F5F4F240F351F452D50E0241735078C
:1028500014F4521A01C0512C872D897049F4552067
:1028600039F0B70180E290E00E942D205A94F7CF12
:10287000662029F0B701862D90E00E942D2073FC80
:1028800009C0552039F0B70180E390E00E942D2067
:102890005A94F7CF77FE5FC09C2D8D2DD7FE02C0D6
:1028A00090E080E0692E782E40E050E0C601841967
:1028B00091099D878C87960126193709280D391DA6
:1028C000812F90E0EE27FF27E81BF90BFF87EE87AB
:1028D000FFEF6F167F0669F4B7018EE290E02B8B55
:1028E0003A8B488B598B0E942D20598948893A8907
:1028F0002B89C614D70454F06C857D856615770541
:102900002CF4F901E40FF51F818101C080E371E02F
:10291000671A71084F5F5F4FEE85FF856E167F0661
:102920006CF0B70190E02B8B3A8B488B598B0E944F
:102930002D202B893A8948895989CACF6C147D0486
:1029400039F49A81963318F4953311F404FF81E336
:10295000B70190E04BC08A81813309F00F7EB70147
:1029600090E00E942D20111105C074FE18C085E46E
:1029700090E017C0B7018EE290E00E942D2082E027
:1029800066246394680EF401E80FF11D8081B7019D
:1029900090E00E942D20115041F3862DF1CF85E665
:1029A00090E0B7010E942D20D7FC05C0C114D104CE
:1029B00039F404FF05C0D194C194D1088DE201C05F
:1029C0008BE2B70190E00E942D2080E36AE0C616FA
:1029D000D1042CF08F5FFAE0CF1AD108F7CFB701FE
:1029E00090E00E942D20B701C601C0960E942D20C4
:1029F00041C1833631F0833779F0833509F058C00F
:102A000021C0560172E0A70EB11CF60180818983B6
:102A100001E010E0640114C05601F2E0AF0EB11CF9
:102A2000F601C080D18026FF03C0612F70E002C094
:102A30006FEF7FEFC6012B8B0E949A1F8C012B89B1
:102A40002F7715C05601F2E0AF0EB11CF601C08021
:102A5000D18026FF03C0612F70E002C06FEF7FEFCF
:102A6000C6012B8B0E948F1F8C012B892068722E30
:102A700023FD1AC0852D90E008171907A8F4B701A7
:102A800080E290E00E942D205A94F4CFF60177FC6A
:102A9000859177FE81916F01B70190E00E942D2012
:102AA00051105A94015011090115110579F7E2C02E
:102AB000843611F0893651F5560127FF09C0F4E03C
:102AC000AF0EB11CF60160817181828193810AC0D1
:102AD000F2E0AF0EB11CF60160817181882777FDAD
:102AE0008095982F022F0F7697FF08C090958095BC
:102AF000709561957F4F8F4F9F4F00682AE030E0BF
:102B0000A4010E94DA20C82EC8183EC0022F8537C3
:102B100021F40F7E2AE030E01DC0097F8F3691F04E
:102B200018F4883559F0B0C0803719F0883711F0A3
:102B3000ABC0006104FF09C0046007C024FF08C0E7
:102B4000066006C028E030E005C020E130E002C0A9
:102B500020E132E0560107FF09C0F4E0AF0EB11CDE
:102B6000F601608171818281938108C0F2E0AF0E2D
:102B7000B11CF6016081718180E090E0A4010E94A7
:102B8000DA20C82EC8180F7706FF0BC0202F2E7F23
:102B9000C11650F404FF0AC002FD08C0202F2E7E8B
:102BA00005C0DC2C202F03C0DC2C01C0D12E24FF5B
:102BB0000DC0FE01EC0DF11D8081803311F4297EE2
:102BC00009C022FF06C0D394D39404C0822F867814
:102BD00009F0D39423FD13C020FF06C01C2DD5148B
:102BE00018F4150D1D19D52CD51468F4B70180E221
:102BF00090E02B8B0E942D20D3942B89F5CFD514F8
:102C000010F45D1801C0512C24FF12C0B70180E3FD
:102C100090E02B8B0E942D202B8922FF17C021FFD3
:102C200003C088E590E002C088E790E0B7010CC0DF
:102C3000822F867859F021FD02C080E201C08BE22C
:102C400027FD8DE2B70190E00E942D20C11638F4D7
:102C5000B70180E390E00E942D201150F7CFCA9475
:102C6000F401EC0DF11D8081B70190E00E942D2050
:102C7000C110F5CF552009F4C2CCB70180E290E035
:102C80000E942D205A94F6CFF7018681978102C0C9
:102C90008FEF9FEF63960FB6F894DEBF0FBECDBFE8
:102CA000DF91CF911F910F91FF90EF90DF90CF9028
:102CB000BF90AF909F908F907F906F905F904F905C
:102CC0003F902F9008955058BB27AA270ED075C16A
:102CD00066D130F06BD120F031F49F3F11F41EF437
:102CE0005BC10EF4E095E7FB51C1E92F77D180F38A
:102CF000BA17620773078407950718F071F49EF5F9
:102D00008FC10EF4E0950B2EBA2FA02D0B01B90147
:102D100090010C01CA01A0011124FF27591B99F051
:102D2000593F50F4503E68F11A16F040A22F232F5D
:102D3000342F4427585FF3CF469537952795A795AD
:102D4000F0405395C9F77EF41F16BA0B620B730B54
:102D5000840BBAF09150A1F0FF0FBB1F661F771FC5
:102D6000881FC2F70EC0BA0F621F731F841F48F47A
:102D7000879577956795B795F7959E3F08F0B3CF00
:102D80009395880F08F09927EE0F979587950895EA
:102D9000D9D008F481E008950CD00FC107D140F0DC
:102DA000FED030F021F45F3F19F0F0C0511139C16D
:102DB000F3C014D198F39923C9F35523B1F3951BAC
:102DC000550BBB27AA2762177307840738F09F5F4C
:102DD0005F4F220F331F441FAA1FA9F333D00E2EBB
:102DE0003AF0E0E830D091505040E695001CCAF728
:102DF00029D0FE2F27D0660F771F881FBB1F2617ED
:102E000037074807AB07B0E809F0BB0B802DBF01BF
:102E1000FF2793585F4F2AF09E3F510568F0B6C0D8
:102E200000C15F3FECF3983EDCF38695779567959C
:102E3000B795F7959F5FC9F7880F911D9695879570
:102E400097F90895E1E0660F771F881FBB1F62178F
:102E500073078407BA0720F0621B730B840BBA0B4D
:102E6000EE1F88F7E095089504D06894B111D9C099
:102E70000895BCD088F09F5790F0B92F9927B7518B
:102E8000A0F0D1F0660F771F881F991F1AF0BA952E
:102E9000C9F712C0B13081F0C3D0B1E00895C0C00D
:102EA000672F782F8827B85F39F0B93FCCF3869524
:102EB00077956795B395D9F73EF490958095709581
:102EC00061957F4F8F4F9F4F0895E89409C097FBFE
:102ED0003EF490958095709561957F4F8F4F9F4FF1
:102EE0009923A9F0F92F96E9BB279395F695879535
:102EF00077956795B795F111F8CFFAF4BB0F11F4F8
:102F000060FF1BC06F5F7F4F8F4F9F4F16C088239E
:102F100011F096E911C0772321F09EE8872F762FD4
:102F200005C0662371F096E8862F70E060E02AF015
:102F30009A95660F771F881FDAF7880F9695879501
:102F400097F90895990F0008550FAA0BE0E8FEEFD6
:102F500016161706E807F907C0F012161306E4075D
:102F6000F50798F0621B730B840B950B39F40A2656
:102F700061F0232B242B252B21F408950A2609F434
:102F8000A140A6958FEF811D811D089597F99F6738
:102F900080E870E060E008959FEF80EC08950024E1
:102FA0000A941616170618060906089500240A94AE
:102FB00012161306140605060895092E0394000C34
:102FC00011F4882352F0BB0F40F4BF2B11F460FFC3
:102FD00004C06F5F7F4F8F4F9F4F089557FD9058EC
:102FE000440F551F59F05F3F71F04795880F97FBCD
:102FF000991F61F09F3F79F0879508951216130687
:103000001406551FF2CF4695F1DF08C016161706B5
:103010001806991FF1CF86957105610508940895EA
:10302000E894BB2766277727CB0197F908958ADFB5
:1030300008F48FEF08950BD0C0CFB1DF28F0B6DFD2
:1030400018F0952309F0A2CFA7CF1124EACFC6DF4D
:10305000A0F3959FD1F3950F50E0551F629FF001AB
:10306000729FBB27F00DB11D639FAA27F00DB11D04
:10307000AA1F649F6627B00DA11D661F829F22278D
:10308000B00DA11D621F739FB00DA11D621F839F14
:10309000A00D611D221F749F3327A00D611D231FEA
:1030A000849F600D211D822F762F6A2F11249F5738
:1030B00050408AF0E1F088234AF0EE0FFF1FBB1F5B
:1030C000661F771F881F91505040A9F79E3F5105FA
:1030D00070F05CCFA6CF5F3FECF3983EDCF38695B3
:1030E00077956795B795F795E7959F5FC1F7FE2BA5
:1030F000880F911D9695879597F9089520FD09C031
:10310000FC0123FD05C022FF02C07383628351834B
:103110004083089544FD10C046FD10C0DB01FC0152
:10312000AA0FBB1FEE1FFF1F1094D1F76A0F7B1F62
:103130008E1F9F1F31E003C033E001C034E0660FF3
:10314000771F881F991F3150D1F7620F711D811DA4
:10315000911D08950F931F93CF93DF938C01C801A6
:103160003ED7EC0197FD07C0BFD6892BC1F7B80148
:10317000CE010E94C120CE01DF91CF911F910F910E
:1031800008956F927F929F92AF92BF92CF92DF92FB
:10319000EF92FF920F931F93CF93DF931F92CDB7C0
:1031A000DEB78C013B015A01298319D7AC015527A1
:1031B00029814B32510521F04D32510579F42068B7
:1031C00031E0631A71086114710411F480E078C071
:1031D000C801298304D7298197FDF8CFE22FED7F1D
:1031E0009E2E322F307369F5803359F57301F1E06B
:1031F000EF1AF108E114F10409F44FC0C801298362
:10320000EED6298197FD49C0382F3F7D383579F4B6
:10321000292D2264922E32E0631A71086114710420
:1032200009F43BC0C801DBD697FF0BC036C026FFB0
:1032300004C0E92DE2609E2E03C0F92DF2619F2E9D
:103240003701C12CD12C760120ED280F283078F0E1
:1032500094FE03C0B80195D71DC02A3040F096FEF9
:10326000F9CF2F7D3FEE320F3630A0F72750492D92
:10327000C701B6014FDF6B017C01292D2260922E20
:1032800031E0631A71086114710451F0C801A7D6C6
:1032900097FFDACF91FC04C099CFC12CD12C7601D5
:1032A00097FE08C0F094E094D094C094C11CD11C47
:1032B000E11CF11C292DB701A601C5011FDF81E02A
:1032C0000F90DF91CF911F910F91FF90EF90DF90C2
:1032D000CF90BF90AF909F907F906F9008954F9246
:1032E0005F926F927F928F929F92AF92BF92CF9296
:1032F000DF92EF92FF920F931F93CF93DF93CDB79F
:10330000DEB7A0970FB6F894DEBF0FBECDBF5C014D
:103310004B017A018E010F5F1F4F680180E2F801B7
:1033200011928A95E9F7F501638080E090E0712CB5
:10333000412CB0E041E050E0F90163FC559063FEA0
:1033400051908F01A52D9F01511003C080E090E0A6
:103350007DC0FEE55F1202C0009761F16B2F70E047
:10336000681779074CF46DE5561661F1EDE25E12CF
:1033700003C0442009F103C0411001C0752C6A2F1D
:10338000669566956695F601E60FF11D6A2F6770E2
:103390008A0102C0000F111F6A95E2F7B80170811F
:1033A000762B7083A71559F0A71510F4AF5FE7CF00
:1033B000A150E5CFB1E004C04424439401C0412CA6
:1033C0000196BACF442019F08E8180628E83B111AC
:1033D00003C07724739419C0F601CE018196208131
:1033E00020952193E817F907D1F7F3CFE114F10401
:1033F00029F0F7018083C70101967C0191E0891AC9
:10340000910881149104E1F0712CC501E8D597FD74
:1034100015C0282F269526952695F601E20FF11D59
:10342000208130E0AC014770552702C035952795C3
:103430004A95E2F720FDDACFB501A3D6711086CF09
:10344000E114F10411F0F7011082C801A0960FB643
:10345000F894DEBF0FBECDBFDF91CF911F910F91CA
:10346000FF90EF90DF90CF90BF90AF909F908F90A4
:103470007F906F905F904F9008952F923F924F9260
:103480005F926F927F929F92AF92BF92CF92DF92A4
:10349000EF92FF920F931F93CF93DF9300D000D052
:1034A00000D0CDB7DEB76C018B011A0198D59E8391
:1034B0008D8399278B32910529F08D9791F480E8BF
:1034C000982E01C0912C015011090115110511F41C
:1034D00080E028C1C60183D59E838D8397FF02C0FB
:1034E000F7CF912C8D819E8107D58936910541F0CA
:1034F0008E369105C1F5BCE06B2EB1E07B2E04C089
:10350000AFE06A2EA1E07A2E8FEF681A780AF301F5
:103510003197B490BB20D9F0015011090115110564
:1035200059F0C6015CD57C0197FD06C0E5D4B816FC
:1035300059F3B601C70125D622E1621621E07206D1
:1035400009F0C6CF80E090E0A0E8BFE709C09FE0A7
:10355000691691E07906B1F780E090E0A0ECBFE752
:10356000BC01CD01CFC0412C512C3201E12CF12CFA
:103570002D8120532A3020F5E92DE260BE2E892DC1
:10358000887092FE06C0811122C0FFEFEF1AFF0A79
:103590001EC0882319F081E0E81AF10840E2C30157
:1035A000B201B8DD2B013C0198E9491699E95906A9
:1035B000690699E1790658F0E92DE660BE2E07C04C
:1035C0002E3F99F493FC11C0F92DF860BF2E0150E5
:1035D00011090115110541F0C60101D59E838D83A6
:1035E0009B2C97FD02C0C4CF9B2C91FE71CF8D8187
:1035F0008F7D853409F052C0580121E0A21AB1082C
:10360000A114B10409F464CFC601E9D49E838D836B
:1036100097FD5ECF99278B32910529F08D9779F42C
:10362000892D8061982E580192E0A91AB108A11441
:10363000B10409F44DCFC601D2D49E838D838D8110
:103640009E81C0970A9708F043CF8501A12CB12C29
:10365000B501882777FD8095982F2D81205340E272
:1036600059DDAB01BC015A010150110901151105C9
:1036700069F0C60149835A836B837C83B0D49E83EF
:103680008D83C09749815A810A9710F394FE04C034
:10369000AA24BB24A41AB50AEA0CFB1C012B39F09E
:1036A000ED81FE81F7FD03C0B601CF016AD5C301EC
:1036B000B2010BDCF7FE08C0F194E194F108FBE2E3
:1036C000AF2EF1E0BF2E04C0E3E4AE2EE1E0BE2E4B
:1036D0006501F8E1CF1AD10800E210E0E016F1062A
:1036E00048F0F5012591359145915491A4DCE01AFB
:1036F000F10AF4CF24E0A21AB10816950795AC148C
:10370000BD0461F797FE05C0DC01CB01B058BC01D8
:10371000CD012114310429F0F1016083718382838A
:10372000938381E026960FB6F894DEBF0FBECDBF1F
:10373000DF91CF911F910F91FF90EF90DF90CF908D
:10374000BF90AF909F907F906F905F904F903F9011
:103750002F9008954F925F926F927F928F929F92D7
:10376000AF92BF92CF92DF92EF92FF920F931F938F
:10377000CF93DF931F92CDB7DEB78C012B017A0177
:10378000FC0117821682A12CF801D380F201D3FC30
:103790008591D3FE8191382F2F01882309F407C129
:1037A00090E03983A1D33981892B19F0C801D2DC8B
:1037B000EBCF353241F4F201D3FC3591D3FE319198
:1037C0002F01353259F4C801398309D4398197FD65
:1037D000ECC03817C9F2B801D4D4E9C03A3241F488
:1037E000D3FC3591D3FE31912F01BB24B39401C09A
:1037F000B12C812C912C20ED230F2A3080F4FB2D4D
:10380000F260BF2EB40180E090E040E283DC4B0127
:10381000F201D3FC3591D3FE31912F01ECCFB1FEF3
:1038200004C08114910421F4C2C088248A94982C85
:10383000383619F03C3661F014C0F201D3FC3591F2
:10384000D3FE31912F01383661F4FB2DF860BF2E85
:103850008B2D8460B82EF201D3FC3591D3FE3191CB
:103860002F01332309F4A3C0632F70E08AEF90E0A7
:1038700039834AD33981892B09F499C0B0FC07C038
:10388000F701C080D180C70102967C0102C0C12C23
:10389000D12C3E3649F4F8014681578160E070E052
:1038A0002B2DC6012BDC70CF3336C1F4B1FC03C025
:1038B00088248394912CC80192D397FD76C0C114BB
:1038C000D10429F0F6018083C60101966C0191E0D4
:1038D000891A91088114910471F763C03B3551F442
:1038E0009201A601B401C801FADC2C01009709F08D
:1038F00058C052C0C80139832DDC398197FD55C0AD
:103900003F36D9F140F43436A1F13936C9F13835B2
:1039100009F03CC02AC03337B9F018F4303729F128
:1039200035C0353731F1383701F130C0C114D10419
:1039300029F0F6016082C60101966C0191E0891AB6
:1039400091088114910459F0C80149D33C0197FDB5
:1039500006C0CAD2892B51F3B801C30112D4C114D5
:10396000D104F9F0F60110821CC0FB2DF064BF2ECB
:1039700007C08B2D8062B82E03C09B2D9061B92E9D
:103980002B2DA601B401C801FCDB04C0A601B401C3
:10399000C80173DD811105C0F8018381807329F4AA
:1039A00006C0B0FCF1CEA394EFCEAA2019F08A2D68
:1039B00090E002C08FEF9FEF0F90DF91CF911F91AA
:1039C0000F91FF90EF90DF90CF90BF90AF909F90BE
:1039D0008F907F906F905F904F900895DB018F9351
:1039E0009F9333D0BF91AF91A29F800D911DA39F54
:1039F000900DB29F900D11240895A1E21A2EAA1BDA
:103A0000BB1BFD010DC0AA1FBB1FEE1FFF1FA2178E
:103A1000B307E407F50720F0A21BB30BE40BF50B8B
:103A2000661F771F881F991F1A9469F76095709514
:103A3000809590959B01AC01BD01CF010895EE0FDB
:103A4000FF1F0590F491E02D099440D0A59F900DA3
:103A5000B49F900DA49F800D911D112408952F9265
:103A60003F924F925F926F927F928F929F92AF920E
:103A7000BF92CF92DF92EF92FF920F931F93CF935B
:103A8000DF93CDB7DEB7CA1BDB0B0FB6F894DEBFF2
:103A90000FBECDBF09942A88398848885F846E8418
:103AA0007D848C849B84AA84B984C884DF80EE8062
:103AB000FD800C811B81AA81B981CE0FD11D0FB66B
:103AC000F894DEBF0FBECDBFED010895A29FB001F7
:103AD000B39FC001A39F700D811D1124911DB29F42
:103AE000700D811D1124911D0895CF93DF938230B5
:103AF000910510F482E090E0E0911A03F0911B032D
:103B000020E030E0A0E0B0E0309739F14081518111
:103B100048175907B8F04817590771F48281938103
:103B2000109729F013969C938E9312972CC0909324
:103B30001B0380931A0327C02115310531F042176A
:103B4000530718F0A901DB0101C0EF019A01BD0183
:103B5000DF010280F381E02DD7CF21153105F9F087
:103B6000281B390B2430310580F48A819B81611533
:103B7000710521F0FB019383828304C090931B03A2
:103B800080931A03FE01329644C0FE01E20FF31F38
:103B90008193919322503109398328833AC020912F
:103BA000180330911903232B41F4209136013091F1
:103BB0003701309319032093180320913401309179
:103BC00035012115310541F42DB73EB7409138013B
:103BD00050913901241B350BE0911803F091190322
:103BE000E217F307A0F42E1B3F0B2817390778F0D4
:103BF000AC014E5F5F4F2417350748F04E0F5F1F33
:103C000050931903409318038193919302C0E0E00D
:103C1000F0E0CF01DF91CF910895CF93DF9300972C
:103C200009F487C0FC01329713821282C0911A03F3
:103C3000D0911B03209781F420813181280F391FF7
:103C400080911803909119038217930779F5F093E7
:103C50001903E09318036DC0DE0120E030E0AE17D9
:103C6000BF0750F412964D915C9113979D01411539
:103C7000510509F1DA01F3CFB383A2834081518169
:103C8000840F951F8A179B0771F48D919C91119752
:103C9000840F951F02969183808312968D919C913B
:103CA0001397938382832115310529F4F0931B0325
:103CB000E0931A033EC0D9011396FC93EE9312973A
:103CC0004D915D91A40FB51FEA17FB0779F4808130
:103CD0009181840F951F0296D90111969C938E9322
:103CE0008281938113969C938E931297E0E0F0E08B
:103CF0008A819B81009719F0FE01EC01F9CFCE017A
:103D0000029628813981820F931F209118033091E8
:103D100019032817390769F4309729F410921B0307
:103D200010921A0302C013821282D0931903C09317
:103D30001803DF91CF910895283008F027E033274A
:103D4000DA01990F311D87FD9160009661057105BB
:103D500039F432602E5F3D9330E32A95E1F7089500
:103D60009F3F30F080387105610509F03C5F3C5F92
:103D70003D93913008F08068911DDF93CF931F939E
:103D80000F93FF92EF92192F987F9695E92F9695B2
:103D90009695E90FFF27EF55FE4F99273327EE241D
:103DA000FF24A701E70105900894079428F4360F33
:103DB000E71EF81E491F511D660F771F881F991FA8
:103DC0000694A1F70590079428F4E70EF81E491F02
:103DD000561FC11D770F881F991F661F0694A1F7F4
:103DE0000590079428F4F80E491F561FC71FD11DD0
:103DF000880F991F661F771F0694A1F705900794F7
:103E000020F4490F561FC71FD81F990F661F771F31
:103E1000881F0694A9F784911095177041F0D695E4
:103E2000C79557954795F794E7941A95C1F7E7E436
:103E3000F1E06894159015913591659195910590F3
:103E40007FE27395E118F10A430B560BC90BD009B9
:103E5000C0F7E10CF11E431F561FC91FD01D7EF491
:103E6000703311F48A95E6CFE894015030F0080FD2
:103E70000AF40027021708F4202F2395022F7A3323
:103E800028F079E37D932A95E9F710C07D932A9570
:103E900089F6069497956795379517951794E118C5
:103EA000F10A430B560BC90BD00998F023957E916C
:103EB00073957A3308F070E37C932013B8F77E9102
:103EC00070617D9330F0839571E37D9370E32A9563
:103ED000E1F71124EF90FF900F911F91CF91DF91A7
:103EE000992787FD909508959111DCC1803219F0D2
:103EF00089508550D0F708959111089581548A51C1
:103F000008F4805E855A0895FC010590061621F09C
:103F10000020D9F7C00108953197CF010895FC0121
:103F20000590615070400110D8F7809590958E0FE4
:103F30009F1F0895FC016150704001900110D8F757
:103F4000809590958E0F9F1F08950F931F93CF9389
:103F5000DF93EC018B01009731F46115710519F4C1
:103F600080E090E037C06EE070E081E090E080D1CA
:103F7000FC010097A9F380E883830115110571F016
:103F80001387028781E8838380911C0390911D032E
:103F9000892B21F4F0931D03E0931C032097C9F0B3
:103FA000D187C08783818260838380911E03909133
:103FB0001F03892B71F4F0931F03E0931E0380917C
:103FC000200390912103892B21F4F0932103E093A6
:103FD0002003CF01DF91CF911F910F910895CF93CF
:103FE000DF93EC012B8120FF33C026FF0AC02F7B1B
:103FF0002B838E819F8101969F838E838A8190E09F
:1040000029C022FF0FC0E881F9818081992787FDAF
:104010009095009719F420622B831AC03196F9838A
:10402000E8830EC0EA85FB85099597FF09C02B81BF
:10403000019611F480E101C080E2822B8B8308C0DD
:104040002E813F812F5F3F4F3F832E83992702C0F0
:104050008FEF9FEFDF91CF9108950F931F93CF9331
:10406000DF93182F092FEB018B8181FD03C08FEFA8
:104070009FEF20C082FF10C04E815F812C813D8167
:10408000421753077CF4E881F9819F012F5F3F4F6E
:1040900039832883108306C0E885F985812F099527
:1040A000892B29F72E813F812F5F3F4F3F832E833E
:1040B000812F902FDF91CF911F910F910895CF9372
:1040C000DF93CDB7DEB7FE01359661917191AF01F7
:1040D00080911E0390911F030E94BF12DF91CF9128
:1040E00008950F931F93CF93DF93CDB7DEB72E972D
:1040F0000FB6F894DEBF0FBECDBF0D891E8986E0D6
:104100008C831A8309838FEF9FE79E838D83AE0193
:10411000475E5F4F6F89788DCE0101960E94BF1276
:10412000EF81F885E00FF11F10822E960FB6F894FC
:10413000DEBF0FBECDBFDF91CF911F910F910895CC
:10414000CF93DF93CDB7DEB72E970FB6F894DEBFCF
:104150000FBECDBF85E08C838B899C899A83898330
:10416000AE01495E5F4F6D897E89CE010196F2DA1C
:104170002E960FB6F894DEBF0FBECDBFDF91CF9164
:104180000895FB01238120FF12C026FD10C08F3F40
:104190003FEF930761F082832F7D20642383268184
:1041A00037812150310937832683992708958FEF6E
:1041B0009FEF0895FA01AA27283051F1203181F1AB
:1041C000E8946F936E7F6E5F7F4F8F4F9F4FAF4F1F
:1041D000B1E03ED0B4E03CD0670F781F891F9A1F32
:1041E000A11D680F791F8A1F911DA11D6A0F711DE6
:1041F000811D911DA11D20D009F468943F912AE0F2
:10420000269F11243019305D3193DEF6CF010895D9
:10421000462F4770405D4193B3E00FD0C9F7F6CF0A
:10422000462F4F70405D4A3318F0495D31FD4052D2
:10423000419302D0A9F7EACFB4E0A6959795879568
:1042400077956795BA95C9F7009761057105089547
:104250009B01AC010A2E06945795479537952795F3
:10426000BA95C9F7620F731F841F951FA01D08958B
:104270000F931F93CF93DF93869F8001879F100D2D
:10428000969F100D1124C80130DCEC01009721F03D
:10429000A80160E070E009D0CE01DF91CF911F91BD
:1042A0000F910895992788270895DC0101C06D9327
:0C42B00041505040E0F70895F894FFCF13
:1042BC00C9086666063F0AD7233C010102100000BC
:1042CC0000000000000000000000000000000000E2
:1042DC00000001000000000000000000FFFFFFFFD5
:1042EC00FFFFFFFF000022032000493A25202E3259
:1042FC0066443A25203034660056656C6F3A256C5E
:10430C006420503A252030336400555342205365C5
:10431C007269616C20496E697469616C697A656453
:10432C0020444444440D0A000D4D656E753A207BC3
:10433C0054505A7D207B524759417D203C696E7404
:10434C003E3A20002563202566000D0A30703A2580
:10435C006320563A25640D0A00456E636F646572DE
:10436C0020436F756E74733A20256C640D0A0043FC
:10437C00757272656E74206D6F746F7220737065D8
:10438C0065643A2025640D0A004572726F723A20FA
:10439C0025640D0A00546F72713A2025640D0A00D1
:1043AC004B703A252E33662C204B693A252E3366FA
:1043BC002C204B643A252E33660D0A00503A2564A6
:1043CC0020493A25202E3366204425202E33660DB5
:1043DC000A004465736972656420563A256420436B
:1043EC00757272656E743A5625640D0A00436F6DD2
:1043FC006D616E6420646F6573206E6F7420636FE3
:0A440C006D707574652E0D0A000036
:00000001FF
