:1000000020C100003CC100003AC1000038C100001E
:1000100036C1000034C1000032C100000C94240934
:100020002EC100002CC100002AC100000C945416FF
:1000300026C10000A6C4000022C1000020C10000AB
:100040001EC100001CC100001AC1000018C1000040
:100050000C9404140C94FC1512C1000010C1000093
:100060000EC100000CC100000AC1000008C1000060
:100070000C942E140C94241602C1000000C1000040
:10008000FEC00000FCC00000FAC00000520E0B0FC2
:100090000B0F0B0F0B0F5F0E0B0F0B0F630B0B0FE9
:1000A0000B0F0B0F450E0B0F110F210E6C0EF10EE7
:1000B000990B0B0F0B0F0B0F0B0F0B0F0B0F0B0FE6
:1000C0000B0F0B0F0B0F0B0F0B0F0B0F520E0B0F1A
:1000D0000B0F0B0F0B0F5F0E0B0F0B0F630B0B0FA9
:1000E0000B0F0B0F450E0B0F110F210E790E0B0F7F
:1000F000990B6E616E00696E66006364696E6F7065
:10010000737578585B65666745464700616E006E9B
:1001100066696E69747900CDCCCC3D0AD7233C1753
:10012000B7D13877CC2B329595E6241FB14F0A0012
:100130000020410000C84200401C4620BCBE4CCA02
:100140001B0E5AAEC59D7400407A10F35A00A0727F
:100150004E18090010A5D4E80000E8764817000002
:10016000E40B54020000CA9A3B000000E1F50500D0
:100170000080969800000040420F000000A0860119
:10018000000000102700000000E8030000000064E9
:1001900000000000000A0000000000010000000054
:1001A000002C76D888DC674F0823DFC1DFAE59E129
:1001B000B1B796E5E3E453C63AE651997696E8E698
:1001C000C28426EB898C9B62ED407C6FFCEFBC9C6B
:1001D0009F40F2BAA56FA5F490055A2AF75C936B7D
:1001E0006CF9676DC11BFCE0E40D47FEF520E6B538
:1001F00000D0ED902E0300943577050080841E0812
:100200000000204E0A000000C80C333333330F982F
:100210006E12831141EF8D2114893BE65516CFFEF6
:10022000E6DB18D1844B381BF77C1D901DA4BBE482
:1002300024203284725E228100C9F124ECA1E53DC4
:10024000270011241FBECFEFD0E4DEBFCDBF13E0E7
:10025000A0E0B1E0EAE4FBE400E00BBF02C00790DD
:100260000D92A035B107D9F72AE3A0E5B3E001C0AC
:100270001D92AE3AB207E1F711D00C94A325C0CE7F
:10028000A0E0B0E0E6E4F1E00C948621809110015A
:100290008F5F80931001E2E00C94A221A4E4B0E00F
:1002A000E4E5F1E00C9476210E94C10A0E948A10D4
:1002B0000E94FC11A0D70E94FA090E94BB098091FC
:1002C0006C0390916D038130910541F080916E0334
:1002D00090916F038130910509F045C060E080E0A6
:1002E0000E94AB1080915E0390915F03A091600328
:1002F000B09161032B2F2F932A2F2F93292F2F9308
:100300008F9380E491E0892F8F9380E491E08F9325
:100310000E94A6240F900F900F900F900F900F90B7
:1003200061E080E00E94AB10809193039091940370
:10033000A0919503B09196032B2F2F932A2F2F93E3
:10034000292F2F938F9388E491E0892F8F9388E44E
:1003500091E08F930E94A6240F900F900F900F9022
:100360000F900F9068C080916A0390916B03813069
:10037000910509F060C060E080E00E94AB108091C0
:100380006F0B9091700BA091710BB091720B2B2F92
:100390002F932A2F2F93292F2F938F9380E591E06E
:1003A000892F8F9380E591E08F930E94A6240F9070
:1003B0000F900F900F900F900F9061E080E00E94DF
:1003C000AB1080915A0390915B039C01442737FD49
:1003D0004095542F80916F0B9091700BA091710BF1
:1003E000B091720B79018A01E81AF90A0A0B1B0B0A
:1003F000D801C70120915A0330915B034B2F4F93D3
:100400004A2F4F93492F4F938F93832F8F93822F90
:100410008F9388E591E0892F8F9388E591E08F9302
:100420000E94A6240DB71EB7085F1F4F0FB6F894A1
:10043000DEBF0FBECDBF0E94C6150E941B0F80916C
:10044000680390916903843F11E091070CF441C166
:10045000CE01059623E1E7E6F1E0DC0101900D9283
:100460002A95E1F782E190E09C838B832B813C818C
:10047000CE010596B9010E94AA0AE0900801F09009
:10048000090100910A0110910B01209104013091A2
:100490000501409106015091070180910001909162
:1004A0000101A0910201B0910301612F6F93602FB0
:1004B0006F936F2D6F936E2D6F93652F6F93642FD6
:1004C0006F93632F6F932F932B2F2F932A2F2F939D
:1004D000292F2F938F938AE791E0892F8F938AE7B3
:1004E00091E08F93CE010596292F2F938F930E9431
:1004F000B8242DB73EB7205F3F4F0FB6F894DEBF4C
:100500000FBECDBF9C838B832B813C81CE01059692
:10051000B9010E94AA0A1A821982C3C089819A81EC
:10052000880F991F880F991F8D5B9C4EFC01E080FE
:10053000F180028113812596ECAEFDAE0EAF1FAFA8
:10054000259789819A81880F991F880F991F8D5847
:10055000944FFC01208031804280538089819A81B0
:10056000880F991F880F991F8954954DFC01608051
:1005700071808280938089819A81880F991F880F6A
:10058000991F8F569D4CFC01A080B180C280D38002
:1005900089819A81880F991F880F991F8D519D4DD0
:1005A000FC01E080F1800281138189819A81880FAA
:1005B000991F880F991F8D5E944EFC012081318117
:1005C0004281538189819A81880F991F880F991FD1
:1005D00081569C4FFC0180819181A281B381259637
:1005E0006FAD25976F9324966FAD24976F932396E5
:1005F0006FAD23976F9322966FAD22976F93652D02
:100600006F93642D6F93632D6F93622D6F93692D9C
:100610006F93682D6F93672D6F93662D6F936D2D7C
:100620006F936C2D6F936B2D6F936A2D6F93612F6A
:100630006F93602F6F936F2D6F936E2D6F93652F58
:100640006F93642F6F93632F6F932F932B2F2F93A1
:100650002A2F2F93292F2F938F938EE891E0892FA4
:100660008F938EE891E08F93CE010596292F2F93DB
:100670008F930E94B8240DB71EB7005E1F4F0FB6B0
:10068000F894DEBF0FBECDBF9C838B832B813C8152
:10069000CE010596B9015ED789819A8101969A8328
:1006A000898389819A81843F11E091070CF436CFC8
:1006B0001092690310926803109263031092620310
:1006C0001092650310926403109267031092660300
:1006D000F6CDF5CDA8E0B0E0E0E7F3E00C9486219C
:1006E00080915E0390915F03A0916003B0916103DC
:1006F0000696A11DB11D89839A83AB83BC8380912B
:100700005E0390915F03A0916003B091610306972F
:10071000A109B1098D839E83AF83B887209193038C
:1007200030919403409195035091960389819A8169
:10073000AB81BC8182179307A407B507D4F0209141
:1007400093033091940340919503509196038D81CA
:100750009E81AF81B885281739074A075B074CF09F
:10076000809170039091710301969093710380932F
:1007700070032896E2E00C94A221A0E0B0E0E3EC44
:10078000F3E00C94862180916E0390916F03813089
:100790009105A9F580917203909173030097D1F4AC
:1007A00081E090E0909373038093720380919303B0
:1007B00090919403A0919503B09196038E5C9D4F08
:1007C000AF4FBF4F80935E0390935F03A09360038E
:1007D000B09361038091700390917103823391050E
:1007E00074F082E090E090936F0380936E03109218
:1007F0007303109272031092710310927003809130
:100800006E0390916F0382309105A9F58091720378
:10081000909173030097D1F481E090E0909373037B
:10082000809372038091930390919403A091950318
:10083000B0919603895C9840A109B10980935E0349
:1008400090935F03A0936003B09361038091700362
:10085000909171038233910574F083E090E090935E
:100860006F0380936E0310927303109272031092C1
:1008700071031092700380916E0390916F03833027
:10088000910591F580917203909173030097C9F4DB
:1008900081E090E0909373038093720380919303BF
:1008A00090919403A0919503B09196034F96A11D4A
:1008B000B11D80935E0390935F03A0936003B09398
:1008C000610380917003909171038233910564F00C
:1008D00010926F0310926E031092730310927203C2
:1008E00010927103109270034BD3E2E00C94A2219A
:1008F000A2E0B0E0EEE7F4E00C9486219A838983CD
:1009000089819A81992354F488E290E028E230E0CA
:10091000F90120812068FC01208309C088E290E071
:1009200028E230E0F90120812F77FC0120838981C2
:100930009A818130FFEF9F072CF481E09FEF9A832B
:1009400089830AC089819A818F3F910529F024F01B
:100950008FEF90E09A83898323EB30E089819A813D
:1009600099231CF4919581959109F90180838981DE
:100970009A8190935D0380935C032296E2E00C944D
:10098000A2211F920F9200905F000F9211240090FD
:100990005B000F92EF92FF920F931F932F933F9361
:1009A0004F935F936F937F938F939F93AF93BF9377
:1009B000EF93FF93CF93DF93CDB7DEB780915403CE
:1009C0009091550301969093550380935403209181
:1009D0009303309194034091950350919603809135
:1009E000500390915103A0915203B09153037901A8
:1009F0008A01E81AF90A0A0B1B0BD801C701809378
:100A00006F0B9093700BA093710BB093720B80914E
:100A10006C0390916D038130910511F4B1D211C036
:100A200080916A0390916B038130910511F467D135
:100A300008C080916E0390916F03181619060CF48C
:100A40009CDE80918D3290918E32A0918F32B09148
:100A500090328093560390935703A0935803B0931A
:100A6000590380915C0390915D0342DF809166039E
:100A7000909167038130910509F016C1809162035E
:100A8000909163038130910541F0809164039091CE
:100A900065038130910509F007C180916803909149
:100AA0006903843F01E090070CF0FEC0809162036F
:100AB000909163038130910579F52091680330911D
:100AC000690380915A0390915B03AA2797FDA09533
:100AD000BA2F220F331F220F331F21563C4FF9012B
:100AE00080839183A283B38320916803309169034B
:100AF00080916F0B9091700BA091710BB091720B64
:100B0000220F331F220F331F2D5E344EF9018083D5
:100B10009183A283B3832EC020916803309169032F
:100B200080915E0390915F03A0916003B091610397
:100B3000220F331F220F331F21563C4FF9018083B0
:100B40009183A283B38320916803309169038091DC
:100B5000930390919403A0919503B0919603220F73
:100B6000331F220F331F2D5E344EF9018083918392
:100B7000A283B383209168033091690380915C0361
:100B800090915D03AA2797FDA095BA2F220F331FDE
:100B9000220F331F2D513D4DF90180839183A28394
:100BA000B383209168033091690380918D329091D5
:100BB0008E32A0918F32B0919032220F331F220FCC
:100BC000331F2F563D4CF90180839183A283B38359
:100BD00000916803109169038091040190910501CF
:100BE000A0910601B09107012091893230918A329B
:100BF00040918B3250918C32BC01CD010E94621C1D
:100C0000DC01CB019801220F331F220F331F29541F
:100C1000354DF90180839183A283B38300916803EA
:100C2000109169038091080190910901A0910A0136
:100C3000B0910B0120919703309198034091990353
:100C400050919A03BC01CD010E94621CDC01CB01D2
:100C50009801220F331F220F331F2D58344FF901F3
:100C600080839183A283B3832091680330916903C9
:100C700080919D0390919E03AA2797FDA095BA2F7E
:100C8000220F331F220F331F2D5B3C4EF90180834F
:100C90009183A283B3838091680390916903019645
:100CA00090936903809368038091930390919403D8
:100CB000A0919503B09196038093500390935103B4
:100CC000A0935203B0935303DF91CF91FF91EF9123
:100CD000BF91AF919F918F917F916F915F914F9154
:100CE0003F912F911F910F91FF90EF900F900092E5
:100CF0005B000F9000925F000F901F901895A0E08E
:100D0000B0E0E5E8F6E00C94802180915A039091E0
:100D10005B039C01442737FD4095542F80916F0B56
:100D20009091700BA091710BB091720B79018A01B7
:100D3000E81AF90A0A0B1B0BD801C70180938D3200
:100D400090938E32A0938F32B093903280918D32F7
:100D500090918E32A0918F32B0919032BC01CD0132
:100D60000E94AE1BDC01CB0120910C0130910D01E2
:100D700040910E0150910F01BC01CD010E94621CF7
:100D8000DC01CB012091893230918A3240918B3243
:100D900050918C32BC01CD010E94AB1ADC01CB0119
:100DA0008093893290938A32A0938B32B0938C32A5
:100DB0008091893290918A32A0918B32B0918C329D
:100DC00020E030E04AE754E4BC01CD010E945E1C03
:100DD00018166CF480E090E0AAE7B4E480938932BE
:100DE00090938A32A0938B32B0938C321EC0809144
:100DF000893290918A32A0918B32B0918C3220E06E
:100E000030E04AE754ECBC01CD010E940F1B88235F
:100E100064F480E090E0AAE7B4EC80938932909388
:100E20008A32A0938B32B0938C3220918D323091E4
:100E30008E3240918F325091903280915603909132
:100E40005703A0915803B091590379018A01E81A18
:100E5000F90A0A0B1B0BD801C701BC01CD010E9486
:100E6000AE1BDC01CB0120910C0130910D014091B2
:100E70000E0150910F01BC01CD010E94131BDC013A
:100E8000CB018093970390939803A0939903B09319
:100E90009A0380918D3290918E32A0918F32B091D1
:100EA0009032BC01CD010E94AE1BDC01CB01209130
:100EB0000001309101014091020150910301BC01F8
:100EC000CD010E94621CDC01CB016C017D0180918F
:100ED000040190910501A0910601B09107012091B4
:100EE000893230918A3240918B3250918C32BC01E0
:100EF000CD010E94621CDC01CB019C01AD01C70148
:100F0000B6010E94AB1ADC01CB016C017D0180911E
:100F1000080190910901A0910A01B0910B01209163
:100F20009703309198034091990350919A03BC0123
:100F3000CD010E94621CDC01CB019C01AD01C70107
:100F4000B6010E94AB1ADC01CB01BC01CD010E94AD
:100F50007B1BDC01CB0190939E0380939D0320912A
:100F60005C0330915D0380919D0390919E03820FFD
:100F7000931F90935D0380935C03E8E00C949C21A5
:100F8000A0E0B0E0E6ECF7E00C94802120915E0355
:100F900030915F034091600350916103809193030E
:100FA00090919403A0919503B091960379018A01E1
:100FB000E81AF90A0A0B1B0BD801C70180938D327E
:100FC00090938E32A0938F32B093903280918D3275
:100FD00090918E32A0918F32B0919032BC01CD01B0
:100FE0000E94AE1BDC01CB0120910C0130910D0160
:100FF00040910E0150910F01BC01CD010E94621C75
:10100000DC01CB012091893230918A3240918B32C0
:1010100050918C32BC01CD010E94AB1ADC01CB0196
:101020008093893290938A32A0938B32B0938C3222
:101030008091893290918A32A0918B32B0918C321A
:1010400020E030E04AE754E4BC01CD010E945E1C80
:1010500018166CF480E090E0AAE7B4E4809389323B
:1010600090938A32A0938B32B0938C321EC08091C1
:10107000893290918A32A0918B32B0918C3220E0EB
:1010800030E04AE754ECBC01CD010E940F1B8823DD
:1010900064F480E090E0AAE7B4EC80938932909306
:1010A0008A32A0938B32B0938C3220918D32309162
:1010B0008E3240918F3250919032809156039091B0
:1010C0005703A0915803B091590379018A01E81A96
:1010D000F90A0A0B1B0BD801C701BC01CD010E9404
:1010E000AE1BDC01CB0120910C0130910D01409130
:1010F0000E0150910F01BC01CD010E94131BDC01B8
:10110000CB018093970390939803A0939903B09396
:101110009A0380918D3290918E32A0918F32B0914E
:101120009032BC01CD010E94AE1BDC01CB012091AD
:101130000001309101014091020150910301BC0175
:10114000CD010E94621CDC01CB016C017D0180910C
:10115000040190910501A0910601B0910701209131
:10116000893230918A3240918B3250918C32BC015D
:10117000CD010E94621CDC01CB019C01AD01C701C5
:10118000B6010E94AB1ADC01CB016C017D0180919C
:10119000080190910901A0910A01B0910B012091E1
:1011A0009703309198034091990350919A03BC01A1
:1011B000CD010E94621CDC01CB019C01AD01C70185
:1011C000B6010E94AB1ADC01CB01BC01CD010E942B
:1011D0007B1BDC01CB0190939E0380939D03809148
:1011E0009D0390919E0390935D0380935C0372DA5C
:1011F000E8E00C949C21A0E0B0E0E1E0F9E00C9480
:1012000086218AE290E02AE230E0F901208120681C
:10121000FC01208387E290E027E230E0F9012081A1
:101220002068FC01208380EB90E023E8FC01208310
:1012300081EB90E022E0FC01208383EB90E0FC0155
:101240001082E2E00C94A2211F920F9200905F00A6
:101250000F92112400905B000F922F933F938F9376
:101260009F93AF93BF93EF93FF93CF93DF9300D000
:1012700000D0CDB7DEB789E290E0FC018081882FF5
:1012800090E08470992721E0181619060CF020E0F0
:10129000822F90E09A83898389E290E0FC0180812B
:1012A000882F90E08870992721E0181619060CF015
:1012B00020E0822F90E09C838B838091B52A9091CF
:1012C000B62A9C0189819A8128173907A1F4809157
:1012D000930390919403A0919503B0919603019686
:1012E000A11DB11D8093930390939403A093950344
:1012F000B09396031DC080918732909188329C01F3
:101300008B819C812817390799F4809193039091E0
:101310009403A0919503B09196030197A109B10997
:101320008093930390939403A0939503B0939603B3
:1013300089819A8190938832809387328B819C81B6
:101340009093B62A8093B52A0F900F900F900F902C
:10135000DF91CF91FF91EF91BF91AF919F918F91CD
:101360003F912F910F9000925B000F9000925F00D1
:101370000F901F901895A0E0B0E0E1ECF9E00C941C
:10138000862183E790E02FE0FC01208388E690E04F
:101390002FEFFC0120838BE390E02FEFFC012083F3
:1013A00089E290E0FC018081882F90E08470992789
:1013B00021E0181619060CF020E0822F90E090939F
:1013C00088328093873289E290E0FC018081882F07
:1013D00090E08870992721E0181619060CF020E09B
:1013E000822F90E09093B62A8093B52A7894E2E019
:1013F0000C94A221A0E0B0E0E0E0FAE00C94862199
:1014000080E890E020E8FC01208381E890E02AE079
:10141000FC01208388E890E028EA31E6FC01318372
:1014200020838FE690E022E0FC012083E2E00C9430
:10143000A221A0E0B0E0EFE1FAE00C948621109246
:10144000893210928A3210928B3210928C32109222
:101450008D3210928E3210928F3210929032109202
:101460009703109298031092990310929A03109286
:101470005603109257031092580310925903E2E05A
:101480000C94A221A0E0B0E0E8E4FAE00C948621FC
:1014900080E090E0A0E8BEE380930001909301011A
:1014A000A0930201B093030188E490E5ACEFBBE3A5
:1014B0008093040190930501A0930601B093070166
:1014C00086E696E6A6E4B0E48093080190930901CD
:1014D000A0930A01B0930B01E2E00C94A221A0E0DA
:1014E000B0E0E5E7FAE00C9486218DEC9CECACECE6
:1014F000BEE38093000190930101A0930201B09399
:1015000003018DEC9CECACE4BDE38093040190936B
:101510000501A0930601B093070180E090E0A0E0F0
:10152000B0E48093080190930901A0930A01B0935D
:101530000B01E2E00C94A221A0E0B0E0E2EAFAE0C4
:101540000C948621809111018F5F80931101E2E05C
:101550000C94A221A4E0B0E0E0EBFAE00C94862128
:101560009A8389837C836B832B8189819A81422F23
:10157000BC0182E00E94FA15BFD42496E2E00C94EC
:10158000A221A2E2B0E0E7ECFAE00C94862140E868
:1015900055E260E070E082E00E94181540E263E6E8
:1015A0007AE382E00E940214CE01039629E1E4EB83
:1015B000F1E0DC0101900D922A95E1F788E190E0DD
:1015C0009A83898329813A81CE010396B901C2DFCA
:1015D00068E170E08DEC91E0BDDFA296E2E00C9452
:1015E000A221AFE3B0E0E7EFFAE00C947C219FAFDB
:1015F0008EAFCE01CA96292F2F938F93CE01C99615
:10160000292F2F938F9386EE91E0892F8F9386EE6B
:1016100091E08F938FAD8F938EAD8F930E94E724CF
:101620002DB73EB7285F3F4F0FB6F894DEBF0FBE11
:10163000CDBF9A8389838AAD9BADACADBDAD29ADDD
:10164000332727FD30954B2F4F934A2F4F93492F28
:101650004F938F93832F8F93822F8F938CEE91E0F4
:10166000892F8F938CEE91E08F93CE010996292FCD
:101670002F938F930E94B824EDB7FEB73A960FB61A
:10168000F894DEBF0FBECDBF9C838B832B813C8142
:10169000CE010996B9015EDF89AD992787FD909546
:1016A000AA2797FDA095BA2F44E450E022E330E04A
:1016B000841B950B2817390708F4ADC38A5B9F4F2D
:1016C000FC010C946621CE0109962EE0EBEFF1E0CF
:1016D000DC0101900D922A95E1F78DE090E09C836A
:1016E0008B832B813C81CE010996B90133DF80E3E6
:1016F000E0E2F3E0DE01199601900D928A95E1F7A0
:101700008FE290E09C838B832B813C81CE010996F4
:10171000B90120DF109263031092620310926503F7
:101720001092640381E090E09093670380936603D6
:1017300079C38091930390919403A0919503B09104
:1017400096032B2F2F932A2F2F93292F2F938F938D
:1017500089E092E0892F8F9389E092E08F93CE0108
:101760000996292F2F938F930E94B8242DB73EB747
:10177000285F3F4F0FB6F894DEBF0FBECDBF9C83EE
:101780008B832B813C81CE010996B901E3DE8091E8
:101790005C0390915D03292F2F938F938FE192E04B
:1017A000892F8F938FE192E08F93CE010996292F95
:1017B0002F938F930E94B8240F900F900F900F904B
:1017C0000F900F909C838B832B813C81CE010996D7
:1017D000B901C0DE80918D3290918E32A0918F320E
:1017E000B09190322B2F2F932A2F2F93292F2F93A5
:1017F0008F9389E392E0892F8F9389E392E08F930F
:10180000CE010996292F2F938F930E94B824EDB70C
:10181000FEB738960FB6F894DEBF0FBECDBF9C83DF
:101820008B832B813C81CE010996B90193DE809197
:101830009D0390919E03292F2F938F9386E492E02E
:10184000892F8F9386E492E08F93CE010996292FFA
:101850002F938F930E94B8240F900F900F900F90AA
:101860000F900F909C838B832B813C81CE01099636
:10187000B90170DEE0900801F090090100910A01C1
:1018800010910B0120910401309105014091060156
:10189000509107018091000190910101A0910201F6
:1018A000B0910301612F6F93602F6F936F2D6F9332
:1018B0006E2D6F93652F6F93642F6F93632F6F93CC
:1018C0002F932B2F2F932A2F2F93292F2F938F93E3
:1018D00081E592E0892F8F9381E592E08F93CE018D
:1018E0000996292F2F938F930E94B8242DB73EB7C6
:1018F000205F3F4F0FB6F894DEBF0FBECDBF9C8375
:101900008B832B813C81CE010996B90123DEE090C7
:101910009703F09098030091990310919A032091F6
:10192000893230918A3240918B3250918C32809141
:101930008D3290918E32A0918F32B0919032612F82
:101940006F93602F6F936F2D6F936E2D6F93652F35
:101950006F93642F6F93632F6F932F932B2F2F937E
:101960002A2F2F93292F2F938F9380E792E0892F8F
:101970008F9380E792E08F93CE010996292F2F93C2
:101980008F930E94B824EDB7FEB770960FB6F89407
:10199000DEBF0FBECDBF9C838B832B813C81CE01EC
:1019A0000996B901D7DD80916F0B9091700BA091D2
:1019B000710BB091720B20915A0330915B034B2F46
:1019C0004F934A2F4F93492F4F938F93832F8F938A
:1019D000822F8F938BE892E0892F8F938BE892E090
:1019E0008F93CE010996292F2F938F930E94B824AD
:1019F0002DB73EB7265F3F4F0FB6F894DEBF0FBE40
:101A0000CDBF9C838B832B813C81CE010996B9018C
:101A1000A1DD80918D3290918E32A0918F32B09164
:101A20009032BC01CD010E94AE1BDC01CB012091A4
:101A30000001309101014091020150910301BC016C
:101A4000CD010E94621CDC01CB016C017D01809103
:101A5000040190910501A0910601B0910701209128
:101A6000893230918A3240918B3250918C32BC0154
:101A7000CD010E94621CDC01CB019C01AD01C701BC
:101A8000B6010E94AB1ADC01CB016C017D01809193
:101A9000080190910901A0910A01B0910B012091D8
:101AA0009703309198034091990350919A03BC0198
:101AB000CD010E94621CDC01CB019C01AD01C7017C
:101AC000B6010E94AB1ADC01CB018D839E83AF83EC
:101AD000B8878091080190910901A0910A01B09105
:101AE0000B012091970330919803409199035091F5
:101AF0009A03BC01CD010E94621CDC01CB014C01A8
:101B00005D018091040190910501A0910601B091C1
:101B100007012091893230918A3240918B32509165
:101B20008C32BC01CD010E94621CDC01CB016C0136
:101B30007D0180918D3290918E32A0918F32B09143
:101B40009032BC01CD010E94AE1BDC01CB01209183
:101B50000001309101014091020150910301BC014B
:101B6000CD010E94621CDC01CB0128852F932F81BF
:101B70002F932E812F932D812F932B2D2F932A2D51
:101B80002F93292D2F93282D2F932F2D2F932E2DEB
:101B90002F932D2D2F932C2D2F932B2F2F932A2FD7
:101BA0002F93292F2F938F9386EA92E0892F8F937B
:101BB00086EA92E08F93CE010996292F2F938F9377
:101BC0000E94B824EDB7FEB774960FB6F894DEBF46
:101BD0000FBECDBF9C838B832B813C81CE010996A8
:101BE000B901B8DC80910C0190910D01A0910E011A
:101BF000B0910F012B2F2F932A2F2F93292F2F9343
:101C00008F9380ED92E0892F8F9380ED92E08F93F8
:101C1000CE010996292F2F938F930E94B8242DB7B8
:101C20003EB7285F3F4F0FB6F894DEBF0FBECDBF63
:101C30009C838B832B813C81CE010996B9018ADC80
:101C4000F1C0F7DB81E090E090936303809362033F
:101C500081E090E090936B0380936A0310926D0390
:101C600010926C0310926F0310926E038AAD9BADBD
:101C7000ACADBDADBC01CD010E947B1BDC01CB0135
:101C800090935B0380935A03CDC08AAD9BADACADFE
:101C9000BDAD8093000190930101A0930201B09328
:101CA0000301C0C08AAD9BADACADBDAD8093080152
:101CB00090930901A0930A01B0930B01B3C08AADC0
:101CC0009BADACADBDAD8093040190930501A09395
:101CD0000601B0930701A6C08AAD9BADACADBDAD0A
:101CE00080930C0190930D01A0930E01B0930F010E
:101CF00099C08091930390919403A0919503B09122
:101D00009603BC01CD010E94AE1BDC01CB012AADC4
:101D10003BAD4CAD5DADBC01CD010E94AB1ADC0109
:101D2000CB01BC01CD010E947B1BDC01CB01809368
:101D30005E0390935F03A0936003B09361032091CF
:101D400093033091940340919503509196038091B1
:101D50005E0390915F03A0916003B0916103652FD2
:101D60006F93642F6F93632F6F932F932B2F2F936A
:101D70002A2F2F93292F2F938F938DED92E0892F68
:101D80008F938DED92E08F93CE010996292F2F939B
:101D90008F930E94B824EDB7FEB73C960FB6F89427
:101DA000DEBF0FBECDBF9C838B832B813C81CE01D8
:101DB0000996B901CFDB3DDB81E090E090936D03A4
:101DC00080936C0310926B0310926A0310926F035E
:101DD00010926E0381E090E090936503809364031A
:101DE00021C027DB10926D0310926C0310926B03DD
:101DF00010926A0381E090E09093650380936403FE
:101E0000109263031092620381E090E090936F035D
:101E100080936E0307C06BE170E084E093E09ADB8F
:101E200001C0000068E170E08DEC91E093DBEF967B
:101E3000ECE00C949821A0E2B0E0E1E2FFE00C9429
:101E4000862128C080917403909175032091833A74
:101E5000222F30E02D59354CF90140819E012F5F32
:101E60003F4F820F931FFC01408380917403909138
:101E70007503019690937503809374038091833A60
:101E80008F3119F41092833A05C08091833A8F5FA5
:101E90008093833A82E0B2D2982F8091833A981748
:101EA00089F68091740390917503009709F18091F0
:101EB0007403909175038130910541F489818A30D2
:101EC00029F4109275031092740312C08091740368
:101ED000909175039E012F5F3F4F820F931FFC016E
:101EE0001082CE0101967DDB10927503109274036F
:101EF000A096E2E00C94A221A0E0B0E0E2E8FFE0CE
:101F00000C94862101C042D682E088D28823D9F37E
:101F1000E2E00C94A22180E090E0089581E090E05E
:101F20006F9364E06A95F1F76F910197C9F708958F
:101F30000F931F93CF93DF9317B13D982898299A59
:101F4000C0E0D0E0EBDF2A9AE9DF06B12A98E6DFAD
:101F50002A9AE4DF2A98249605FF10C09E0140E0EB
:101F600050E080917A0390917B03A0917C03B09123
:101F70007D03281739074A075B0720F39E0140E0DD
:101F800050E080917A0390917B03A0917C03B09103
:101F90007D03281739074A075B0728F082E390E0A2
:101FA000A0E0B0E004C080E395E7A0E0B0E080935B
:101FB0007A0390937B03A0937C03B0937D0317B9BE
:101FC000DF91CF911F910F91089528B190E08F700C
:101FD0009070880F991F880F991F237C282B28B990
:101FE0002A9A9CDF2A989ACFA2E0B0E0EAEFFFE0BD
:101FF0000C948321182F4A83698358D099DFF7B056
:1020000008B1299869814A81662311F0289A01C094
:10201000289887B18C6387B9413021F0812F829550
:102020008F70D3DF812F8F70D0DFF7B808B9229679
:10203000E5E00C949F2160E042E0D6CF61E042E011
:10204000D3CF60E041E0D0CF3D98459A80E395E75B
:10205000A0E0B0E080937A0390937B03A0937C038D
:10206000B0937D03209A219A229A8EE190E063D664
:1020700083E0E7DF86E090E05ED683E0E2DF82E0A7
:1020800090E059D683E0DDDF82E090E054D682E034
:10209000D8DF82E090E04FD688E2CDDF88E0CBDF6A
:1020A00081E0C9DF86E0C7DF8CE0C5CF80917E0389
:1020B000882321F481E080937E03C6CF089581E0D8
:1020C000BADF8091760390917703009711F1A0E039
:1020D000B0E208C0E0917603F0917703E20FF31FBE
:1020E000B083AF5F2A2F30E08091120190E001971A
:1020F0006091130170E0869FA001879F500D969F0D
:10210000500D1124241735072CF3109279031092E7
:1021100078030895D4CF0895A5E0B0E0E2E9F0E1B6
:102120000C948521182F80E8898380EC8A8384E9C8
:102130008B8384ED8C83FE01E60FF11D8181810F7D
:102140006D8379DF109379036D8160937803259611
:10215000E3E00C94A121E0CF0895A0E0B0E0E3EB30
:10216000F0E10C948021D82E809176039091770332
:10217000009709F4F2C02D2D2A3009F442C028300E
:10218000C9F4809179038150809379038F3F51F492
:10219000809178038150809378038091130181505E
:1021A00080937903809178038F3F09F0D1C010921A
:1021B0007803CCC08D2D42DF809178038823B9F05D
:1021C00090E001974091130150E0849F9001859F1A
:1021D000300D949F300D112480917903E0917603A6
:1021E000F0917703E20FF31FE80FF11DD082809189
:1021F00079038F5F8093790390911301891709F018
:10220000ACC040917803242F30E08091120190E01F
:1022100001972817390709F096C0C0E0D0E03FC009
:1022200080E06C2F79DFCC248E010F5F1F4F32C00E
:10223000EC2CFF2430E0C29FC001C39F900DD29FC1
:10224000900D1124E0917603F0917703EE0DFF1DC0
:10225000E80FF91F8081F2DE809176039091770379
:102260002091130130E0C29FF001C39FF00DD29F77
:10227000F00D11248E0D9F1DE80FF91F029FD00154
:10228000039FB00D129FB00D1124A80FB91F8C91A0
:102290008083C39420911301C21650F2E80160912B
:1022A0001201862F90E00297C817D9070CF4B8CF17
:1022B0006230D0F1625080E02FDF00E010E230C0E9
:1022C000C02FD0E08091120190E0029750E0849FEF
:1022D0009001859F300D949F300D1124E09176037D
:1022E000F0917703EC0FFD1FE20FF31F8081A6DE54
:1022F0008091120190E002974091130150E0849F79
:102300009001859F300D949F300D1124E09176034C
:10231000F0917703EC0FFD1FE20FF31F10830F5FA7
:1023200040911301041760F260911201615080E046
:10233000F3DE10E003C080E281DE1F5F80911301B5
:102340001817C8F303C04F5F4093780310927903C6
:102350008091790360917803DFDE2D2D332727FDEF
:102360003095C901CDB7DEB7E8E00C949C2180918F
:10237000760390917703009711F00E9454222091E8
:10238000120130E0215030408091130190E0AC0107
:10239000249FC001259F900D349F900D11240E9411
:1023A000BC219093770380937603009721F1A0E0FE
:1023B000B0E208C0E0917603F0917703E20FF31FDB
:1023C000B083AF5F2A2F30E08091120190E0019737
:1023D0006091130170E0869FA001879F500D969F2A
:1023E000500D1124241735072CF38DEA90E16BE88A
:1023F0007FE00C94EC230895BACF0895282F30E0A5
:10240000F901EE0FFF1F43E0220F331F4A95E1F75A
:10241000E20FF31FEC5EFE4F82810895282F30E01B
:10242000F901EE0FFF1F73E0220F331F7A95E1F7DA
:10243000E20FF31FEC5EFE4F4181282F30E0F901DF
:10244000EE0FFF1F53E0220F331F5A95E1F7E20F03
:10245000F31FEC5EFE4F81E09381491380E0089505
:10246000282F30E0F901EE0FFF1FB3E0220F331FDA
:10247000BA95E1F7E20FF31FEC5EFE4F4085518500
:102480004115510509F452C0282F30E0F901EE0F33
:10249000FF1F73E0220F331F7A95E1F7E20FF31F5E
:1024A000EC5EFE4F7281282F30E0F901EE0FFF1F26
:1024B000B3E0220F331FBA95E1F7E20FF31FEC5E92
:1024C000FE4F9481791790F5282F30E0F901EE0F37
:1024D000FF1F73E0220F331F7A95E1F7E20FF31F1E
:1024E000EC5EFE4F9281490F511DFA016083282F47
:1024F00030E0F901EE0FFF1F53E0220F331F5A9512
:10250000E1F7E20FF31FEC5EFE4F92819F5F282FF1
:1025100030E0F901EE0FFF1FB3E0220F331FBA9531
:10252000E1F7E20FF31FEC5EFE4F9283282F30E0BD
:10253000F901EE0FFF1F73E0220F331F7A95E1F7C9
:10254000E20FF31FEC5EFE4F4281282F30E0F901CD
:10255000EE0FFF1F53E0220F331F5A95E1F7E20FF2
:10256000F31FEC5EFE4F9481491701F5282F30E0F0
:10257000F901EE0FFF1F93E0220F331F9A95E1F749
:10258000E20FF31FEC5EFE4F9581992379F0282F1F
:1025900030E0F901EE0FFF1FB3E0220F331FBA95B1
:1025A000E1F7E20FF31FEC5EFE4F128208950F93E6
:1025B0001F93182F823009F474C0882319F4E1ECBA
:1025C000F0E002C0E9ECF0E080818F778083812F1A
:1025D00090E0FC01EE0FFF1F03E0880F991F0A95A2
:1025E000E1F7E80FF91FEC5EFE4F808591850097BB
:1025F000A1F1212F30E0F901EE0FFF1FA3E0220F20
:10260000331FAA95E1F7E20FF31FEC5EFE4F9281B4
:10261000212F30E0F901EE0FFF1F63E0220F331F7F
:102620006A95E1F7E20FF31FEC5EFE4F8481981785
:10263000A0F4112319F4E0ECF0E002C0E8ECF0E0C3
:10264000808187FF0AC0112319F4E6ECF0E002C094
:10265000EEECF0E06081812F03DF212F30E0F90103
:10266000EE0FFF1F43E0220F331F4A95E1F7E20F01
:10267000F31FEC5EFE4F8081882309F057C01123C1
:1026800019F4E1ECF0E002C0E9ECF0E08081806850
:1026900080834CC080912D01882319F010922A016B
:1026A00045C08091300190913101009709F43EC0FE
:1026B00090912A0180912C019817C0F580917F0399
:1026C000882399F43DD380937F0310E00AC035D36B
:1026D000E02FF0E03197E11BF109E058FC4F8083D7
:1026E0001F5F00917F03101790F3A0917F03AA232F
:1026F000E9F080912A01E0913001F0913101E80F79
:10270000F11DA150A0937F03B0E0A058BC4F8C9165
:10271000808380912A018F5F80932A0190912A0102
:1027200080912C01981709F0BCCFB4CF1F910F9165
:102730000895823051F0882319F4E1ECF0E002C0F2
:10274000E9ECF0E090819F779083A82FB0E0FD0145
:10275000EE0FFF1F53E0AA0FBB1F5A95E1F7EA0FD8
:10276000FB1FEC5EFE4F71876087682F70E0FB01F6
:10277000EE0FFF1F93E0660F771F9A95E1F7E60FC4
:10278000F71FEC5EFE4F1282682F70E0FB01EE0F28
:10279000FF1FA3E0660F771FAA95E1F7E60FF71F6B
:1027A000EC5EFE4F4483482F50E0FA01EE0FFF1F0E
:1027B00063E0440F551F6A95E1F7E40FF51FEC5EE7
:1027C000FE4F25838230D9F0282F30E0F901EE0F3B
:1027D000FF1F43E0220F331F4A95E1F7E20FF31F7B
:1027E000EC5EFE4F9081992351F4882319F4E1ECBB
:1027F000F0E002C0E9ECF0E0808180688083089519
:1028000021E097CFFDCF08951F920F920FB60F9240
:102810000BB60F9211242F933F934F935F936F93B7
:102820007F938F939F93AF93BF93EF93FF936091A9
:10283000C60080E015DEFF91EF91BF91AF919F91AF
:102840008F917F916F915F914F913F912F910F9059
:102850000BBE0F900FBE0F901F9018951F920F92F6
:102860000FB60F920BB60F9211242F933F934F93F5
:102870005F936F937F938F939F93AF93BF93EF93E8
:10288000FF936091CE0081E0EBDDFF91EF91BF916E
:10289000AF919F918F917F916F915F914F913F91F8
:1028A0002F910F900BBE0F900FBE0F901F90189599
:1028B000882319F4E1ECF0E002C0E9ECF0E080815B
:1028C000806280830895882319F4E1ECF0E002C06F
:1028D000E9ECF0E080818F7D80830895282F30E03F
:1028E000F901EE0FFF1F93E0220F331F9A95E1F7D6
:1028F000E20FF31FEC5EFE4F268137812115310573
:1029000091F1282F30E0F901EE0FFF1FA3E0220F15
:10291000331FAA95E1F7E20FF31FEC5EFE4F4181F2
:10292000282F30E0F901EE0FFF1F63E0220F331F65
:102930006A95E1F7E20FF31FEC5EFE4F93814917B2
:1029400090F4282F30E0F901EE0FFF1F43E0220F33
:10295000331F4A95E1F7E20FF31FEC5EFE4F9081C3
:10296000992309F4A5CFAFCF823029F1282F30E089
:10297000F901EE0FFF1F53E0220F331F5A95E1F7C5
:10298000E20FF31FEC5EFE4F9081992349F48823F8
:1029900019F4E1ECF0E002C0E9ECF0E098E908C0DD
:1029A000882319F4E1ECF0E002C0E9ECF0E098E1F2
:1029B000908394DF78940895882319F0813029F466
:1029C00002C080E0D1CF81E0CFCF0895A0E0B0E099
:1029D000ECEEF4E10C948121D82E7A018B01ECDF2E
:1029E0008D2D823001F1DD2019F4C4ECD0E002C05D
:1029F000CCECD0E0C801B70128EF3FEF4FEF5FEF1D
:102A00000E9435216050734D8E4C9E4FA801970156
:102A1000E4E0220F331F441F551FEA95D1F70E94AF
:102A2000442139832883CDB7DEB7E7E00C949D219C
:102A3000CDCF0895282F30E0F901EE0FFF1F73E08E
:102A4000220F331F7A95E1F7E20FF31FEC5EFE4F82
:102A5000468157814115510509F465C0282F30E0A2
:102A6000F901EE0FFF1F93E0220F331F9A95E1F754
:102A7000E20FF31FEC5EFE4F6181282F30E0F90179
:102A8000EE0FFF1FA3E0220F331FAA95E1F7E20F1D
:102A9000F31FEC5EFE4F9381691708F044C0882352
:102AA00019F4E0ECF0E002C0E8ECF0E0908195FF72
:102AB0003AC0882319F4A6ECB0E002C0AEECB0E056
:102AC000282F30E0F901EE0FFF1F63E0220F331FC4
:102AD0006A95E1F7E20FF31FEC5EFE4F9181490F1B
:102AE000511DFA0190819C93282F30E0F901EE0FDF
:102AF000FF1F93E0220F331F9A95E1F7E20FF31FB8
:102B0000EC5EFE4F91819F5F282F30E0F901EE0FC0
:102B1000FF1FA3E0220F331FAA95E1F7E20FF31F77
:102B2000EC5EFE4F9183DACE1F93182F823021F096
:102B3000CADE812F7FDF1CC080912E0190912F0172
:102B40000097B1F03091290120912B01321780F4C8
:102B500006C0809129018F5F80932901EDCF2091DC
:102B60002901820F911DFC018081EED0882389F715
:102B70001F91089580E0D8DF81E0D6DF82E0D4DFC6
:102B800080E015DD81E013DD82E011CDF3CF089503
:102B9000282F30E0F901EE0FFF1F93E0220F331FC3
:102BA0009A95E1F7E20FF31FEC5EFE4F77836683A1
:102BB000282F30E0F901EE0FFF1FA3E0220F331F93
:102BC000AA95E1F7E20FF31FEC5EFE4F1182282F6A
:102BD00030E0F901EE0FFF1F63E0220F331F6A950B
:102BE000E1F7E20FF31FEC5EFE4F4383823009F002
:102BF00075CE0895CDCF08951F920F920FB60F9204
:102C00000BB60F9211242F933F934F935F936F93C3
:102C10007F938F939F93AF93BF93EF93FF9380E046
:102C200009DFFF91EF91BF91AF919F918F917F91BC
:102C30006F915F914F913F912F910F900BBE0F902D
:102C40000FBE0F901F9018951F920F920FB60F9204
:102C50000BB60F9211242F933F934F935F936F9373
:102C60007F938F939F93AF93BF93EF93FF9381E0F5
:102C7000E1DEFF91EF91BF91AF919F918F917F9195
:102C80006F915F914F913F912F910F900BBE0F90DD
:102C90000FBE0F901F9018956F9364E06A95F1F73F
:102CA0006F910197C9F708952F928F939F932FB635
:102CB0008091890390918A03019680938903909370
:102CC0008A0390E080918B03891F80938B039091FE
:102CD00091039C5F90939103809190038051974260
:102CE000C0F0909391038093900380918C03909116
:102CF0008D03019680938C0390938D0390E08091D7
:102D00008E03891F80938E0380918F03891F809388
:102D10008F032FBE9F918F912F901895CF93DF93A4
:102D2000EC0104C088EE93E0B7DF21972097D1F73C
:102D3000DF91CF910895F2CF08958FEF64E043C003
:102D400083E867E040D0F9CF1F93182F982F909514
:102D5000991F9927991F85E8891B65E034D0812F39
:102D60008F7765E030D01F9108956F9364E06A9586
:102D7000F1F76F910197C9F70895A1E0B0E0E3EC96
:102D8000F6E10C948521182F249908C02C9906C0CF
:102D90002C9A8EE190E06983E8DF698184B1806AD2
:102DA00084B92698812F837080656C7A862B8CBDC0
:102DB00081E012FF80E08DBD81E090E0AFDF2196E1
:102DC000E3E00C94A1210F931F93082F162F0CB44E
:102DD00006FC03C080E064E0D0DF0CB404FC03C058
:102DE0008CB580618CBD0EBD03C00CB404FE0AC05E
:102DF0000DB407FEFACF112319F0812F90E0B5DF53
:102E00008EB501C080E01F910F9108952F923F92DF
:102E10004F925F926F927F928F929F92AF92BF92EA
:102E2000CF92DF92EF92FF920F931F93CF93DF9396
:102E3000CDB7DEB763970FB6F894DEBF0FBECDBF38
:102E40007C011B016A01FC0117821682838181FFCC
:102E500066C3BE016F5F7F4F4B01F7019381F101A4
:102E600093FD859193FF81911F01882309F453C33A
:102E7000853239F493FD859193FF81911F0185324D
:102E800039F4B70190E00E94742456016501E5CF42
:102E900010E0512C20E02032A0F48B3269F030F4A5
:102EA000803259F0833269F420612CC08D3239F0C0
:102EB000803339F4216026C02260246023C028605A
:102EC00021C027FD27C030ED380F3A3078F426FFB7
:102ED00006C0FAE01F9F300D1124132F13C06AE0C3
:102EE000569E300D1124532E20620CC08E3221F4D8
:102EF00026FD11C3206406C08C3611F4206802C080
:102F0000883641F4F10193FD859193FF81911F0172
:102F10008111C1CF9BEB980F933018F42061805E34
:102F200006C09BE9980F933008F0AAC12F7E26FFB8
:102F300016E02F73722E853621F4F22FF0647F2E67
:102F400008C0863621F4622F6068762E02C0111107
:102F5000115077FE07C01C3348F444244394410EBB
:102F600027E00BC0183030F4212F06C027E04CE3D7
:102F7000442E03C027E017E0412C560174E0A70E51
:102F8000B11CF6016081718182819381042DA401BD
:102F90000E94E3226C01098100FF02C003FF06C00A
:102FA00071FC07C072FC08C0612C08C03DE2632EB2
:102FB00005C02BE2622E02C090E2692E802F8C7039
:102FC00099F1662011F084E001C083E0851510F0CE
:102FD000512C0BC0581A73FC08C0B70180E290E076
:102FE0000E9474245A94C9F7F3CF662029F0B701E0
:102FF000862D90E00E94742403FD03C006EF10E0CC
:1030000002C002EF10E0F72DF0717F2EF8018491DD
:10301000882309F476C271108052B70190E00E94B3
:1030200074240F5F1F4FF2CF77FE0FC04C0C04FFCC
:1030300004C08A81813309F44A94141474F5F8E0C9
:10304000F41578F588E0482E2CC076FC2AC0812F34
:1030500090E08C159D059CF06CEFC6166FEFD606C0
:1030600074F0772D7068772E0AC0E2E0F0E0EC0F84
:10307000FD1FE10FF11D8081803319F411501111F2
:10308000F4CF77FE0EC044244394410E812F90E08C
:10309000C816D9062CF41C1904C04424439401C05A
:1030A00010E077FE07C01C141D043CF496012F5F4E
:1030B0003F4F05C025E030E002C021E030E066204F
:1030C00011F02F5F3F4F112331F0412F50E04F5F40
:1030D0005F4F240F351F452D50E02417350714F49A
:1030E000521A01C0512C872D897049F4552039F0AE
:1030F000B70180E290E00E9474245A94F7CF6620D2
:1031000029F0B701862D90E00E94742473FC09C059
:10311000552039F0B70180E390E00E9474245A945E
:10312000F7CF77FE5FC09C2D8D2DD7FE02C090E0BB
:1031300080E0692E782E40E050E0C60184199109A4
:103140009D878C87960126193709280D391D812FF7
:1031500090E0EE27FF27E81BF90BFF87EE87FFEFD4
:103160006F167F0669F4B7018EE290E02B8B3A8BE5
:10317000488B598B0E947424598948893A892B8934
:10318000C614D70454F06C857D85661577052CF43C
:10319000F901E40FF51F818101C080E371E0671A36
:1031A00071084F5F5F4FEE85FF856E167F066CF0EE
:1031B000B70190E02B8B3A8B488B598B0E9474247B
:1031C0002B893A8948895989CACF6C147D0439F40E
:1031D0009A81963318F4953311F404FF81E3B70113
:1031E00090E04BC08A81813309F00F7EB70190E0F7
:1031F0000E947424111105C074FE18C085E490E08B
:1032000017C0B7018EE290E00E94742482E0662429
:103210006394680EF401E80FF11D8081B70190E01E
:103220000E947424115041F3862DF1CF85E690E081
:10323000B7010E947424D7FC05C0C114D10439F42D
:1032400004FF05C0D194C194D1088DE201C08BE286
:10325000B70190E00E94742480E36AE0C616D104AE
:103260002CF08F5FFAE0CF1AD108F7CFB70190E0CA
:103270000E947424B701C601C0960E94742441C103
:10328000833631F0833779F0833509F058C021C097
:10329000560172E0A70EB11CF6018081898301E01E
:1032A00010E0640114C05601F2E0AF0EB11CF6014B
:1032B000C080D18026FF03C0612F70E002C06FEF95
:1032C0007FEFC6012B8B0E94E1238C012B892F7786
:1032D00015C05601F2E0AF0EB11CF601C080D180DE
:1032E00026FF03C0612F70E002C06FEF7FEFC601C1
:1032F0002B8B0E94D6238C012B892068722E23FDF4
:103300001AC0852D90E008171907A8F4B70180E2CC
:1033100090E00E9474245A94F4CFF60177FC8591D2
:1033200077FE81916F01B70190E00E9474245110E3
:103330005A94015011090115110579F7E2C084363C
:1033400011F0893651F5560127FF09C0F4E0AF0EA0
:10335000B11CF60160817181828193810AC0F2E023
:10336000AF0EB11CF60160817181882777FD8095D1
:10337000982F022F0F7697FF08C090958095709533
:1033800061957F4F8F4F9F4F00682AE030E0A40186
:103390000E942125C82EC8183EC0022F853721F46F
:1033A0000F7E2AE030E01DC0097F8F3691F018F4BF
:1033B000883559F0B0C0803719F0883711F0ABC0AC
:1033C000006104FF09C0046007C024FF08C0066054
:1033D00006C028E030E005C020E130E002C020E176
:1033E00032E0560107FF09C0F4E0AF0EB11CF60150
:1033F000608171818281938108C0F2E0AF0EB11CBF
:10340000F6016081718180E090E0A4010E94212595
:10341000C82EC8180F7706FF0BC0202F2E7FC116AD
:1034200050F404FF0AC002FD08C0202F2E7E05C004
:10343000DC2C202F03C0DC2C01C0D12E24FF0DC0BA
:10344000FE01EC0DF11D8081803311F4297E09C04D
:1034500022FF06C0D394D39404C0822F867809F04B
:10346000D39423FD13C020FF06C01C2DD51418F4DF
:10347000150D1D19D52CD51468F4B70180E290E024
:103480002B8B0E947424D3942B89F5CFD51410F480
:103490005D1801C0512C24FF12C0B70180E390E0F9
:1034A0002B8B0E9474242B8922FF17C021FF03C09D
:1034B00088E590E002C088E790E0B7010CC0822F59
:1034C000867859F021FD02C080E201C08BE227FD21
:1034D0008DE2B70190E00E947424C11638F4B70160
:1034E00080E390E00E9474241150F7CFCA94F40155
:1034F000EC0DF11D8081B70190E00E947424C11091
:10350000F5CF552009F4C2CCB70180E290E00E94CB
:1035100074245A94F6CFF7018681978102C08FEF09
:103520009FEF63960FB6F894DEBF0FBECDBFDF915D
:10353000CF911F910F91FF90EF90DF90CF90BF90B0
:10354000AF909F908F907F906F905F904F903F9043
:103550002F9008955058BB27AA270ED075C166D169
:1035600030F06BD120F031F49F3F11F41EF45BC1B9
:103570000EF4E095E7FB51C1E92F77D180F3BA173C
:10358000620773078407950718F071F49EF58FC1E1
:103590000EF4E0950B2EBA2FA02D0B01B90190016E
:1035A0000C01CA01A0011124FF27591B99F0593FB2
:1035B00050F4503E68F11A16F040A22F232F342FFA
:1035C0004427585FF3CF469537952795A795F04048
:1035D0005395C9F77EF41F16BA0B620B730B840B5D
:1035E000BAF09150A1F0FF0FBB1F661F771F881F15
:1035F000C2F70EC0BA0F621F731F841F48F487956D
:1036000077956795B795F7959E3F08F0B3CF93955B
:10361000880F08F09927EE0F979587950895D9D0D0
:1036200008F481E008950CD00FC107D140F0FED01E
:1036300030F021F45F3F19F0F0C0511139C1F3C0EF
:1036400014D198F39923C9F35523B1F3951B550B66
:10365000BB27AA2762177307840738F09F5F5F4F65
:10366000220F331F441FAA1FA9F333D00E2E3AF0A6
:10367000E0E830D091505040E695001CCAF729D0C0
:10368000FE2F27D0660F771F881FBB1F261737070F
:103690004807AB07B0E809F0BB0B802DBF01FF273F
:1036A00093585F4F2AF09E3F510568F0B6C000C1A5
:1036B0005F3FECF3983EDCF3869577956795B79579
:1036C000F7959F5FC9F7880F911D9695879597F994
:1036D0000895E1E0660F771F881FBB1F621773070D
:1036E0008407BA0720F0621B730B840BBA0BEE1F22
:1036F00088F7E095089504D06894B111D9C0089571
:10370000BCD088F09F5790F0B92F9927B751A0F0FF
:10371000D1F0660F771F881F991F1AF0BA95C9F765
:1037200012C0B13081F0C3D0B1E00895C0C0672F9E
:10373000782F8827B85F39F0B93FCCF38695779515
:103740006795B395D9F73EF49095809570956195FE
:103750007F4F8F4F9F4F0895E89409C097FB3EF429
:1037600090958095709561957F4F8F4F9F4F9923CE
:10377000A9F0F92F96E9BB279395F695879577954C
:103780006795B795F111F8CFFAF4BB0F11F460FF0C
:103790001BC06F5F7F4F8F4F9F4F16C0882311F064
:1037A00096E911C0772321F09EE8872F762F05C078
:1037B000662371F096E8862F70E060E02AF09A9513
:1037C000660F771F881FDAF7880F9695879597F908
:1037D0000895990F0008550FAA0BE0E8FEEF1616A2
:1037E0001706E807F907C0F012161306E407F507F5
:1037F00098F0621B730B840B950B39F40A2661F069
:10380000232B242B252B21F408950A2609F4A1400B
:10381000A6958FEF811D811D089597F99F6780E818
:1038200070E060E008959FEF80EC089500240A9412
:103830001616170618060906089500240A9412168B
:103840001306140605060895092E0394000C11F4BE
:10385000882352F0BB0F40F4BF2B11F460FF04C06B
:103860006F5F7F4F8F4F9F4F089557FD9058440FC4
:10387000551F59F05F3F71F04795880F97FB991FCF
:1038800061F09F3F79F0879508951216130614068C
:10389000551FF2CF4695F1DF08C016161706180619
:1038A000991FF1CF86957105610508940895E894F4
:1038B000BB2766277727CB0197F908958ADF08F49D
:1038C0008FEF08950BD0C0CFB1DF28F0B6DF18F02E
:1038D000952309F0A2CFA7CF1124EACFC6DFA0F32A
:1038E000959FD1F3950F50E0551F629FF001729F95
:1038F000BB27F00DB11D639FAA27F00DB11DAA1FB4
:10390000649F6627B00DA11D661F829F2227B00D00
:10391000A11D621F739FB00DA11D621F839FA00D8B
:10392000611D221F749F3327A00D611D231F849FDB
:10393000600D211D822F762F6A2F11249F57504032
:103940008AF0E1F088234AF0EE0FFF1FBB1F661FCD
:10395000771F881F91505040A9F79E3F510570F086
:103960005CCFA6CF5F3FECF3983EDCF3869577956E
:103970006795B795F795E7959F5FC1F7FE2B880F81
:10398000911D9695879597F9089520FD09C0FC0132
:1039900023FD05C022FF02C07383628351834083ED
:1039A000089544FD10C046FD10C0DB01FC01AA0FC4
:1039B000BB1FEE1FFF1F1094D1F76A0F7B1F8E1FD6
:1039C0009F1F31E003C033E001C034E0660F771F72
:1039D000881F991F3150D1F7620F711D811D911DF4
:1039E00008950F931F93CF93DF938C01C8013ED7A7
:1039F000EC0197FD07C0BFD6892BC1F7B801CE01F6
:103A00000E940825CE01DF91CF911F910F9108955B
:103A10006F927F929F92AF92BF92CF92DF92EF927E
:103A2000FF920F931F93CF93DF931F92CDB7DEB713
:103A30008C013B015A01298319D7AC0155272981F3
:103A40004B32510521F04D32510579F4206831E0B7
:103A5000631A71086114710411F480E078C0C80120
:103A6000298304D7298197FDF8CFE22FED7F9E2E81
:103A7000322F307369F5803359F57301F1E0EF1A95
:103A8000F108E114F10409F44FC0C8012983EED60E
:103A9000298197FD49C0382F3F7D383579F4292D8C
:103AA0002264922E32E0631A71086114710409F4E1
:103AB0003BC0C801DBD697FF0BC036C026FF04C051
:103AC000E92DE2609E2E03C0F92DF2619F2E370191
:103AD000C12CD12C760120ED280F283078F094FEEF
:103AE00003C0B80195D71DC02A3040F096FEF9CF2B
:103AF0002F7D3FEE320F3630A0F72750492DC701FA
:103B0000B6014FDF6B017C01292D2260922E31E03E
:103B1000631A71086114710451F0C801A7D697FFA8
:103B2000DACF91FC04C099CFC12CD12C760197FE3D
:103B300008C0F094E094D094C094C11CD11CE11C46
:103B4000F11C292DB701A601C5011FDF81E00F90EF
:103B5000DF91CF911F910F91FF90EF90DF90CF9069
:103B6000BF90AF909F907F906F9008954F925F921B
:103B70006F927F928F929F92AF92BF92CF92DF927D
:103B8000EF92FF920F931F93CF93DF93CDB7DEB7E2
:103B9000A0970FB6F894DEBF0FBECDBF5C014B01FE
:103BA0007A018E010F5F1F4F680180E2F8011192C8
:103BB0008A95E9F7F501638080E090E0712C412C53
:103BC000B0E041E050E0F90163FC559063FE519094
:103BD0008F01A52D9F01511003C080E090E07DC0B2
:103BE000FEE55F1202C0009761F16B2F70E068176D
:103BF00079074CF46DE5561661F1EDE25E1203C0F3
:103C0000442009F103C0411001C0752C6A2F66954C
:103C100066956695F601E60FF11D6A2F67708A01B9
:103C200002C0000F111F6A95E2F7B8017081762B70
:103C30007083A71559F0A71510F4AF5FE7CFA15017
:103C4000E5CFB1E004C04424439401C0412C019667
:103C5000BACF442019F08E8180628E83B11103C0E7
:103C60007724739419C0F601CE01819620812095A6
:103C70002193E817F907D1F7F3CFE114F10429F004
:103C8000F7018083C70101967C0191E0891A9108B0
:103C900081149104E1F0712CC501E8D597FD15C0A0
:103CA000282F269526952695F601E20FF11D2081F5
:103CB00030E0AC014770552702C0359527954A95ED
:103CC000E2F720FDDACFB501A3D6711086CFE1145B
:103CD000F10411F0F7011082C801A0960FB6F89414
:103CE000DEBF0FBECDBFDF91CF911F910F91FF902F
:103CF000EF90DF90CF90BF90AF909F908F907F908C
:103D00006F905F904F9008952F923F924F925F92E5
:103D10006F927F929F92AF92BF92CF92DF92EF927B
:103D2000FF920F931F93CF93DF9300D000D000D06A
:103D3000CDB7DEB76C018B011A0198D59E838D83B8
:103D400099278B32910529F08D9791F480E8982E70
:103D500001C0912C015011090115110511F480E0E9
:103D600028C1C60183D59E838D8397FF02C0F7CFFC
:103D7000912C8D819E8107D58936910541F08E3633
:103D80009105C1F5BCE06B2EB1E07B2E04C0AFE025
:103D90006A2EA1E07A2E8FEF681A780AF301319724
:103DA000B490BB20D9F0015011090115110559F04B
:103DB000C6015CD57C0197FD06C0E5D4B81659F361
:103DC000B601C70125D622E1621621E0720609F08C
:103DD000C6CF80E090E0A0E8BFE709C09FE0691689
:103DE00091E07906B1F780E090E0A0ECBFE7BC017C
:103DF000CD01CFC0412C512C3201E12CF12C2D8171
:103E000020532A3020F5E92DE260BE2E892D8870DE
:103E100092FE06C0811122C0FFEFEF1AFF0A1EC0FA
:103E2000882319F081E0E81AF10840E2C301B201E9
:103E3000B8DD2B013C0198E9491699E95906690654
:103E400099E1790658F0E92DE660BE2E07C02E3FB5
:103E500099F493FC11C0F92DF860BF2E015011099F
:103E60000115110541F0C60101D59E838D839B2C60
:103E700097FD02C0C4CF9B2C91FE71CF8D818F7DA9
:103E8000853409F052C0580121E0A21AB108A114EA
:103E9000B10409F464CFC601E9D49E838D8397FDF4
:103EA0005ECF99278B32910529F08D9779F4892D72
:103EB0008061982E580192E0A91AB108A114B104AA
:103EC00009F44DCFC601D2D49E838D838D819E810E
:103ED000C0970A9708F043CF8501A12CB12CB501FA
:103EE000882777FD8095982F2D81205340E259DD5A
:103EF000AB01BC015A01015011090115110569F00E
:103F0000C60149835A836B837C83B0D49E838D839F
:103F1000C09749815A810A9710F394FE04C0AA24DD
:103F2000BB24A41AB50AEA0CFB1C012B39F0ED8165
:103F3000FE81F7FD03C0B601CF016AD5C301B2010E
:103F40000BDCF7FE08C0F194E194F108FBE2AF2E20
:103F5000F1E0BF2E04C0E3E4AE2EE1E0BE2E650129
:103F6000F8E1CF1AD10800E210E0E016F10648F0BF
:103F7000F5012591359145915491A4DCE01AF10A9F
:103F8000F4CF24E0A21AB10816950795AC14BD042D
:103F900061F797FE05C0DC01CB01B058BC01CD0133
:103FA0002114310429F0F1016083718382839383AA
:103FB00081E026960FB6F894DEBF0FBECDBFDF912D
:103FC000CF911F910F91FF90EF90DF90CF90BF9016
:103FD000AF909F907F906F905F904F903F902F9009
:103FE00008954F925F926F927F928F929F92AF92BD
:103FF000BF92CF92DF92EF92FF920F931F93CF93D6
:10400000DF931F92CDB7DEB78C012B017A01FC0143
:1040100017821682A12CF801D380F201D3FC85917E
:10402000D3FE8191382F2F01882309F407C190E036
:104030003983A1D33981892B19F0C801D2DCEBCFA8
:10404000353241F4F201D3FC3591D3FE31912F0189
:10405000353259F4C801398309D4398197FDECC050
:104060003817C9F2B801D4D4E9C03A3241F4D3FCCC
:104070003591D3FE31912F01BB24B39401C0B12CF3
:10408000812C912C20ED230F2A3080F4FB2DF2603F
:10409000BF2EB40180E090E040E283DC4B01F201EE
:1040A000D3FC3591D3FE31912F01ECCFB1FE04C08A
:1040B0008114910421F4C2C088248A94982C383643
:1040C00019F03C3661F014C0F201D3FC3591D3FEF7
:1040D00031912F01383661F4FB2DF860BF2E8B2D06
:1040E0008460B82EF201D3FC3591D3FE31912F01BB
:1040F000332309F4A3C0632F70E08AEF90E0398383
:104100004AD33981892B09F499C0B0FC07C0F70163
:10411000C080D180C70102967C0102C0C12CD12C85
:104120003E3649F4F8014681578160E070E02B2D5E
:10413000C6012BDC70CF3336C1F4B1FC03C0882438
:104140008394912CC80192D397FD76C0C114D104F9
:1041500029F0F6018083C60101966C0191E0891A6D
:1041600091088114910471F763C03B3551F49201B9
:10417000A601B401C801FADC2C01009709F058C06F
:1041800052C0C80139832DDC398197FD55C03F36B7
:10419000D9F140F43436A1F13936C9F1383509F096
:1041A0003CC02AC03337B9F018F4303729F135C094
:1041B000353731F1383701F130C0C114D10429F05D
:1041C000F6016082C60101966C0191E0891A91089E
:1041D0008114910459F0C80149D33C0197FD06C0F0
:1041E000CAD2892B51F3B801C30112D4C114D1042E
:1041F000F9F0F60110821CC0FB2DF064BF2E07C041
:104200008B2D8062B82E03C09B2D9061B92E2B2D73
:10421000A601B401C801FCDB04C0A601B401C801B9
:1042200073DD811105C0F8018381807329F406C014
:10423000B0FCF1CEA394EFCEAA2019F08A2D90E025
:1042400002C08FEF9FEF0F90DF91CF911F910F91E1
:10425000FF90EF90DF90CF90BF90AF909F908F90A6
:104260007F906F905F904F900895DB018F939F93A5
:1042700033D0BF91AF91A29F800D911DA39F900D50
:10428000B29F900D11240895A1E21A2EAA1BBB1B08
:10429000FD010DC0AA1FBB1FEE1FFF1FA217B30712
:1042A000E407F50720F0A21BB30BE40BF50B661F28
:1042B000771F881F991F1A9469F7609570958095EC
:1042C00090959B01AC01BD01CF010895EE0FFF1F3A
:1042D0000590F491E02D099440D0A59F900DB49FD6
:1042E000900DA49F800D911D112408952F923F924F
:1042F0004F925F926F927F928F929F92AF92BF92F6
:10430000CF92DF92EF92FF920F931F93CF93DF93A1
:10431000CDB7DEB7CA1BDB0B0FB6F894DEBF0FBEFE
:10432000CDBF09942A88398848885F846E847D844B
:104330008C849B84AA84B984C884DF80EE80FD804D
:104340000C811B81AA81B981CE0FD11D0FB6F894C3
:10435000DEBF0FBECDBFED010895A29FB001B39F98
:10436000C001A39F700D811D1124911DB29F700D7E
:10437000811D1124911D0895CF93DF938230910503
:1043800010F482E090E0E091A63AF091A73A20E0A4
:1043900030E0A0E0B0E0309739F14081518148171A
:1043A0005907B8F04817590771F482819381109723
:1043B00029F013969C938E9312972CC09093A73A52
:1043C0008093A63A27C02115310531F042175307D3
:1043D00018F0A901DB0101C0EF019A01BD01DF0165
:1043E0000280F381E02DD7CF21153105F9F0281B8C
:1043F000390B2430310580F48A819B816115710568
:1044000021F0FB019383828304C09093A73A8093A9
:10441000A63AFE01329644C0FE01E20FF31F8193DB
:10442000919322503109398328833AC02091A43ACC
:104430003091A53A232B41F420913C0130913D016C
:104440003093A53A2093A43A20913A0130913B0150
:104450002115310541F42DB73EB740913E015091F1
:104460003F01241B350BE091A43AF091A53AE217E5
:10447000F307A0F42E1B3F0B2817390778F0AC0187
:104480004E5F5F4F2417350748F04E0F5F1F509364
:10449000A53A4093A43A8193919302C0E0E0F0E002
:1044A000CF01DF91CF910895CF93DF93009709F467
:1044B00087C0FC01329713821282C091A63AD09134
:1044C000A73A209781F420813181280F391F8091EC
:1044D000A43A9091A53A8217930779F5F093A53AFB
:1044E000E093A43A6DC0DE0120E030E0AE17BF07D4
:1044F00050F412964D915C9113979D014115510511
:1045000009F1DA01F3CFB383A28340815181840F93
:10451000951F8A179B0771F48D919C911197840FB9
:10452000951F02969183808312968D919C9113978B
:10453000938382832115310529F4F093A73AE09300
:10454000A63A3EC0D9011396FC93EE9312974D9173
:104550005D91A40FB51FEA17FB0779F48081918163
:10456000840F951F0296D90111969C938E93828198
:10457000938113969C938E931297E0E0F0E08A81EA
:104580009B81009719F0FE01EC01F9CFCE01029654
:1045900028813981820F931F2091A43A3091A53A46
:1045A0002817390769F4309729F41092A73A109226
:1045B000A63A02C013821282D093A53AC093A43ABD
:1045C000DF91CF910895283008F027E03327DA01F2
:1045D000990F311D87FD916000966105710539F4D1
:1045E00032602E5F3D9330E32A95E1F708959F3FB7
:1045F00030F080387105610509F03C5F3C5F3D9308
:10460000913008F08068911DDF93CF931F930F9333
:10461000FF92EF92192F987F9695E92F9695969590
:10462000E90FFF27EF55FE4F99273327EE24FF248C
:10463000A701E70105900894079428F4360FE71EB8
:10464000F81E491F511D660F771F881F991F06947A
:10465000A1F70590079428F4E70EF81E491F561F8E
:10466000C11D770F881F991F661F0694A1F705903B
:10467000079428F4F80E491F561FC71FD11D880F35
:10468000991F661F771F0694A1F70590079420F4E1
:10469000490F561FC71FD81F990F661F771F881F06
:1046A0000694A9F784911095177041F0D695C79597
:1046B00057954795F794E7941A95C1F7E7E4F1E029
:1046C00068941590159135916591959105907FE2CB
:1046D0007395E118F10A430B560BC90BD009C0F7CB
:1046E000E10CF11E431F561FC91FD01D7EF470330D
:1046F00011F48A95E6CFE894015030F0080F0AF4DF
:104700000027021708F4202F2395022F7A3328F070
:1047100079E37D932A95E9F710C07D932A9589F670
:10472000069497956795379517951794E118F10AB0
:10473000430B560BC90BD00998F023957E917395C6
:104740007A3308F070E37C932013B8F77E917061A0
:104750007D9330F0839571E37D9370E32A95E1F7C3
:104760001124EF90FF900F911F91CF91DF91992726
:1047700087FD909508959111DCC1803219F0895020
:104780008550D0F708959111089581548A5108F405
:10479000805E855A0895FC010590061621F00020E0
:1047A000D9F7C00108953197CF010895FC01059014
:1047B000615070400110D8F7809590958E0F9F1F23
:1047C0000895FC016150704001900110D8F7809568
:1047D00090958E0F9F1F08950F931F93CF93DF9394
:1047E000EC018B01009731F46115710519F480E03B
:1047F00090E037C06EE070E081E090E080D1FC0195
:104800000097A9F380E883830115110571F01387E0
:10481000028781E883838091A83A9091A93A892BF5
:1048200021F4F093A93AE093A83A2097C9F0D187F0
:10483000C0878381826083838091AA3A9091AB3A4A
:10484000892B71F4F093AB3AE093AA3A8091AC3A99
:104850009091AD3A892B21F4F093AD3AE093AC3AC4
:10486000CF01DF91CF911F910F910895CF93DF93E7
:10487000EC012B8120FF33C026FF0AC02F7B2B8346
:104880008E819F8101969F838E838A8190E029C0CB
:1048900022FF0FC0E881F9818081992787FD9095DB
:1048A000009719F420622B831AC03196F983E883AC
:1048B0000EC0EA85FB85099597FF09C02B810196FB
:1048C00011F480E101C080E2822B8B8308C02E812D
:1048D0003F812F5F3F4F3F832E83992702C08FEF89
:1048E0009FEFDF91CF9108950F931F93CF93DF93A5
:1048F000182F092FEB018B8181FD03C08FEF9FEFF4
:1049000020C082FF10C04E815F812C813D81421703
:1049100053077CF4E881F9819F012F5F3F4F398372
:104920002883108306C0E885F985812F0995892B96
:1049300029F72E813F812F5F3F4F3F832E83812FA9
:10494000902FDF91CF911F910F910895CF93DF9317
:10495000CDB7DEB7FE01359661917191AF018091BF
:10496000AA3A9091AB3A0E940617DF91CF91089531
:104970000F931F93CF93DF93CDB7DEB72E970FB66C
:10498000F894DEBF0FBECDBF0D891E8986E08C83F3
:104990001A8309838FEF9FE79E838D83AE01475E65
:1049A0005F4F6F89788DCE0101960E940617EF81C7
:1049B000F885E00FF11F10822E960FB6F894DEBF37
:1049C0000FBECDBFDF91CF911F910F910895CF936F
:1049D000DF93CDB7DEB72E970FB6F894DEBF0FBECC
:1049E000CDBF85E08C838B899C899A838983AE01B6
:1049F000495E5F4F6D897E89CE010196F2DA2E966F
:104A00000FB6F894DEBF0FBECDBFDF91CF910895F2
:104A1000FB01238120FF12C026FD10C08F3F3FEF16
:104A2000930761F082832F7D206423832681378161
:104A30002150310937832683992708958FEF9FEFFF
:104A40000895FA01AA27283051F1203181F1E89424
:104A50006F936E7F6E5F7F4F8F4F9F4FAF4FB1E071
:104A60003ED0B4E03CD0670F781F891F9A1FA11D6C
:104A7000680F791F8A1F911DA11D6A0F711D811D6D
:104A8000911DA11D20D009F468943F912AE0269F32
:104A900011243019305D3193DEF6CF010895462F91
:104AA0004770405D4193B3E00FD0C9F7F6CF462F72
:104AB0004F70405D4A3318F0495D31FD40524193DB
:104AC00002D0A9F7EACFB4E0A69597958795779598
:104AD0006795BA95C9F700976105710508959B011F
:104AE000AC010A2E06945795479537952795BA95A8
:104AF000C9F7620F731F841F951FA01D08950F93A0
:104B00001F93CF93DF93869F8001879F100D969F01
:104B1000100D1124C80130DCEC01009721F0A80130
:104B200060E070E009D0CE01DF91CF911F910F912D
:104B30000895992788270895DC0101C06D9341509D
:0A4B40005040E0F70895F894FFCF0D
:104B4A000000803E4850FC3B666646400000803FBD
:104B5A000101021000000000000000000000000037
:104B6A00000000000000000001000000000000003A
:104B7A000000FFFFFFFFFFFFFFFF0000AE3A20002B
:104B8A00543A2530326C6400433A2530326C640062
:104B9A00533A2530336C640044533A253033642049
:104BAA00453A25336C64004C6F6767696E6720501D
:104BBA0072696E74696E670D0A004B703A25662C2D
:104BCA004B693A25662C4B643A25660D0A00253650
:104BDA006C642C25366C642C2520336C642C2536A9
:104BEA006C642C252E33662C252E33662C25336CCB
:104BFA00640D0A005553422053657269616C20495D
:104C0A006E697469616C697A65640D0A000D4D6597
:104C1A006E753A207B4C56525350494454487D3C59
:104C2A00696E743E3A002563202566000D0A3070CD
:104C3A003A256320563A25640D0A004C6F672065B1
:104C4A006E61626C65640D0A00456E636F6465721D
:104C5A0020436F756E74733A20256C640D0A004305
:104C6A00757272656E74206D6F746F7220737065E1
:104C7A0065643A2025640D0A004572726F723A2003
:104C8A00256C640D0A00546F72713A2025640D0A6E
:104C9A00004B703A25202E35662C204B693A252088
:104CAA002E35662C204B643A25202E35660D0A00D7
:104CBA00503A2520326C6420493A2520342E326637
:104CCA0020442520342E32660D0A00446573697229
:104CDA00656420563A25642043757272656E743A8B
:104CEA005625640D0A00466F726D756C6120503A44
:104CFA0025202E336620493A25202E346620443A50
:104D0A0025202E326620543A25202E31660D0A00BF
:104D1A00506572696F643A2025660D0A0054617203
:104D2A00676574204C6F633A252030356C642043E4
:104D3A00757272656E74204C6F633A252030356C3B
:104D4A00640D0A00436F6D6D616E6420646F657354
:104D5A00206E6F7420636F6D707574652E0D0A0076
:104D6A0050726F7669646520706F736974696F6ECB
:104D7A0028747878787829206F7220737065656452
:104D8A00287378782920636F6D6D616E640D0A004F
:00000001FF
