:1000000020C100003CC100003AC1000038C100001E
:1000100036C1000034C1000032C100000C94AA08AF
:100020002EC100002CC100002AC100000C948015D4
:1000300026C1000062C4000022C1000020C10000EF
:100040001EC100001CC100001AC1000018C1000040
:100050000C9430130C94281512C1000010C100003C
:100060000EC100000CC100000AC1000008C1000060
:100070000C945A130C94501502C1000000C10000EA
:10008000FEC00000FCC00000FAC000007E0D370E6C
:10009000370E370E370E8B0D370E370E8F0A370E91
:1000A000370E370E710D370E3D0E4D0D980D1D0E8E
:1000B000C50A370E370E370E370E370E370E370E8E
:1000C000370E370E370E370E370E370E7E0D370EC2
:1000D000370E370E370E8B0D370E370E8F0A370E51
:1000E000370E370E710D370E3D0E4D0DA50D370E27
:1000F000C50A6E616E00696E66006364696E6F703A
:10010000737578585B65666745464700616E006E9B
:1001100066696E69747900CDCCCC3D0AD7233C1753
:10012000B7D13877CC2B329595E6241FB14F0A0012
:100130000020410000C84200401C4620BCBE4CCA02
:100140001B0E5AAEC59D7400407A10F35A00A0727F
:100150004E18090010A5D4E80000E8764817000002
:10016000E40B54020000CA9A3B000000E1F50500D0
:100170000080969800000040420F000000A0860119
:10018000000000102700000000E8030000000064E9
:1001900000000000000A0000000000010000000054
:1001A000002C76D888DC674F0823DFC1DFAE59E129
:1001B000B1B796E5E3E453C63AE651997696E8E698
:1001C000C28426EB898C9B62ED407C6FFCEFBC9C6B
:1001D0009F40F2BAA56FA5F490055A2AF75C936B7D
:1001E0006CF9676DC11BFCE0E40D47FEF520E6B538
:1001F00000D0ED902E0300943577050080841E0812
:100200000000204E0A000000C80C333333330F982F
:100210006E12831141EF8D2114893BE65516CFFEF6
:10022000E6DB18D1844B381BF77C1D901DA4BBE482
:1002300024203284725E228100C9F124ECA1E53DC4
:10024000270011241FBECFEFD0E4DEBFCDBF13E0E7
:10025000A0E0B1E0E2EAF9E400E00BBF02C00790E1
:100260000D92A833B107D9F72AE3A8E3B3E001C0A0
:100270001D92AA39B207E1F711D00C94CF24C0CE59
:10028000A0E0B0E0E6E4F1E00C94B220809112012D
:100290008F5F80931201E2E00C94CE20A4E4B0E0E2
:1002A000E4E5F1E00C94A2200E94ED090E94B60F53
:1002B0000E94281126D70E948009E3D760E080E0E1
:1002C0000E94D70F8091460390914703A091480365
:1002D000B09149032B2F2F932A2F2F93292F2F9340
:1002E0008F9382E491E0892F8F9382E491E08F9342
:1002F0000E94D2230F900F900F900F900F900F90AD
:1003000061E080E00E94D70F80917B0390917C0395
:10031000A0917D03B0917E032B2F2F932A2F2F9333
:10032000292F2F938F938AE491E0892F8F938AE46A
:1003300091E08F930E94D2230F900F900F900F9017
:100340000F900F900E94F2140E94470E809150036C
:1003500090915103843F21E092070CF440C1CE01FB
:10036000059620E1E2E5F1E0DC0101900D922A958D
:10037000E1F78FE090E09C838B832B813C81CE0161
:100380000596B9010E94D609E0900A01F0900B0190
:1003900000910C0110910D0120910601309107018F
:1003A000409108015091090180910201909103014F
:1003B000A0910401B0910501612F6F93602F6F939D
:1003C0006F2D6F936E2D6F93652F6F93642F6F93C7
:1003D000632F6F932F932B2F2F932A2F2F93292F38
:1003E0002F938F9382E691E0892F8F9382E691E09D
:1003F0008F93CE010596292F2F938F930E94E4238C
:100400004DB75EB7405F5F4F0FB6F894DEBF0FBECB
:10041000CDBF9C838B832B813C81CE010596B90196
:10042000C5D71A821982C3C089819A81880F991F02
:10043000880F991F835D9C4EFC0120813181428190
:10044000538125962CAF3DAF4EAF5FAF2597898185
:100450009A81880F991F880F991F855A944FFC0124
:10046000208031804280538089819A81880F991F32
:10047000880F991F8D55954DFC0160807180828099
:10048000938089819A81880F991F880F991F8358BB
:100490009D4CFC01A080B180C280D38089819A816B
:1004A000880F991F880F991F81539D4DFC01E08093
:1004B000F1800281138189819A81880F991F880FA9
:1004C000991F8150954EFC012081318142815381D9
:1004D00089819A81880F991F880F991F89579C4F8E
:1004E000FC0180819181A281B38125966FAD259712
:1004F0006F9324966FAD24976F9323966FAD2397D8
:100500006F9322966FAD22976F93652D6F93642D35
:100510006F93632D6F93622D6F93692D6F93682D89
:100520006F93672D6F93662D6F936D2D6F936C2D69
:100530006F936B2D6F936A2D6F93612F6F93602F65
:100540006F936F2D6F936E2D6F93652F6F93642F45
:100550006F93632F6F932F932B2F2F932A2F2F930C
:10056000292F2F938F9386E791E0892F8F9386E72A
:1005700091E08F93CE010596292F2F938F930E94A0
:10058000E4232DB73EB7205E3F4F0FB6F894DEBF91
:100590000FBECDBF9C838B832B813C81CE01059602
:1005A000B90104D789819A8101969A8389838981C7
:1005B0009A81843F31E093070CF436CF10925103B7
:1005C0001092500310924B0310924A0310924D0365
:1005D00010924C0310924F0310924E036FCE6ECECA
:1005E000A8E0B0E0E6EFF2E00C94B2208091460380
:1005F00090914703A0914803B09149030696A11D2D
:10060000B11D89839A83AB83BC838091460390910B
:100610004703A0914803B09149030697A109B10986
:100620008D839E83AF83B88720917B0330917C03B9
:1006300040917D0350917E0389819A81AB81BC8179
:1006400082179307A407B507D4F020917B0330915C
:100650007C0340917D0350917E038D819E81AF810B
:10066000B885281739074A075B074CF08091580373
:1006700090915903019690935903809358032896BB
:10068000E2E00C94CE20A0E0B0E0E9E4F3E00C94CA
:10069000B220809156039091570381309105A9F5BE
:1006A00080915A0390915B030097D1F481E090E030
:1006B00090935B0380935A0380917B0390917C031A
:1006C000A0917D03B0917E038E5C9D4FAF4FBF4FD5
:1006D0008093460390934703A0934803B093490344
:1006E00080915803909159038233910574F082E010
:1006F00090E0909357038093560310925B031092FF
:100700005A03109259031092580380915603909106
:10071000570382309105A9F580915A0390915B03AC
:100720000097D1F481E090E090935B0380935A03AB
:1007300080917B0390917C03A0917D03B0917E0317
:10074000895C9840A109B1098093460390934703BF
:10075000A0934803B09349038091580390915903A3
:100760008233910574F083E090E090935703809377
:10077000560310925B0310925A0310925903109281
:10078000580380915603909157038330910591F55A
:1007900080915A0390915B030097C9F481E090E047
:1007A00090935B0380935A0380917B0390917C0329
:1007B000A0917D03B0917E034F96A11DB11D809342
:1007C000460390934703A0934803B0934903809155
:1007D0005803909159038233910564F010925703A6
:1007E0001092560310925B0310925A031092590311
:1007F000109258034BD3E2E00C94CE20A2E0B0E07C
:10080000E4E0F4E00C94B2209A83898389819A8190
:100810008130910549F488E290E028E230E0F90166
:100820002081FC0120830DC089819A81009749F4C1
:1008300088E290E028E230E0F90120812068FC01A4
:1008400020832296E2E00C94CE20A2E0B0E0EBE21E
:10085000F4E00C94B2209A83898389819A81992348
:1008600054F488E290E028E230E0F9012081206829
:10087000FC01208309C088E290E028E230E0F90121
:1008800020812F77FC01208389819A818130FFEFBD
:100890009F072CF481E09FEF9A8389830AC08981A6
:1008A0009A818F3F910529F024F08FEF90E09A8391
:1008B000898323EB30E089819A8199231CF49195F7
:1008C00081959109F901808389819A8190934503EB
:1008D000809344032296E2E00C94CE20A0E0B0E0A6
:1008E000E4E7F4E00C94B22083EB90E0FC0180811B
:1008F000882F90E0E2E00C94CE201F920F9200909F
:100900005F000F92112400905B000F92EF92FF9214
:100910000F931F932F933F934F935F936F937F9307
:100920008F939F93AF93BF93EF93FF93CF93DF93F7
:10093000CDB7DEB780913C0390913D030196909333
:100940003D0380933C0320917B0330917C034091D5
:100950007D0350917E038091380390913903A091DB
:100960003A03B0913B0379018A01E81AF90A0A0BAC
:100970001B0BD801C7018093570B9093580BA09382
:10098000590BB0935A0B80915403909155038130C9
:10099000910511F47BD211C08091520390915303C1
:1009A0008130910511F431D108C0809156039091A6
:1009B0005703181619060CF466DE8091793290916F
:1009C0007A32A0917B32B0917C3280933E03909337
:1009D0003F03A0934003B09341038091440390915F
:1009E000450333DF80914E0390914F038130910591
:1009F00009F0E0C080914A0390914B03813091054A
:100A000041F080914C0390914D038130910509F0A4
:100A1000D1C08091500390915103843F01E0900731
:100A20000CF0C8C0209150033091510380914603CF
:100A300090914703A0914803B0914903220F331FBF
:100A4000220F331F29573C4FF90180839183A283E2
:100A5000B383209150033091510380917B03909197
:100A60007C03A0917D03B0917E03220F331F220FE0
:100A7000331F2150354EF90180839183A283B383C4
:100A8000209150033091510380914403909145038C
:100A9000AA2797FDA095BA2F220F331F220F331FCD
:100AA00021533D4DF90180839183A283B38320912B
:100AB0005003309151038091793290917A32A09114
:100AC0007B32B0917C32220F331F220F331F235809
:100AD0003D4CF90180839183A283B383009150033D
:100AE000109151038091060190910701A091080196
:100AF000B091090120917532309176324091773270
:100B000050917832BC01CD010E948E1BDC01CB01DB
:100B10009801220F331F220F331F2D55354DF90138
:100B200080839183A283B38300915003109151037A
:100B300080910A0190910B01A0910C01B0910D01DF
:100B400020917F0330918003409181035091820373
:100B5000BC01CD010E948E1BDC01CB019801220F4C
:100B6000331F220F331F255A344FF901808391839D
:100B7000A283B38320915003309151038091850368
:100B800090918603AA2797FDA095BA2F220F331FB5
:100B9000220F331F235D3C4EF90180839183A28392
:100BA000B383809150039091510301969093510328
:100BB0008093500380917B0390917C03A0917D03EF
:100BC000B0917E038093380390933903A0933A0346
:100BD000B0933B03DF91CF91FF91EF91BF91AF9124
:100BE0009F918F917F916F915F914F913F912F9145
:100BF0001F910F91FF90EF900F9000925B000F906C
:100C000000925F000F901F901895A0E0B0E0EBE01D
:100C1000F6E00C94AC2080914203909143039C0138
:100C2000442737FD4095542F8091570B9091580BD6
:100C3000A091590BB0915A0B79018A01E81AF90A6F
:100C40000A0B1B0BD801C7018093793290937A323B
:100C5000A0937B32B0937C328091793290917A323A
:100C6000A0917B32B0917C32BC01CD010E94DA1A96
:100C7000DC01CB0120910E0130910F014091100158
:100C800050911101BC01CD010E948E1BDC01CB01F2
:100C9000209175323091763240917732509178328E
:100CA000BC01CD010E94D719DC01CB0180937532C4
:100CB00090937632A0937732B093783280917532E8
:100CC00090917632A0917732B091783220E030E086
:100CD0004AE754E4BC01CD010E948A1B18166CF44B
:100CE00080E090E0AAE7B4E4809375329093763286
:100CF000A0937732B09378321EC080917532909174
:100D00007632A0917732B091783220E030E04AE735
:100D100054ECBC01CD010E943B1A882364F480E0AE
:100D200090E0AAE7B4EC8093753290937632A0936A
:100D30007732B09378322091793230917A32409183
:100D40007B3250917C3280913E0390913F03A09181
:100D50004003B091410379018A01E81AF90A0A0BAC
:100D60001B0BD801C701BC01CD010E94DA1ADC01BE
:100D7000CB0120910E0130910F0140911001509153
:100D80001101BC01CD010E943F1ADC01CB0180930F
:100D90007F0390938003A0938103B093820380919B
:100DA000793290917A32A0917B32B0917C32BC0141
:100DB000CD010E94DA1ADC01CB01209102013091B1
:100DC00003014091040150910501BC01CD010E9435
:100DD0008E1BDC01CB016C017D018091060190919D
:100DE0000701A0910801B09109012091753230915D
:100DF00076324091773250917832BC01CD010E9419
:100E00008E1BDC01CB019C01AD01C701B6010E9424
:100E1000D719DC01CB016C017D0180910A01909111
:100E20000B01A0910C01B0910D0120917F03309135
:100E300080034091810350918203BC01CD010E9447
:100E40008E1BDC01CB019C01AD01C701B6010E94E4
:100E5000D719DC01CB01BC01CD010E94A71ADC012E
:100E6000CB019093860380938503209144033091B6
:100E700045038091850390918603820F931F909381
:100E8000450380934403E8E00C94C820A0E0B0E060
:100E9000ECE4F7E00C94AC2020914603309147033A
:100EA000409148035091490380917B0390917C03CA
:100EB000A0917D03B0917E0379018A01E81AF90AB5
:100EC0000A0B1B0BD801C7018093793290937A32B9
:100ED000A0937B32B0937C328091793290917A32B8
:100EE000A0917B32B0917C32BC01CD010E94DA1A14
:100EF000DC01CB0120910E0130910F0140911001D6
:100F000050911101BC01CD010E948E1BDC01CB016F
:100F1000209175323091763240917732509178320B
:100F2000BC01CD010E94D719DC01CB018093753241
:100F300090937632A0937732B09378328091753265
:100F400090917632A0917732B091783220E030E003
:100F50004AE754E4BC01CD010E948A1B18166CF4C8
:100F600080E090E0AAE7B4E4809375329093763203
:100F7000A0937732B09378321EC0809175329091F1
:100F80007632A0917732B091783220E030E04AE7B3
:100F900054ECBC01CD010E943B1A882364F480E02C
:100FA00090E0AAE7B4EC8093753290937632A093E8
:100FB0007732B09378322091793230917A32409101
:100FC0007B3250917C3280913E0390913F03A091FF
:100FD0004003B091410379018A01E81AF90A0A0B2A
:100FE0001B0BD801C701BC01CD010E94DA1ADC013C
:100FF000CB0120910E0130910F01409110015091D1
:101000001101BC01CD010E943F1ADC01CB0180938C
:101010007F0390938003A0938103B0938203809118
:10102000793290917A32A0917B32B0917C32BC01BE
:10103000CD010E94DA1ADC01CB012091020130912E
:1010400003014091040150910501BC01CD010E94B2
:101050008E1BDC01CB016C017D018091060190911A
:101060000701A0910801B0910901209175323091DA
:1010700076324091773250917832BC01CD010E9496
:101080008E1BDC01CB019C01AD01C701B6010E94A2
:10109000D719DC01CB016C017D0180910A0190918F
:1010A0000B01A0910C01B0910D0120917F033091B3
:1010B00080034091810350918203BC01CD010E94C5
:1010C0008E1BDC01CB019C01AD01C701B6010E9462
:1010D000D719DC01CB01BC01CD010E94A71ADC01AC
:1010E000CB01909386038093850380918503909133
:1010F0008603909345038093440372DAE8E00C94EE
:10110000C820A0E0B0E0E7E8F8E00C94B2208AE262
:1011100090E02AE230E0F90120812068FC01208380
:1011200087E290E027E230E0F90120812068FC01AD
:10113000208380EB90E023E8FC01208381EB90E0AA
:1011400022E0FC01208383EB90E0FC011082E2E0CE
:101150000C94CE201F920F9200905F000F921124EA
:1011600000905B000F922F933F938F939F93AF93C9
:10117000BF93EF93FF93CF93DF9300D000D0CDB711
:10118000DEB789E290E0FC018081882F90E08470D6
:10119000992721E0181619060CF020E0822F90E024
:1011A0009A83898389E290E0FC018081882F90E016
:1011B0008870992721E0181619060CF020E0822F7C
:1011C00090E09C838B838091A12A9091A22A9C011C
:1011D00089819A8128173907A1F480917B03909126
:1011E0007C03A0917D03B0917E030196A11DB11DEA
:1011F00080937B0390937C03A0937D03B0937E0345
:101200001DC080917332909174329C018B819C81BE
:101210002817390799F480917B0390917C03A09162
:101220007D03B0917E030197A109B10980937B03EF
:1012300090937C03A0937D03B0937E0389819A8170
:1012400090937432809373328B819C819093A22A05
:101250008093A12A0F900F900F900F90DF91CF9164
:10126000FF91EF91BF91AF919F918F913F912F91FE
:101270000F9000925B000F9000925F000F901F9004
:101280001895A0E0B0E0E7E4F9E00C94B22083E721
:1012900090E02FE0FC01208388E690E02FEFFC0136
:1012A00020838BE390E02FEFFC01208389E290E024
:1012B000FC018081882F90E08470992721E0181626
:1012C00019060CF020E0822F90E090937432809306
:1012D000733289E290E0FC018081882F90E0887071
:1012E000992721E0181619060CF020E0822F90E0D3
:1012F0009093A22A8093A12A7894E2E00C94CE20C5
:10130000A0E0B0E0E6E8F9E00C94B22080E890E0DC
:1013100020E8FC01208381E890E02AE0FC012083A2
:1013200088E890E028EA31E6FC01318320838FE6EB
:1013300090E022E0FC012083E2E00C94CE20A0E0CB
:10134000B0E0E5EAF9E00C94B22010927532109208
:10135000763210927732109278321092793210925F
:101360007A3210927B3210927C3210927F0310926C
:101370008003109281031092820310923E03109218
:101380003F031092400310924103E2E00C94CE2000
:10139000A0E0B0E0EEECF9E00C94B22080911301F3
:1013A0008F5F80931301E2E00C94CE20A4E0B0E0C4
:1013B000ECEDF9E00C94B2209A8389837C836B83F3
:1013C0002B8189819A81422FBC0182E00E942615DF
:1013D000BFD42496E2E00C94CE20A2E2B0E0E3EF8A
:1013E000F9E00C94B22040E855E260E070E082E061
:1013F0000E94441440E26FE47AE382E00E942E13DC
:10140000CE01039629E1ECE9F1E0DC0101900D92B7
:101410002A95E1F788E190E09A83898329813A81CE
:10142000CE010396B901C2DF68E170E085EB91E07F
:10143000BDDFA296E2E00C94CE20AFE3B0E0E3E2A1
:10144000FAE00C94A8209FAF8EAFCE01CA96292F48
:101450002F938F93CE01C996292F2F938F938EECC4
:1014600091E0892F8F938EEC91E08F938FAD8F93C6
:101470008EAD8F930E9413242DB73EB7285F3F4F48
:101480000FB6F894DEBF0FBECDBF9A8389838AADB5
:101490009BADACADBDAD29AD332727FD30954B2FAE
:1014A0004F934A2F4F93492F4F938F93832F8F93AF
:1014B000822F8F9384ED91E0892F8F9384ED91E0BB
:1014C0008F93CE010996292F2F938F930E94E423A7
:1014D000EDB7FEB73A960FB6F894DEBF0FBECDBF9C
:1014E0009C838B832B813C81CE010996B9015EDF01
:1014F00089AD992787FD9095AA2797FDA095BA2FCA
:1015000044E450E022E330E0841B950B28173907B0
:1015100008F4ADC38A5B9F4FFC010C949220CE016E
:1015200009962EE0E3EEF1E0DC0101900D922A95A0
:10153000E1F78DE090E09C838B832B813C81CE0191
:101540000996B90133DF80E3E8E0F3E0DE011996A4
:1015500001900D928A95E1F78FE290E09C838B8356
:101560002B813C81CE010996B90120DF10924B03FB
:1015700010924A0310924D0310924C0381E090E0C8
:1015800090934F0380934E0379C380917B03909196
:101590007C03A0917D03B0917E032B2F2F932A2FE4
:1015A0002F93292F2F938F9381EF91E0892F8F9382
:1015B00081EF91E08F93CE010996292F2F938F937E
:1015C0000E94E4232DB73EB7285F3F4F0FB6F89433
:1015D000DEBF0FBECDBF9C838B832B813C81CE01B0
:1015E0000996B901E3DE8091440390914503292FC8
:1015F0002F938F9387E092E0892F8F9387E092E07B
:101600008F93CE010996292F2F938F930E94E42365
:101610000F900F900F900F900F900F909C838B83E3
:101620002B813C81CE010996B901C0DE80917932CF
:1016300090917A32A0917B32B0917C322B2F2F93F4
:101640002A2F2F93292F2F938F9381E292E0892FB6
:101650008F9381E292E08F93CE010996292F2F93E9
:101660008F930E94E423EDB7FEB738960FB6F89437
:10167000DEBF0FBECDBF9C838B832B813C81CE010F
:101680000996B90193DE8091850390918603292FF5
:101690002F938F938EE292E0892F8F938EE292E0C8
:1016A0008F93CE010996292F2F938F930E94E423C5
:1016B0000F900F900F900F900F900F909C838B8343
:1016C0002B813C81CE010996B90170DEE0900A01C0
:1016D000F0900B0100910C0110910D012091060179
:1016E0003091070140910801509109018091020158
:1016F00090910301A0910401B0910501612F6F93B6
:10170000602F6F936F2D6F936E2D6F93652F6F9377
:10171000642F6F93632F6F932F932B2F2F932A2F69
:101720002F93292F2F938F9389E392E0892F8F9303
:1017300089E392E08F93CE010996292F2F938F93FF
:101740000E94E4232DB73EB7205F3F4F0FB6F894B9
:10175000DEBF0FBECDBF9C838B832B813C81CE012E
:101760000996B90123DEE0907F03F0908003009199
:10177000810310918203209175323091763240912D
:101780007732509178328091793290917A32A0916B
:101790007B32B0917C32612F6F93602F6F936F2DEE
:1017A0006F936E2D6F93652F6F93642F6F93632FDD
:1017B0006F932F932B2F2F932A2F2F93292F2F9314
:1017C0008F9388E592E0892F8F9388E592E08F933D
:1017D000CE010996292F2F938F930E94E423EDB712
:1017E000FEB770960FB6F894DEBF0FBECDBF9C83D8
:1017F0008B832B813C81CE010996B901D7DD809185
:10180000570B9091580BA091590BB0915A0B209106
:101810004203309143034B2F4F934A2F4F93492F4D
:101820004F938F93832F8F93822F8F9383E792E031
:10183000892F8F9383E792E08F93CE010996292F0A
:101840002F938F930E94E4232DB73EB7265F3F4F1F
:101850000FB6F894DEBF0FBECDBF9C838B832B8168
:101860003C81CE010996B901A1DD80917932909138
:101870007A32A0917B32B0917C32BC01CD010E94C2
:10188000DA1ADC01CB012091020130910301409171
:10189000040150910501BC01CD010E948E1BDC01A9
:1018A000CB016C017D018091060190910701A0910F
:1018B0000801B09109012091753230917632409142
:1018C000773250917832BC01CD010E948E1BDC0131
:1018D000CB019C01AD01C701B6010E94D719DC0103
:1018E000CB016C017D0180910A0190910B01A091C7
:1018F0000C01B0910D0120917F0330918003409144
:10190000810350918203BC01CD010E948E1BDC013A
:10191000CB019C01AD01C701B6010E94D719DC01C2
:10192000CB018D839E83AF83B88780910A0190910C
:101930000B01A0910C01B0910D0120917F0330911A
:1019400080034091810350918203BC01CD010E942C
:101950008E1BDC01CB014C015D0180910601909151
:101960000701A0910801B0910901209175323091D1
:1019700076324091773250917832BC01CD010E948D
:101980008E1BDC01CB016C017D018091793290913D
:101990007A32A0917B32B0917C32BC01CD010E94A1
:1019A000DA1ADC01CB012091020130910301409150
:1019B000040150910501BC01CD010E948E1BDC0188
:1019C000CB0128852F932F812F932E812F932D814B
:1019D0002F932B2D2F932A2D2F93292D2F93282DA5
:1019E0002F932F2D2F932E2D2F932D2D2F932C2D85
:1019F0002F932B2F2F932A2F2F93292F2F938F93B2
:101A00008EE892E0892F8F938EE892E08F93CE013B
:101A10000996292F2F938F930E94E423EDB7FEB7E9
:101A200074960FB6F894DEBF0FBECDBF9C838B8338
:101A30002B813C81CE010996B901B8DC80910E0161
:101A400090910F01A0911001B09111012B2F2F93B4
:101A50002A2F2F93292F2F938F9388EB92E0892F92
:101A60008F9388EB92E08F93CE010996292F2F93C5
:101A70008F930E94E4232DB73EB7285F3F4F0FB6E8
:101A8000F894DEBF0FBECDBF9C838B832B813C813E
:101A9000CE010996B9018ADCF1C051DC81E090E009
:101AA00090934B0380934A0381E090E0909353031B
:101AB00080935203109255031092540310925703CF
:101AC000109256038AAD9BADACADBDADBC01CD014E
:101AD0000E94A71ADC01CB01909343038093420339
:101AE000CDC08AAD9BADACADBDAD809302019093EE
:101AF0000301A0930401B0930501C0C08AAD9BAD62
:101B0000ACADBDAD80930A0190930B01A0930C0185
:101B1000B0930D01B3C08AAD9BADACADBDAD8093AC
:101B2000060190930701A0930801B0930901A6C094
:101B30008AAD9BADACADBDAD80930E0190930F010E
:101B4000A0931001B093110199C080917B039091F3
:101B50007C03A0917D03B0917E03BC01CD010E9466
:101B6000DA1ADC01CB012AAD3BAD4CAD5DADBC0159
:101B7000CD010E94D719DC01CB01BC01CD010E942F
:101B8000A71ADC01CB018093460390934703A093EF
:101B90004803B093490320917B0330917C0340912B
:101BA0007D0350917E038091460390914703A0915D
:101BB0004803B0914903652F6F93642F6F93632F90
:101BC0006F932F932B2F2F932A2F2F93292F2F9300
:101BD0008F9385EC92E0892F8F9385EC92E08F9321
:101BE000CE010996292F2F938F930E94E423EDB7FE
:101BF000FEB73C960FB6F894DEBF0FBECDBF9C83F8
:101C00008B832B813C81CE010996B901CFDB97DB19
:101C100081E090E090935503809354031092530316
:101C200010925203109257031092560381E090E0F5
:101C300090934D0380934C0321C081DB1092550398
:101C400010925403109253031092520381E090E0DB
:101C500090934D0380934C0310924B0310924A03D0
:101C600081E090E0909357038093560307C06BE1A7
:101C700070E08CEE92E09ADB01C0000068E170E059
:101C800085EB91E093DBEF96ECE00C94C420A0E2AE
:101C9000B0E0EDE4FEE00C94B22028C080915C033B
:101CA00090915D0320916F3A222F30E0215B354CFB
:101CB000F90140819E012F5F3F4F820F931FFC016E
:101CC000408380915C0390915D03019690935D0346
:101CD00080935C0380916F3A8F3119F410926F3AC0
:101CE00005C080916F3A8F5F80936F3A82E0B2D2E5
:101CF000982F80916F3A981789F680915C039091A4
:101D00005D03009709F180915C0390915D03813040
:101D1000910541F489818A3029F410925D03109273
:101D20005C0312C080915C0390915D039E012F5F64
:101D30003F4F820F931FFC011082CE0101967DDB85
:101D400010925D0310925C03A096E2E00C94CE200A
:101D5000A0E0B0E0EEEAFEE00C94B22001C042D672
:101D600082E088D28823D9F3E2E00C94CE2080E090
:101D700090E0089581E090E06F9364E06A95F1F758
:101D80006F910197C9F708950F931F93CF93DF9336
:101D900017B13D982898299AC0E0D0E0EBDF2A9A45
:101DA000E9DF06B12A98E6DF2A9AE4DF2A9824962A
:101DB00005FF10C09E0140E050E0809162039091C9
:101DC0006303A0916403B0916503281739074A079C
:101DD0005B0720F39E0140E050E080916203909108
:101DE0006303A0916403B0916503281739074A077C
:101DF0005B0728F082E390E0A0E0B0E004C080E35D
:101E000095E7A0E0B0E08093620390936303A09312
:101E10006403B093650317B9DF91CF911F910F91C0
:101E2000089528B190E08F709070880F991F880FE7
:101E3000991F237C282B28B92A9A9CDF2A989ACFAD
:101E4000A2E0B0E0E6E2FFE00C94AF20182F4A8356
:101E5000698358D099DFF7B008B1299869814A8120
:101E6000662311F0289A01C0289887B18C6387B93E
:101E7000413021F0812F82958F70D3DF812F8F70B9
:101E8000D0DFF7B808B92296E5E00C94CB2060E0EB
:101E900042E0D6CF61E042E0D3CF60E041E0D0CF76
:101EA0003D98459A80E395E7A0E0B0E08093620317
:101EB00090936303A0936403B0936503209A219ADF
:101EC000229A8EE190E063D683E0E7DF86E090E03F
:101ED0005ED683E0E2DF82E090E059D683E0DDDF8A
:101EE00082E090E054D682E0D8DF82E090E04FD6E6
:101EF00088E2CDDF88E0CBDF81E0C9DF86E0C7DFA5
:101F00008CE0C5CF80916603882321F481E0809323
:101F10006603C6CF089581E0BADF80915E03909199
:101F20005F03009711F1A0E0B0E208C0E0915E030A
:101F3000F0915F03E20FF31FB083AF5F2A2F30E011
:101F40008091140190E001976091150170E0869FE7
:101F5000A001879F500D969F500D1124241735071F
:101F60002CF310926103109260030895D4CF08956A
:101F7000A5E0B0E0EEEBFFE00C94B120182F80E874
:101F8000898380EC8A8384E98B8384ED8C83FE01D2
:101F9000E60FF11D8181810F6D8379DF109361035D
:101FA0006D81609360032596E3E00C94CD20E0CF33
:101FB0000895A0E0B0E0EFEDFFE00C94AC20D82E47
:101FC00080915E0390915F03009709F4F2C02D2D7C
:101FD0002A3009F442C02830C9F48091610381504D
:101FE000809361038F3F51F480916003815080930F
:101FF000600380911501815080936103809160039B
:102000008F3F09F0D1C010926003CCC08D2D42DF0C
:10201000809160038823B9F090E001974091150109
:1020200050E0849F9001859F300D949F300D1124C6
:1020300080916103E0915E03F0915F03E20FF31F73
:10204000E80FF11DD082809161038F5F809361035F
:1020500090911501891709F0ACC040916003242FBD
:1020600030E08091140190E001972817390709F0BA
:1020700096C0C0E0D0E03FC080E06C2F79DFCC2478
:102080008E010F5F1F4F32C0EC2CFF2430E0C29F47
:10209000C001C39F900DD29F900D1124E0915E036B
:1020A000F0915F03EE0DFF1DE80FF91F8081F2DE56
:1020B00080915E0390915F032091150130E0C29FF3
:1020C000F001C39FF00DD29FF00D11248E0D9F1DC6
:1020D000E80FF91F029FD001039FB00D129FB00DB2
:1020E0001124A80FB91F8C918083C39420911501EE
:1020F000C21650F2E80160911401862F90E0029719
:10210000C817D9070CF4B8CF6230D0F1625080E024
:102110002FDF00E010E230C0C02FD0E0809114012A
:1021200090E0029750E0849F9001859F300D949F2E
:10213000300D1124E0915E03F0915F03EC0FFD1F61
:10214000E20FF31F8081A6DE8091140190E00297D8
:102150004091150150E0849F9001859F300D949F20
:10216000300D1124E0915E03F0915F03EC0FFD1F31
:10217000E20FF31F10830F5F40911501041760F207
:1021800060911401615080E0F3DE10E003C080E252
:1021900081DE1F5F809115011817C8F303C04F5FE0
:1021A000409360031092610380916103609160032A
:1021B000DFDE2D2D332727FD3095C901CDB7DEB7E2
:1021C000E8E00C94C82080915E0390915F03009733
:1021D00011F00E9480212091140130E02150304004
:1021E0008091150190E0AC01249FC001259F900DC6
:1021F000349F900D11240E94E82090935F038093F8
:102200005E03009721F1A0E0B0E208C0E0915E0318
:10221000F0915F03E20FF31FB083AF5F2A2F30E02E
:102220008091140190E001976091150170E0869F04
:10223000A001879F500D969F500D1124241735073C
:102240002CF389ED9FE067EB7EE00C941823089552
:10225000BACF0895282F30E0F901EE0FFF1F43E0B9
:10226000220F331F4A95E1F7E20FF31FEA5EFE4F9C
:1022700082810895282F30E0F901EE0FFF1F73E0EF
:10228000220F331F7A95E1F7E20FF31FEA5EFE4F4C
:102290004181282F30E0F901EE0FFF1F53E0220F9C
:1022A000331F5A95E1F7E20FF31FEA5EFE4F81E01C
:1022B0009381491380E00895282F30E0F901EE0F53
:1022C000FF1FB3E0220F331FBA95E1F7E20FF31FB0
:1022D000EA5EFE4F408551854115510509F452C013
:1022E000282F30E0F901EE0FFF1F73E0220F331F9C
:1022F0007A95E1F7E20FF31FEA5EFE4F7281282F15
:1023000030E0F901EE0FFF1FB3E0220F331FBA9543
:10231000E1F7E20FF31FEA5EFE4F9481791790F523
:10232000282F30E0F901EE0FFF1F73E0220F331F5B
:102330007A95E1F7E20FF31FEA5EFE4F9281490FB3
:10234000511DFA016083282F30E0F901EE0FFF1FC5
:1023500053E0220F331F5A95E1F7E20FF31FEA5EB5
:10236000FE4F92819F5F282F30E0F901EE0FFF1F93
:10237000B3E0220F331FBA95E1F7E20FF31FEA5ED5
:10238000FE4F9283282F30E0F901EE0FFF1F73E01C
:10239000220F331F7A95E1F7E20FF31FEA5EFE4F3B
:1023A0004281282F30E0F901EE0FFF1F53E0220F8A
:1023B000331F5A95E1F7E20FF31FEA5EFE4F948157
:1023C000491701F5282F30E0F901EE0FFF1F93E0C8
:1023D000220F331F9A95E1F7E20FF31FEA5EFE4FDB
:1023E0009581992379F0282F30E0F901EE0FFF1F36
:1023F000B3E0220F331FBA95E1F7E20FF31FEA5E55
:10240000FE4F128208950F931F93182F823009F404
:1024100074C0882319F4E1ECF0E002C0E9ECF0E0CC
:1024200080818F778083812F90E0FC01EE0FFF1F6A
:1024300003E0880F991F0A95E1F7E80FF91FEA5E9C
:10244000FE4F808591850097A1F1212F30E0F901A1
:10245000EE0FFF1FA3E0220F331FAA95E1F7E20F53
:10246000F31FEA5EFE4F9281212F30E0F901EE0F5B
:10247000FF1F63E0220F331F6A95E1F7E20FF31F9E
:10248000EA5EFE4F84819817A0F4112319F4E0EC62
:10249000F0E002C0E8ECF0E0808187FF0AC0112381
:1024A00019F4E6ECF0E002C0EEECF0E06081812F80
:1024B00003DF212F30E0F901EE0FFF1F43E0220F71
:1024C000331F4A95E1F7E20FF31FEA5EFE4F80816A
:1024D000882309F057C0112319F4E1ECF0E002C0A1
:1024E000E9ECF0E08081806880834CC080912F010E
:1024F000882319F010922C0145C0809132019091EF
:102500003301009709F43EC090912C0180912E0177
:102510009817C0F580916703882399F43DD3809381
:10252000670310E00AC035D3E02FF0E03197E11BDC
:10253000F109E859FC4F80831F5F00916703101772
:1025400090F3A0916703AA23E9F080912C01E09118
:102550003201F0913301E80FF11DA150A093670300
:10256000B0E0A859BC4F8C91808380912C018F5F83
:1025700080932C0190912C0180912E01981709F0E5
:10258000BCCFB4CF1F910F910895823051F08823B2
:1025900019F4E1ECF0E002C0E9ECF0E090819F7703
:1025A0009083A82FB0E0FD01EE0FFF1F53E0AA0FAC
:1025B000BB1F5A95E1F7EA0FFB1FEA5EFE4F7187DA
:1025C0006087682F70E0FB01EE0FFF1F93E0660F3E
:1025D000771F9A95E1F7E60FF71FEA5EFE4F12822A
:1025E000682F70E0FB01EE0FFF1FA3E0660F771F5F
:1025F000AA95E1F7E60FF71FEA5EFE4F4483482FE6
:1026000050E0FA01EE0FFF1F63E0440F551F6A957B
:10261000E1F7E40FF51FEA5EFE4F25838230D9F023
:10262000282F30E0F901EE0FFF1F43E0220F331F88
:102630004A95E1F7E20FF31FEA5EFE4F908199237E
:1026400051F4882319F4E1ECF0E002C0E9ECF0E089
:10265000808180688083089521E097CFFDCF089521
:102660001F920F920FB60F920BB60F9211242F9359
:102670003F934F935F936F937F938F939F93AF930A
:10268000BF93EF93FF936091C60080E015DEFF914A
:10269000EF91BF91AF919F918F917F916F915F91DA
:1026A0004F913F912F910F900BBE0F900FBE0F9047
:1026B0001F9018951F920F920FB60F920BB60F92A4
:1026C00011242F933F934F935F936F937F938F9337
:1026D0009F93AF93BF93EF93FF936091CE0081E000
:1026E000EBDDFF91EF91BF91AF919F918F917F9122
:1026F0006F915F914F913F912F910F900BBE0F9073
:102700000FBE0F901F901895882319F4E1ECF0E0AC
:1027100002C0E9ECF0E08081806280830895882324
:1027200019F4E1ECF0E002C0E9ECF0E080818F7D8B
:1027300080830895282F30E0F901EE0FFF1F93E00A
:10274000220F331F9A95E1F7E20FF31FEA5EFE4F67
:10275000268137812115310591F1282F30E0F901CB
:10276000EE0FFF1FA3E0220F331FAA95E1F7E20F40
:10277000F31FEA5EFE4F4181282F30E0F901EE0F92
:10278000FF1F63E0220F331F6A95E1F7E20FF31F8B
:10279000EA5EFE4F9381491790F4282F30E0F9014B
:1027A000EE0FFF1F43E0220F331F4A95E1F7E20FC0
:1027B000F31FEA5EFE4F9081992309F4A5CFAFCFB6
:1027C000823029F1282F30E0F901EE0FFF1F53E08E
:1027D000220F331F5A95E1F7E20FF31FEA5EFE4F17
:1027E0009081992349F4882319F4E1ECF0E002C0C8
:1027F000E9ECF0E098E908C0882319F4E1ECF0E096
:1028000002C0E9ECF0E098E1908394DF78940895B9
:10281000882319F0813029F402C080E0D1CF81E013
:10282000CFCF0895A0E0B0E0E8E1F4E10C94AD2052
:10283000D82E7A018B01ECDF8D2D823001F1DD2065
:1028400019F4C4ECD0E002C0CCECD0E0C801B70170
:1028500028EF3FEF4FEF5FEF0E9461206050734D14
:102860008E4C9E4FA8019701E4E0220F331F441FB6
:10287000551FEA95D1F70E94702039832883CDB780
:10288000DEB7E7E00C94C920CDCF0895282F30E0C3
:10289000F901EE0FFF1F73E0220F331F7A95E1F766
:1028A000E20FF31FEA5EFE4F468157814115510545
:1028B00009F465C0282F30E0F901EE0FFF1F93E007
:1028C000220F331F9A95E1F7E20FF31FEA5EFE4FE6
:1028D0006181282F30E0F901EE0FFF1FA3E0220FE6
:1028E000331FAA95E1F7E20FF31FEA5EFE4F9381D3
:1028F000691708F044C0882319F4E0ECF0E002C046
:10290000E8ECF0E0908195FF3AC0882319F4A6EC3A
:10291000B0E002C0AEECB0E0282F30E0F901EE0FDD
:10292000FF1F63E0220F331F6A95E1F7E20FF31FE9
:10293000EA5EFE4F9181490F511DFA0190819C93EF
:10294000282F30E0F901EE0FFF1F93E0220F331F15
:102950009A95E1F7E20FF31FEA5EFE4F91819F5FC8
:10296000282F30E0F901EE0FFF1FA3E0220F331FE5
:10297000AA95E1F7E20FF31FEA5EFE4F9183DACEEC
:102980001F93182F823021F0CADE812F7FDF1CC0F9
:1029900080913001909131010097B1F030912B017D
:1029A00020912D01321780F406C080912B018F5F9A
:1029B00080932B01EDCF20912B01820F911DFC0103
:1029C0008081EED0882389F71F91089580E0D8DFB9
:1029D00081E0D6DF82E0D4DF80E015DD81E013DD29
:1029E00082E011CDF3CF0895282F30E0F901EE0FEA
:1029F000FF1F93E0220F331F9A95E1F7E20FF31FB9
:102A0000EA5EFE4F77836683282F30E0F901EE0FF0
:102A1000FF1FA3E0220F331FAA95E1F7E20FF31F78
:102A2000EA5EFE4F1182282F30E0F901EE0FFF1F02
:102A300063E0220F331F6A95E1F7E20FF31FEA5EAE
:102A4000FE4F4383823009F075CE0895CDCF0895AF
:102A50001F920F920FB60F920BB60F9211242F9365
:102A60003F934F935F936F937F938F939F93AF9316
:102A7000BF93EF93FF9380E009DFFF91EF91BF9148
:102A8000AF919F918F917F916F915F914F913F9106
:102A90002F910F900BBE0F900FBE0F901F901895A7
:102AA0001F920F920FB60F920BB60F9211242F9315
:102AB0003F934F935F936F937F938F939F93AF93C6
:102AC000BF93EF93FF9381E0E1DEFF91EF91BF9120
:102AD000AF919F918F917F916F915F914F913F91B6
:102AE0002F910F900BBE0F900FBE0F901F90189557
:102AF0006F9364E06A95F1F76F910197C9F70895B4
:102B00002F928F939F932FB68091710390917203B0
:102B10000196809371039093720390E08091730308
:102B2000891F80937303909179039C5F909379033D
:102B30008091780380519742C0F0909379038093FD
:102B400078038091740390917503019680937403C8
:102B50009093750390E080917603891F80937603AC
:102B600080917703891F809377032FBE9F918F9168
:102B70002F901895CF93DF93EC0104C088EE93E07B
:102B8000B7DF21972097D1F7DF91CF910895F2CF4A
:102B900008958FEF64E043C083E867E040D0F9CF49
:102BA0001F93182F982F9095991F9927991F85E8A3
:102BB000891B65E034D0812F8F7765E030D01F917D
:102BC00008956F9364E06A95F1F76F910197C9F7E3
:102BD0000895A1E0B0E0EFEEF5E10C94B120182FDC
:102BE000249908C02C9906C02C9A8EE190E0698344
:102BF000E8DF698184B1806A84B92698812F837067
:102C000080656C7A862B8CBD81E012FF80E08DBDE3
:102C100081E090E0AFDF2196E3E00C94CD200F93AC
:102C20001F93082F162F0CB406FC03C080E064E04D
:102C3000D0DF0CB404FC03C08CB580618CBD0EBD2C
:102C400003C00CB404FE0AC00DB407FEFACF112372
:102C500019F0812F90E0B5DF8EB501C080E01F91A3
:102C60000F9108952F923F924F925F926F927F92B1
:102C70008F929F92AF92BF92CF92DF92EF92FF928C
:102C80000F931F93CF93DF93CDB7DEB763970FB644
:102C9000F894DEBF0FBECDBF7C011B016A01FC01B1
:102CA00017821682838181FF66C3BE016F5F7F4FEB
:102CB0004B01F7019381F10193FD859193FF819180
:102CC0001F01882309F453C3853239F493FD85919C
:102CD00093FF81911F01853239F4B70190E00E9482
:102CE000A02356016501E5CF10E0512C20E02032F1
:102CF000A0F48B3269F030F4803259F0833269F4F9
:102D000020612CC08D3239F0803339F4216026C027
:102D10002260246023C0286021C027FD27C030ED39
:102D2000380F3A3078F426FF06C0FAE01F9F300DC6
:102D30001124132F13C06AE0569E300D1124532E18
:102D400020620CC08E3221F426FD11C3206406C01F
:102D50008C3611F4206802C0883641F4F10193FDED
:102D6000859193FF81911F018111C1CF9BEB980F3A
:102D7000933018F42061805E06C09BE9980F933071
:102D800008F0AAC12F7E26FF16E02F73722E85361B
:102D900021F4F22FF0647F2E08C0863621F4622FD2
:102DA0006068762E02C01111115077FE07C01C33E7
:102DB00048F444244394410E27E00BC0183030F40B
:102DC000212F06C027E04CE3442E03C027E017E084
:102DD000412C560174E0A70EB11CF601608171818F
:102DE00082819381042DA4010E940F226C0109812C
:102DF00000FF02C003FF06C071FC07C072FC08C0E0
:102E0000612C08C03DE2632E05C02BE2622E02C099
:102E100090E2692E802F8C7099F1662011F084E089
:102E200001C083E0851510F0512C0BC0581A73FCBB
:102E300008C0B70180E290E00E94A0235A94C9F72D
:102E4000F3CF662029F0B701862D90E00E94A023E1
:102E500003FD03C006EF10E002C002EF10E0F72D03
:102E6000F0717F2EF8018491882309F476C27110E5
:102E70008052B70190E00E94A0230F5F1F4FF2CF56
:102E800077FE0FC04C0C04FF04C08A81813309F423
:102E90004A94141474F5F8E0F41578F588E0482E97
:102EA0002CC076FC2AC0812F90E08C159D059CF0EB
:102EB0006CEFC6166FEFD60674F0772D7068772E1C
:102EC0000AC0E2E0F0E0EC0FFD1FE10FF11D808190
:102ED000803319F411501111F4CF77FE0EC0442441
:102EE0004394410E812F90E0C816D9062CF41C198A
:102EF00004C04424439401C010E077FE07C01C14B2
:102F00001D043CF496012F5F3F4F05C025E030E0E3
:102F100002C021E030E0662011F02F5F3F4F112307
:102F200031F0412F50E04F5F5F4F240F351F452D8B
:102F300050E02417350714F4521A01C0512C872D84
:102F4000897049F4552039F0B70180E290E00E9481
:102F5000A0235A94F7CF662029F0B701862D90E080
:102F60000E94A02373FC09C0552039F0B70180E30B
:102F700090E00E94A0235A94F7CF77FE5FC09C2D6B
:102F80008D2DD7FE02C090E080E0692E782E40E0C3
:102F900050E0C601841991099D878C8796012619F6
:102FA0003709280D391D812F90E0EE27FF27E81BF8
:102FB000F90BFF87EE87FFEF6F167F0669F4B70105
:102FC0008EE290E02B8B3A8B488B598B0E94A0238A
:102FD000598948893A892B89C614D70454F06C85DD
:102FE0007D85661577052CF4F901E40FF51F8181C5
:102FF00001C080E371E0671A71084F5F5F4FEE8593
:10300000FF856E167F066CF0B70190E02B8B3A8B34
:10301000488B598B0E94A0232B893A89488959896A
:10302000CACF6C147D0439F49A81963318F4953321
:1030300011F404FF81E3B70190E04BC08A81813332
:1030400009F00F7EB70190E00E94A023111105C086
:1030500074FE18C085E490E017C0B7018EE290E0DE
:103060000E94A02382E066246394680EF401E80FB6
:10307000F11D8081B70190E00E94A023115041F31F
:10308000862DF1CF85E690E0B7010E94A023D7FC02
:1030900005C0C114D10439F404FF05C0D194C19412
:1030A000D1088DE201C08BE2B70190E00E94A0231D
:1030B00080E36AE0C616D1042CF08F5FFAE0CF1AE5
:1030C000D108F7CFB70190E00E94A023B701C60155
:1030D000C0960E94A02341C1833631F0833779F036
:1030E000833509F058C021C0560172E0A70EB11C0B
:1030F000F6018081898301E010E0640114C056016B
:10310000F2E0AF0EB11CF601C080D18026FF03C0F3
:10311000612F70E002C06FEF7FEFC6012B8B0E9422
:103120000D238C012B892F7715C05601F2E0AF0ECD
:10313000B11CF601C080D18026FF03C0612F70E072
:1031400002C06FEF7FEFC6012B8B0E9402238C0120
:103150002B892068722E23FD1AC0852D90E0081758
:103160001907A8F4B70180E290E00E94A0235A94C6
:10317000F4CFF60177FC859177FE81916F01B7015D
:1031800090E00E94A02351105A940150110901159A
:10319000110579F7E2C0843611F0893651F55601F0
:1031A00027FF09C0F4E0AF0EB11CF6016081718108
:1031B000828193810AC0F2E0AF0EB11CF6016081FA
:1031C0007181882777FD8095982F022F0F7697FFC2
:1031D00008C090958095709561957F4F8F4F9F4F58
:1031E00000682AE030E0A4010E944D24C82EC818CF
:1031F0003EC0022F853721F40F7E2AE030E01DC04B
:10320000097F8F3691F018F4883559F0B0C08037B7
:1032100019F0883711F0ABC0006104FF09C00460E9
:1032200007C024FF08C0066006C028E030E005C0E3
:1032300020E130E002C020E132E0560107FF09C082
:10324000F4E0AF0EB11CF60160817181828193813F
:1032500008C0F2E0AF0EB11CF6016081718180E020
:1032600090E0A4010E944D24C82EC8180F7706FFD5
:103270000BC0202F2E7FC11650F404FF0AC002FDA0
:1032800008C0202F2E7E05C0DC2C202F03C0DC2C94
:1032900001C0D12E24FF0DC0FE01EC0DF11D808177
:1032A000803311F4297E09C022FF06C0D394D39441
:1032B00004C0822F867809F0D39423FD13C020FF29
:1032C00006C01C2DD51418F4150D1D19D52CD514B8
:1032D00068F4B70180E290E02B8B0E94A023D39486
:1032E0002B89F5CFD51410F45D1801C0512C24FFA3
:1032F00012C0B70180E390E02B8B0E94A0232B89A2
:1033000022FF17C021FF03C088E590E002C088E7D4
:1033100090E0B7010CC0822F867859F021FD02C0E1
:1033200080E201C08BE227FD8DE2B70190E00E94B0
:10333000A023C11638F4B70180E390E00E94A023D7
:103340001150F7CFCA94F401EC0DF11D8081B70143
:1033500090E00E94A023C110F5CF552009F4C2CC03
:10336000B70180E290E00E94A0235A94F6CFF701C3
:103370008681978102C08FEF9FEF63960FB6F89416
:10338000DEBF0FBECDBFDF91CF911F910F91FF9098
:10339000EF90DF90CF90BF90AF909F908F907F90F5
:1033A0006F905F904F903F902F9008955058BB279B
:1033B000AA270ED075C166D130F06BD120F031F460
:1033C0009F3F11F41EF45BC10EF4E095E7FB51C181
:1033D000E92F77D180F3BA1762077307840795073F
:1033E00018F071F49EF58FC10EF4E0950B2EBA2FF4
:1033F000A02D0B01B90190010C01CA01A0011124FB
:10340000FF27591B99F0593F50F4503E68F11A16A6
:10341000F040A22F232F342F4427585FF3CF469537
:1034200037952795A795F0405395C9F77EF41F1659
:10343000BA0B620B730B840BBAF09150A1F0FF0F23
:10344000BB1F661F771F881FC2F70EC0BA0F621F0F
:10345000731F841F48F4879577956795B795F795FF
:103460009E3F08F0B3CF9395880F08F09927EE0F91
:10347000979587950895D9D008F481E008950CD0E8
:103480000FC107D140F0FED030F021F45F3F19F0BA
:10349000F0C0511139C1F3C014D198F39923C9F385
:1034A0005523B1F3951B550BBB27AA27621773074A
:1034B000840738F09F5F5F4F220F331F441FAA1FFE
:1034C000A9F333D00E2E3AF0E0E830D091505040BE
:1034D000E695001CCAF729D0FE2F27D0660F771F6C
:1034E000881FBB1F261737074807AB07B0E809F04E
:1034F000BB0B802DBF01FF2793585F4F2AF09E3FE3
:10350000510568F0B6C000C15F3FECF3983EDCF3B4
:10351000869577956795B795F7959F5FC9F7880F5B
:10352000911D9695879597F90895E1E0660F771FAD
:10353000881FBB1F621773078407BA0720F0621B3E
:10354000730B840BBA0BEE1F88F7E095089504D037
:103550006894B111D9C00895BCD088F09F5790F0FD
:10356000B92F9927B751A0F0D1F0660F771F881FA8
:10357000991F1AF0BA95C9F712C0B13081F0C3D0C3
:10358000B1E00895C0C0672F782F8827B85F39F061
:10359000B93FCCF3869577956795B395D9F73EF407
:1035A00090958095709561957F4F8F4F9F4F0895AF
:1035B000E89409C097FB3EF49095809570956195CD
:1035C0007F4F8F4F9F4F9923A9F0F92F96E9BB2783
:1035D0009395F695879577956795B795F111F8CFFF
:1035E000FAF4BB0F11F460FF1BC06F5F7F4F8F4F6A
:1035F0009F4F16C0882311F096E911C0772321F060
:103600009EE8872F762F05C0662371F096E8862FF7
:1036100070E060E02AF09A95660F771F881FDAF74E
:10362000880F9695879597F90895990F0008550F7B
:10363000AA0BE0E8FEEF16161706E807F907C0F038
:1036400012161306E407F50798F0621B730B840B40
:10365000950B39F40A2661F0232B242B252B21F41A
:1036600008950A2609F4A140A6958FEF811D811DBA
:10367000089597F99F6780E870E060E008959FEFF4
:1036800080EC089500240A941616170618060906F9
:10369000089500240A9412161306140605060895C8
:1036A000092E0394000C11F4882352F0BB0F40F450
:1036B000BF2B11F460FF04C06F5F7F4F8F4F9F4F90
:1036C000089557FD9058440F551F59F05F3F71F012
:1036D0004795880F97FB991F61F09F3F79F0879579
:1036E0000895121613061406551FF2CF4695F1DF02
:1036F00008C0161617061806991FF1CF8695710592
:10370000610508940895E894BB2766277727CB01C5
:1037100097F908958ADF08F48FEF08950BD0C0CF92
:10372000B1DF28F0B6DF18F0952309F0A2CFA7CFBC
:103730001124EACFC6DFA0F3959FD1F3950F50E097
:10374000551F629FF001729FBB27F00DB11D639F53
:10375000AA27F00DB11DAA1F649F6627B00DA11DF9
:10376000661F829F2227B00DA11D621F739FB00D9F
:10377000A11D621F839FA00D611D221F749F33270F
:10378000A00D611D231F849F600D211D822F762FA8
:103790006A2F11249F5750408AF0E1F088234AF0A5
:1037A000EE0FFF1FBB1F661F771F881F91505040F1
:1037B000A9F79E3F510570F05CCFA6CF5F3FECF3B9
:1037C000983EDCF3869577956795B795F795E795DD
:1037D0009F5FC1F7FE2B880F911D9695879597F9EE
:1037E000089520FD09C0FC0123FD05C022FF02C091
:1037F0007383628351834083089544FD10C046FD66
:1038000010C0DB01FC01AA0FBB1FEE1FFF1F1094AD
:10381000D1F76A0F7B1F8E1F9F1F31E003C033E07B
:1038200001C034E0660F771F881F991F3150D1F710
:10383000620F711D811D911D08950F931F93CF93EA
:10384000DF938C01C8013ED7EC0197FD07C0BFD6BE
:10385000892BC1F7B801CE010E943424CE01DF913B
:10386000CF911F910F9108956F927F929F92AF9287
:10387000BF92CF92DF92EF92FF920F931F93CF935D
:10388000DF931F92CDB7DEB78C013B015A0129832C
:1038900019D7AC01552729814B32510521F04D3202
:1038A000510579F4206831E0631A710861147104DC
:1038B00011F480E078C0C801298304D7298197FDDD
:1038C000F8CFE22FED7F9E2E322F307369F58033D3
:1038D00059F57301F1E0EF1AF108E114F10409F46C
:1038E0004FC0C8012983EED6298197FD49C0382FE2
:1038F0003F7D383579F4292D2264922E32E0631A07
:1039000071086114710409F43BC0C801DBD697FF4C
:103910000BC036C026FF04C0E92DE2609E2E03C016
:10392000F92DF2619F2E3701C12CD12C760120EDAB
:10393000280F283078F094FE03C0B80195D71DC039
:103940002A3040F096FEF9CF2F7D3FEE320F363011
:10395000A0F72750492DC701B6014FDF6B017C014D
:10396000292D2260922E31E0631A710861147104CE
:1039700051F0C801A7D697FFDACF91FC04C099CFC8
:10398000C12CD12C760197FE08C0F094E094D0941D
:10399000C094C11CD11CE11CF11C292DB701A6014A
:1039A000C5011FDF81E00F90DF91CF911F910F9133
:1039B000FF90EF90DF90CF90BF90AF909F907F905F
:1039C0006F9008954F925F926F927F928F929F9225
:1039D000AF92BF92CF92DF92EF92FF920F931F931D
:1039E000CF93DF93CDB7DEB7A0970FB6F894DEBFC5
:1039F0000FBECDBF5C014B017A018E010F5F1F4FDF
:103A0000680180E2F80111928A95E9F7F501638077
:103A100080E090E0712C412CB0E041E050E0F901F1
:103A200063FC559063FE51908F01A52D9F015110AD
:103A300003C080E090E07DC0FEE55F1202C0009709
:103A400061F16B2F70E0681779074CF46DE556163D
:103A500061F1EDE25E1203C0442009F103C04110A0
:103A600001C0752C6A2F669566956695F601E60F7E
:103A7000F11D6A2F67708A0102C0000F111F6A953D
:103A8000E2F7B8017081762B7083A71559F0A7155E
:103A900010F4AF5FE7CFA150E5CFB1E004C04424FC
:103AA000439401C0412C0196BACF442019F08E8175
:103AB00080628E83B11103C07724739419C0F6011C
:103AC000CE018196208120952193E817F907D1F73F
:103AD000F3CFE114F10429F0F7018083C7010196C7
:103AE0007C0191E0891A910881149104E1F0712C14
:103AF000C501E8D597FD15C0282F26952695269552
:103B0000F601E20FF11D208130E0AC01477055272E
:103B100002C0359527954A95E2F720FDDACFB50129
:103B2000A3D6711086CFE114F10411F0F7011082D1
:103B3000C801A0960FB6F894DEBF0FBECDBFDF91CF
:103B4000CF911F910F91FF90EF90DF90CF90BF909A
:103B5000AF909F908F907F906F905F904F9008955F
:103B60002F923F924F925F926F927F929F92AF926D
:103B7000BF92CF92DF92EF92FF920F931F93CF935A
:103B8000DF9300D000D000D0CDB7DEB76C018B0141
:103B90001A0198D59E838D8399278B32910529F040
:103BA0008D9791F480E8982E01C0912C0150110955
:103BB0000115110511F480E028C1C60183D59E834B
:103BC0008D8397FF02C0F7CF912C8D819E8107D501
:103BD0008936910541F08E369105C1F5BCE06B2E1A
:103BE000B1E07B2E04C0AFE06A2EA1E07A2E8FEF09
:103BF000681A780AF3013197B490BB20D9F00150CC
:103C000011090115110559F0C6015CD57C0197FD1C
:103C100006C0E5D4B81659F3B601C70125D622E18E
:103C2000621621E0720609F0C6CF80E090E0A0E8BD
:103C3000BFE709C09FE0691691E07906B1F780E01F
:103C400090E0A0ECBFE7BC01CD01CFC0412C512CCE
:103C50003201E12CF12C2D8120532A3020F5E92D61
:103C6000E260BE2E892D887092FE06C0811122C0AE
:103C7000FFEFEF1AFF0A1EC0882319F081E0E81A4F
:103C8000F10840E2C301B201B8DD2B013C0198E923
:103C9000491699E95906690699E1790658F0E92D1E
:103CA000E660BE2E07C02E3F99F493FC11C0F92D9B
:103CB000F860BF2E015011090115110541F0C60130
:103CC00001D59E838D839B2C97FD02C0C4CF9B2C76
:103CD00091FE71CF8D818F7D853409F052C05801DE
:103CE00021E0A21AB108A114B10409F464CFC601FD
:103CF000E9D49E838D8397FD5ECF99278B32910502
:103D000029F08D9779F4892D8061982E580192E0E1
:103D1000A91AB108A114B10409F44DCFC601D2D437
:103D20009E838D838D819E81C0970A9708F043CF33
:103D30008501A12CB12CB501882777FD8095982F9E
:103D40002D81205340E259DDAB01BC015A010150E5
:103D500011090115110569F0C60149835A836B8366
:103D60007C83B0D49E838D83C09749815A810A9702
:103D700010F394FE04C0AA24BB24A41AB50AEA0CCA
:103D8000FB1C012B39F0ED81FE81F7FD03C0B6016C
:103D9000CF016AD5C301B2010BDCF7FE08C0F19474
:103DA000E194F108FBE2AF2EF1E0BF2E04C0E3E4A2
:103DB000AE2EE1E0BE2E6501F8E1CF1AD10800E297
:103DC00010E0E016F10648F0F50125913591459196
:103DD0005491A4DCE01AF10AF4CF24E0A21AB1084D
:103DE00016950795AC14BD0461F797FE05C0DC017C
:103DF000CB01B058BC01CD012114310429F0F101EF
:103E0000608371838283938381E026960FB6F89452
:103E1000DEBF0FBECDBFDF91CF911F910F91FF90FD
:103E2000EF90DF90CF90BF90AF909F907F906F907A
:103E30005F904F903F902F9008954F925F926F92B6
:103E40007F928F929F92AF92BF92CF92DF92EF922A
:103E5000FF920F931F93CF93DF931F92CDB7DEB7DF
:103E60008C012B017A01FC0117821682A12CF8012A
:103E7000D380F201D3FC8591D3FE8191382F2F019D
:103E8000882309F407C190E03983A1D33981892BB4
:103E900019F0C801D2DCEBCF353241F4F201D3FC8A
:103EA0003591D3FE31912F01353259F4C801398350
:103EB00009D4398197FDECC03817C9F2B801D4D4C0
:103EC000E9C03A3241F4D3FC3591D3FE31912F0150
:103ED000BB24B39401C0B12C812C912C20ED230F75
:103EE0002A3080F4FB2DF260BF2EB40180E090E018
:103EF00040E283DC4B01F201D3FC3591D3FE3191DA
:103F00002F01ECCFB1FE04C08114910421F4C2C092
:103F100088248A94982C383619F03C3661F014C005
:103F2000F201D3FC3591D3FE31912F01383661F483
:103F3000FB2DF860BF2E8B2D8460B82EF201D3FCD0
:103F40003591D3FE31912F01332309F4A3C0632FA0
:103F500070E08AEF90E039834AD33981892B09F4E4
:103F600099C0B0FC07C0F701C080D180C70102969C
:103F70007C0102C0C12CD12C3E3649F4F8014681A7
:103F8000578160E070E02B2DC6012BDC70CF3336FB
:103F9000C1F4B1FC03C088248394912CC80192D34E
:103FA00097FD76C0C114D10429F0F6018083C601C3
:103FB00001966C0191E0891A91088114910471F7BE
:103FC00063C03B3551F49201A601B401C801FADC8B
:103FD0002C01009709F058C052C0C80139832DDC6C
:103FE000398197FD55C03F36D9F140F43436A1F1FF
:103FF0003936C9F1383509F03CC02AC03337B9F039
:1040000018F4303729F135C0353731F1383701F13F
:1040100030C0C114D10429F0F6016082C6010196B6
:104020006C0191E0891A91088114910459F0C8013A
:1040300049D33C0197FD06C0CAD2892B51F3B80180
:10404000C30112D4C114D104F9F0F60110821CC0CE
:10405000FB2DF064BF2E07C08B2D8062B82E03C0ED
:104060009B2D9061B92E2B2DA601B401C801FCDB5C
:1040700004C0A601B401C80173DD811105C0F801B7
:104080008381807329F406C0B0FCF1CEA394EFCEF7
:10409000AA2019F08A2D90E002C08FEF9FEF0F90B9
:1040A000DF91CF911F910F91FF90EF90DF90CF9014
:1040B000BF90AF909F908F907F906F905F904F9048
:1040C0000895DB018F939F9333D0BF91AF91A29F4F
:1040D000800D911DA39F900DB29F900D1124089506
:1040E000A1E21A2EAA1BBB1BFD010DC0AA1FBB1FFC
:1040F000EE1FFF1FA217B307E407F50720F0A21B6E
:10410000B30BE40BF50B661F771F881F991F1A94DA
:1041100069F760957095809590959B01AC01BD0104
:10412000CF010895EE0FFF1F0590F491E02D099443
:1041300040D0A59F900DB49F900DA49F800D911D20
:10414000112408952F923F924F925F926F927F9227
:104150008F929F92AF92BF92CF92DF92EF92FF9297
:104160000F931F93CF93DF93CDB7DEB7CA1BDB0B43
:104170000FB6F894DEBF0FBECDBF09942A883988E8
:1041800048885F846E847D848C849B84AA84B984EF
:10419000C884DF80EE80FD800C811B81AA81B981FB
:1041A000CE0FD11D0FB6F894DEBF0FBECDBFED010F
:1041B0000895A29FB001B39FC001A39F700D811D00
:1041C0001124911DB29F700D811D1124911D089520
:1041D000CF93DF938230910510F482E090E0E0917C
:1041E000923AF091933A20E030E0A0E0B0E03097CE
:1041F00039F14081518148175907B8F048175907DC
:1042000071F482819381109729F013969C938E9379
:1042100012972CC09093933A8093923A27C021151D
:10422000310531F04217530718F0A901DB0101C035
:10423000EF019A01BD01DF010280F381E02DD7CFAC
:1042400021153105F9F0281B390B2430310580F494
:104250008A819B816115710521F0FB019383828323
:1042600004C09093933A8093923AFE01329644C0F0
:10427000FE01E20FF31F819391932250310939839C
:1042800028833AC02091903A3091913A232B41F4FF
:1042900020913E0130913F013093913A2093903A22
:1042A00020913C0130913D012115310541F42DB79C
:1042B0003EB74091400150914101241B350BE091E4
:1042C000903AF091913AE217F307A0F42E1B3F0BBE
:1042D0002817390778F0AC014E5F5F4F2417350778
:1042E00048F04E0F5F1F5093913A4093903A81935C
:1042F000919302C0E0E0F0E0CF01DF91CF9108950B
:10430000CF93DF93009709F487C0FC0132971382A3
:104310001282C091923AD091933A209781F42081F1
:104320003181280F391F8091903A9091913A8217EC
:10433000930779F5F093913AE093903A6DC0DE01DE
:1043400020E030E0AE17BF0750F412964D915C911B
:1043500013979D014115510509F1DA01F3CFB3839C
:10436000A28340815181840F951F8A179B0771F4A6
:104370008D919C911197840F951F02969183808354
:1043800012968D919C911397938382832115310509
:1043900029F4F093933AE093923A3EC0D9011396F0
:1043A000FC93EE9312974D915D91A40FB51FEA1700
:1043B000FB0779F480819181840F951F0296D901C2
:1043C00011969C938E938281938113969C938E93E6
:1043D0001297E0E0F0E08A819B81009719F0FE01DE
:1043E000EC01F9CFCE01029628813981820F931F0B
:1043F0002091903A3091913A2817390769F4309713
:1044000029F41092933A1092923A02C013821282C7
:10441000D093913AC093903ADF91CF91089528308C
:1044200008F027E03327DA01990F311D87FD9160ED
:1044300000966105710539F432602E5F3D9330E3DB
:104440002A95E1F708959F3F30F0803871056105A6
:1044500009F03C5F3C5F3D93913008F08068911D0E
:10446000DF93CF931F930F93FF92EF92192F987FB3
:104470009695E92F96959695E90FFF27EF55FE4FF4
:1044800099273327EE24FF24A701E701059008941C
:10449000079428F4360FE71EF81E491F511D660FBA
:1044A000771F881F991F0694A1F70590079428F499
:1044B000E70EF81E491F561FC11D770F881F991F51
:1044C000661F0694A1F70590079428F4F80E491F7B
:1044D000561FC71FD11D880F991F661F771F06948F
:1044E000A1F70590079420F4490F561FC71FD81F46
:1044F000990F661F771F881F0694A9F7849110955E
:10450000177041F0D695C79557954795F794E7945E
:104510001A95C1F7E7E4F1E068941590159135918B
:104520006591959105907FE27395E118F10A430B2F
:10453000560BC90BD009C0F7E10CF11E431F561FE3
:10454000C91FD01D7EF4703311F48A95E6CFE8942C
:10455000015030F0080F0AF40027021708F4202F4A
:104560002395022F7A3328F079E37D932A95E9F792
:1045700010C07D932A9589F606949795679537958F
:1045800017951794E118F10A430B560BC90BD00984
:1045900098F023957E9173957A3308F070E37C93BD
:1045A0002013B8F77E9170617D9330F0839571E3AD
:1045B0007D9370E32A95E1F71124EF90FF900F911E
:1045C0001F91CF91DF91992787FD909508959111C3
:1045D000DCC1803219F089508550D0F708959111CF
:1045E000089581548A5108F4805E855A0895FC012B
:1045F0000590061621F00020D9F7C00108953197E3
:10460000CF010895FC010590615070400110D8F76A
:10461000809590958E0F9F1F0895FC01615070400A
:1046200001900110D8F7809590958E0F9F1F0895E7
:104630000F931F93CF93DF93EC018B01009731F41D
:104640006115710519F480E090E037C06EE070E00C
:1046500081E090E080D1FC010097A9F380E883839A
:104660000115110571F01387028781E8838380911A
:10467000943A9091953A892B21F4F093953AE093EE
:10468000943A2097C9F0D187C08783818260838361
:104690008091963A9091973A892B71F4F093973ADA
:1046A000E093963A8091983A9091993A892B21F427
:1046B000F093993AE093983ACF01DF91CF911F910F
:1046C0000F910895CF93DF93EC012B8120FF33C02E
:1046D00026FF0AC02F7B2B838E819F8101969F83AB
:1046E0008E838A8190E029C022FF0FC0E881F98182
:1046F0008081992787FD9095009719F420622B837C
:104700001AC03196F983E8830EC0EA85FB850995C6
:1047100097FF09C02B81019611F480E101C080E26E
:10472000822B8B8308C02E813F812F5F3F4F3F83B9
:104730002E83992702C08FEF9FEFDF91CF910895CD
:104740000F931F93CF93DF93182F092FEB018B81CA
:1047500081FD03C08FEF9FEF20C082FF10C04E810C
:104760005F812C813D81421753077CF4E881F981F8
:104770009F012F5F3F4F39832883108306C0E88550
:10478000F985812F0995892B29F72E813F812F5F8C
:104790003F4F3F832E83812F902FDF91CF911F9129
:1047A0000F910895CF93DF93CDB7DEB7FE01359615
:1047B00061917191AF018091963A9091973A0E94E0
:1047C0003216DF91CF9108950F931F93CF93DF930C
:1047D000CDB7DEB72E970FB6F894DEBF0FBECDBFB4
:1047E0000D891E8986E08C831A8309838FEF9FE7EA
:1047F0009E838D83AE01475E5F4F6F89788DCE01BA
:1048000001960E943216EF81F885E00FF11F1082A9
:104810002E960FB6F894DEBF0FBECDBFDF91CF91BD
:104820001F910F910895CF93DF93CDB7DEB72E97E9
:104830000FB6F894DEBF0FBECDBF85E08C838B89A9
:104840009C899A838983AE01495E5F4F6D897E8919
:10485000CE010196F2DA2E960FB6F894DEBF0FBEA7
:10486000CDBFDF91CF910895FB01238120FF12C0BE
:1048700026FD10C08F3F3FEF930761F082832F7DAD
:104880002064238326813781215031093783268391
:10489000992708958FEF9FEF0895FA01AA272830EE
:1048A00051F1203181F1E8946F936E7F6E5F7F4FFD
:1048B0008F4F9F4FAF4FB1E03ED0B4E03CD0670F79
:1048C000781F891F9A1FA11D680F791F8A1F911DCC
:1048D000A11D6A0F711D811D911DA11D20D009F41C
:1048E00068943F912AE0269F11243019305D31935E
:1048F000DEF6CF010895462F4770405D4193B3E047
:104900000FD0C9F7F6CF462F4F70405D4A3318F0ED
:10491000495D31FD4052419302D0A9F7EACFB4E09E
:10492000A6959795879577956795BA95C9F7009756
:104930006105710508959B01AC010A2E06945795F7
:10494000479537952795BA95C9F7620F731F841F4E
:10495000951FA01D08950F931F93CF93DF93869FFC
:104960008001879F100D969F100D1124C80130DC27
:10497000EC01009721F0A80160E070E009D0CE01C1
:10498000DF91CF911F910F9108959927882708955E
:10499000DC0101C06D9341505040E0F70895F89458
:0249A000FFCF47
:1049A200C9080000803E0AD7233C00008040000076
:1049B200803F010102100000000000000000000022
:1049C20000000000000000000000010000000000E4
:1049D20000000000FFFFFFFFFFFFFFFF00009A3A09
:1049E2002000543A2530326C6400433A2530326C50
:1049F20064004C6F6767696E672053746172740D4F
:104A02000A004B703A25662C4B693A25662C4B649A
:104A12003A25660D0A0025366C642C25366C642C0A
:104A22002520336C642C25366C642C252E33662CA1
:104A3200252E33662C25336C640D0A005553422013
:104A420053657269616C20496E697469616C697A37
:104A520065640D0A000D4D656E753A207B4C565209
:104A62005350494454487D3C696E743E3A00256374
:104A7200202566000D0A30703A256320563A2564D7
:104A82000D0A004C6F6720656E61626C65640D0AE9
:104A920000456E636F64657220436F756E74733A7E
:104AA20020256C640D0A0043757272656E74206D68
:104AB2006F746F722073706565643A2025640D0A05
:104AC200004572726F723A20256C640D0A00546FB1
:104AD20072713A2025640D0A004B703A25202E355A
:104AE200662C204B693A25202E35662C204B643AE1
:104AF20025202E35660D0A00503A2520326C64209E
:104B0200493A2520342E326620442520342E32663E
:104B12000D0A004465736972656420563A25642063
:104B220043757272656E743A5625640D0A00466FBB
:104B3200726D756C6120503A25202E336620493AF9
:104B420025202E346620443A25202E326620543AFF
:104B520025202E31660D0A00506572696F643A2075
:104B620025660D0A00546172676574204C6F633AC2
:104B7200252030356C642043757272656E74204C4A
:104B82006F633A252030356C640D0A00436F6D6DFA
:104B9200616E6420646F6573206E6F7420636F6D45
:104BA200707574652E0D0A0050726F766964652007
:104BB200706F736974696F6E2874787878782920B9
:104BC2006F72207370656564287378782920636F2B
:084BD2006D6D616E640D0A00B7
:00000001FF
