:1000000020C100003CC100003AC1000038C100001E
:1000100036C1000034C1000032C100000C94240934
:100020002EC100002CC100002AC100000C9436171C
:1000300026C10000A6C4000022C1000020C10000AB
:100040001EC100001CC100001AC1000018C1000040
:100050000C94E6140C94DE1612C1000010C10000CE
:100060000EC100000CC100000AC1000008C1000060
:100070000C9410150C94061702C1000000C100007A
:10008000FEC00000FCC00000FAC00000CB0EEF0F65
:10009000EF0FEF0FEF0FD80EEF0FEF0F630BEF0F18
:1000A000EF0FEF0FBE0EEF0F220E9A0EE50E0C0FA4
:1000B0009A0BEF0FEF0F7E0FEF0FEF0FEF0FEF0F1A
:1000C000EF0FEF0FEF0FEF0FEF0FEF0FCB0EEF0F65
:1000D000EF0FEF0FEF0FD80EEF0FEF0F630BEF0FD8
:1000E000EF0FEF0FBE0EEF0F220E9A0EF20EEF0F74
:1000F0009A0B6E616E00696E66006364696E6F7064
:10010000737578585B65666745464700616E006E9B
:1001100066696E69747900CDCCCC3D0AD7233C1753
:10012000B7D13877CC2B329595E6241FB14F0A0012
:100130000020410000C84200401C4620BCBE4CCA02
:100140001B0E5AAEC59D7400407A10F35A00A0727F
:100150004E18090010A5D4E80000E8764817000002
:10016000E40B54020000CA9A3B000000E1F50500D0
:100170000080969800000040420F000000A0860119
:10018000000000102700000000E8030000000064E9
:1001900000000000000A0000000000010000000054
:1001A000002C76D888DC674F0823DFC1DFAE59E129
:1001B000B1B796E5E3E453C63AE651997696E8E698
:1001C000C28426EB898C9B62ED407C6FFCEFBC9C6B
:1001D0009F40F2BAA56FA5F490055A2AF75C936B7D
:1001E0006CF9676DC11BFCE0E40D47FEF520E6B538
:1001F00000D0ED902E0300943577050080841E0812
:100200000000204E0A000000C80C333333330F982F
:100210006E12831141EF8D2114893BE65516CFFEF6
:10022000E6DB18D1844B381BF77C1D901DA4BBE482
:1002300024203284725E228100C9F124ECA1E53DC4
:10024000270011241FBECFEFD0E4DEBFCDBF13E0E7
:10025000A0E0B1E0EEE0FDE400E00BBF02C00790DB
:100260000D92AA3BB107D9F72BE3AAEBB3E001C08B
:100270001D92A831B207E1F711D00C948526C0CEAB
:10028000A0E0B0E0E6E4F1E00C9468228091100177
:100290008F5F80931001E2E00C948422A4E4B0E02C
:1002A000E4E5F1E00C9458220E94C10A0E946C110E
:1002B0000E94DE12A0D70E94FA090E94BB09809119
:1002C000D6039091D7038130910541F08091D803F6
:1002D0009091D9038130910509F045C060E080E03C
:1002E0000E948D118091C8039091C903A091CA0307
:1002F000B091CB032B2F2F932A2F2F93292F2F939E
:100300008F9380E491E0892F8F9380E491E08F9325
:100310000E9488250F900F900F900F900F900F90D4
:1003200061E080E00E948D118091FD039091FE03B9
:10033000A091FF03B09100042B2F2F932A2F2F930E
:10034000292F2F938F9388E491E0892F8F9388E44E
:1003500091E08F930E9488250F900F900F900F903F
:100360000F900F9068C08091D4039091D503813095
:10037000910509F060C060E080E00E948D118091DD
:10038000D90B9091DA0BA091DB0BB091DC0B2B2FEA
:100390002F932A2F2F93292F2F938F9380E591E06E
:1003A000892F8F9380E591E08F930E9488250F908D
:1003B0000F900F900F900F900F9061E080E00E94DF
:1003C0008D118091C4039091C5039C01442737FD92
:1003D0004095542F8091D90B9091DA0BA091DB0BB3
:1003E000B091DC0B79018A01E81AF90A0A0B1B0BA0
:1003F000D801C7012091C4033091C5034B2F4F93FF
:100400004A2F4F93492F4F938F93832F8F93822F90
:100410008F9388E591E0892F8F9388E591E08F9302
:100420000E9488250DB71EB7085F1F4F0FB6F894BE
:10043000DEBF0FBECDBF0E94A8160E94FD0F8091A7
:10044000D2039091D303843F11E091070CF441C192
:10045000CE01059623E1E7E6F1E0DC0101900D9283
:100460002A95E1F782E190E09C838B832B813C818C
:10047000CE010596B9010E94AA0AE0900801F09009
:10048000090100910A0110910B01209104013091A2
:100490000501409106015091070180910001909162
:1004A0000101A0910201B0910301612F6F93602FB0
:1004B0006F936F2D6F936E2D6F93652F6F93642FD6
:1004C0006F93632F6F932F932B2F2F932A2F2F939D
:1004D000292F2F938F938AE791E0892F8F938AE7B3
:1004E00091E08F93CE010596292F2F938F930E9431
:1004F0009A252DB73EB7205F3F4F0FB6F894DEBF69
:100500000FBECDBF9C838B832B813C81CE01059692
:10051000B9010E94AA0A1A821982C3C089819A81EC
:10052000880F991F880F991F83559C4EFC01E0800E
:10053000F180028113812596ECAEFDAE0EAF1FAFA8
:10054000259789819A81880F991F880F991F835257
:10055000944FFC01208031804280538089819A81B0
:10056000880F991F880F991F8F5D944DFC01608043
:1005700071808280938089819A81880F991F880F6A
:10058000991F85509D4CFC01A080B180C280D38012
:1005900089819A81880F991F880F991F835B9C4DD1
:1005A000FC01E080F1800281138189819A81880FAA
:1005B000991F880F991F8358944EFC012081318127
:1005C0004281538189819A81880F991F880F991FD1
:1005D000875F9B4FFC0180819181A281B381259629
:1005E0006FAD25976F9324966FAD24976F932396E5
:1005F0006FAD23976F9322966FAD22976F93652D02
:100600006F93642D6F93632D6F93622D6F93692D9C
:100610006F93682D6F93672D6F93662D6F936D2D7C
:100620006F936C2D6F936B2D6F936A2D6F93612F6A
:100630006F93602F6F936F2D6F936E2D6F93652F58
:100640006F93642F6F93632F6F932F932B2F2F93A1
:100650002A2F2F93292F2F938F938EE891E0892FA4
:100660008F938EE891E08F93CE010596292F2F93DB
:100670008F930E949A250DB71EB7005E1F4F0FB6CD
:10068000F894DEBF0FBECDBF9C838B832B813C8152
:10069000CE010596B9015ED789819A8101969A8328
:1006A000898389819A81843F11E091070CF436CFC8
:1006B0001092D3031092D2031092CD031092CC0368
:1006C0001092CF031092CE031092D1031092D00358
:1006D000F6CDF5CDA8E0B0E0E0E7F3E00C946822B9
:1006E0008091C8039091C903A091CA03B091CB0334
:1006F0000696A11DB11D89839A83AB83BC8380912B
:10070000C8039091C903A091CA03B091CB03069787
:10071000A109B1098D839E83AF83B8872091FD0322
:100720003091FE034091FF035091000489819A812A
:10073000AB81BC8182179307A407B507D4F0209141
:10074000FD033091FE034091FF03509100048D8121
:100750009E81AF81B885281739074A075B074CF09F
:100760008091DA039091DB0301969093DB038093F1
:10077000DA032896E2E00C948422A0E0B0E0E3ECF7
:10078000F3E00C9468228091D8039091D9038130D2
:100790009105A9F58091DC039091DD030097D1F4D8
:1007A00081E090E09093DD038093DC038091FD0372
:1007B0009091FE03A091FF03B09100048E5C9D4FC9
:1007C000AF4FBF4F8093C8039093C903A093CA0350
:1007D000B093CB038091DA039091DB0382339105D0
:1007E00074F082E090E09093D9038093D803109244
:1007F000DD031092DC031092DB031092DA03809188
:10080000D8039091D90382309105A9F58091DC033A
:100810009091DD030097D1F481E090E09093DD03A7
:100820008093DC038091FD039091FE03A091FF0370
:10083000B0910004895C9840A109B1098093C80374
:100840009093C903A093CA03B093CB038091DA03BA
:100850009091DB038233910574F083E090E09093F4
:10086000D9038093D8031092DD031092DC03109219
:10087000DB031092DA038091D8039091D90383307F
:10088000910591F58091DC039091DD030097C9F407
:1008900081E090E09093DD038093DC038091FD0381
:1008A0009091FE03A091FF03B09100044F96A11D0B
:1008B000B11D8093C8039093C903A093CA03B0935A
:1008C000CB038091DA039091DB038233910564F0CE
:1008D0001092D9031092D8031092DD031092DC031A
:1008E0001092DB031092DA034BD3E2E00C948422E3
:1008F000A2E0B0E0EEE7F4E00C9468229A838983EA
:1009000089819A81992354F488E290E028E230E0CA
:10091000F90120812068FC01208309C088E290E071
:1009200028E230E0F90120812F77FC0120838981C2
:100930009A818130FFEF9F072CF481E09FEF9A832B
:1009400089830AC089819A818F3F910529F024F01B
:100950008FEF90E09A83898323EB30E089819A813D
:1009600099231CF4919581959109F90180838981DE
:100970009A819093C7038093C6032296E2E00C9479
:1009800084221F920F9200905F000F92112400901A
:100990005B000F92EF92FF920F931F932F933F9361
:1009A0004F935F936F937F938F939F93AF93BF9377
:1009B000EF93FF93CF93DF93CDB7DEB78091BE0364
:1009C0009091BF0301969093BF038093BE03209143
:1009D000FD033091FE034091FF035091000480918C
:1009E000BA039091BB03A091BC03B091BD03790100
:1009F0008A01E81AF90A0A0B1B0BD801C701809378
:100A0000D90B9093DA0BA093DB0BB093DC0B8091A6
:100A1000D6039091D7038130910511F4B1D211C062
:100A20008091D4039091D5038130910511F467D161
:100A300008C08091D8039091D903181619060CF4B8
:100A40009CDE8091F7329091F832A091F932B0910A
:100A5000FA328093C0039093C103A093C203B09372
:100A6000C3038091C6039091C70342DF8091D003F6
:100A70009091D1038130910509F016C18091CC038A
:100A80009091CD038130910541F08091CE039091FA
:100A9000CF038130910509F007C18091D203909175
:100AA000D303843F01E090070CF0FEC08091CC039B
:100AB0009091CD038130910579F52091D203309149
:100AC000D3038091C4039091C503AA2797FDA095F5
:100AD000BA2F220F331F220F331F275F3B4FF9011D
:100AE00080839183A283B3832091D2033091D30377
:100AF0008091D90B9091DA0BA091DB0BB091DC0BBC
:100B0000220F331F220F331F2358344EF9018083E5
:100B10009183A283B3832EC02091D2033091D3035B
:100B20008091C8039091C903A091CA03B091CB03EF
:100B3000220F331F220F331F275F3B4FF9018083A2
:100B40009183A283B3832091D2033091D303809108
:100B5000FD039091FE03A091FF03B0910004220FCA
:100B6000331F220F331F2358344EF90180839183A2
:100B7000A283B3832091D2033091D3038091C60323
:100B80009091C703AA2797FDA095BA2F220F331F74
:100B9000220F331F235B3C4DF90180839183A28395
:100BA000B3832091D2033091D3038091F732909197
:100BB000F832A091F932B091FA32220F331F220F8E
:100BC000331F25503D4CF90180839183A283B38369
:100BD0000091D2031091D3038091040190910501FB
:100BE000A0910601B09107012091F3323091F432C7
:100BF0004091F5325091F632BC01CD010E94441D66
:100C0000DC01CB019801220F331F220F331F2F5D10
:100C1000344DF90180839183A283B3830091D20381
:100C20001091D3038091080190910901A0910A01CC
:100C3000B0910B0120910104309102044091030412
:100C400050910404BC01CD010E94441DDC01CB0184
:100C50009801220F331F220F331F2352344FF90103
:100C600080839183A283B3832091D2033091D303F5
:100C70008091070490910804AA2797FDA095BA2FA8
:100C8000220F331F220F331F23553C4EF90180835F
:100C90009183A283B3838091D2039091D303019671
:100CA0009093D3038093D2038091FD039091FE0330
:100CB000A091FF03B09100048093BA039093BB030B
:100CC000A093BC03B093BD03DF91CF91FF91EF914F
:100CD000BF91AF919F918F917F916F915F914F9154
:100CE0003F912F911F910F91FF90EF900F900092E5
:100CF0005B000F9000925F000F901F901895A0E08E
:100D0000B0E0E5E8F6E00C9462228091C403909193
:100D1000C5039C01442737FD4095542F8091D90B82
:100D20009091DA0BA091DB0BB091DC0B79018A0179
:100D3000E81AF90A0A0B1B0BD801C7018093F73296
:100D40009093F832A093F932B093FA328091F7324F
:100D50009091F832A091F932B091FA32BC01CD01F4
:100D60000E94901CDC01CB0120910C0130910D01FF
:100D700040910E0150910F01BC01CD010E94441D14
:100D8000DC01CB012091F3323091F4324091F53205
:100D90005091F632BC01CD010E948D1BDC01CB01CC
:100DA0008093F3329093F432A093F532B093F632FD
:100DB0008091F3329091F432A091F532B091F632F5
:100DC00020E030E04AE754E4BC01CD010E94401D20
:100DD00018166CF480E090E0AAE7B4E48093F33254
:100DE0009093F432A093F532B093F6321EC0809106
:100DF000F3329091F432A091F532B091F63220E0C6
:100E000030E04AE754ECBC01CD010E94F11B88237D
:100E100064F480E090E0AAE7B4EC8093F33290931E
:100E2000F432A093F532B093F6322091F73230913C
:100E3000F8324091F9325091FA328091C00390918A
:100E4000C103A091C203B091C30379018A01E81ADA
:100E5000F90A0A0B1B0BD801C701BC01CD010E9486
:100E6000901CDC01CB0120910C0130910D014091CF
:100E70000E0150910F01BC01CD010E94F51BDC0158
:100E8000CB018093010490930204A0930304B093D8
:100E900004048091F7329091F832A091F932B09128
:100EA000FA32BC01CD010E94901CDC01CB012091E3
:100EB0000001309101014091020150910301BC01F8
:100EC000CD010E94441DDC01CB016C017D018091AC
:100ED000040190910501A0910601B09107012091B4
:100EE000F3323091F4324091F5325091F632BC0138
:100EF000CD010E94441DDC01CB019C01AD01C70165
:100F0000B6010E948D1BDC01CB016C017D0180913B
:100F1000080190910901A0910A01B0910B01209163
:100F20000104309102044091030450910404BC0177
:100F3000CD010E94441DDC01CB019C01AD01C70124
:100F4000B6010E948D1BDC01CB01BC01CD010E94CA
:100F50005D1CDC01CB019093080480930704209171
:100F6000C6033091C7038091070490910804820F53
:100F7000931F9093C7038093C603E8E00C947E22EE
:100F8000A0E0B0E0E6ECF7E00C9462222091C80308
:100F90003091C9034091CA035091CB038091FD0366
:100FA0009091FE03A091FF03B091000479018A01A2
:100FB000E81AF90A0A0B1B0BD801C7018093F73214
:100FC0009093F832A093F932B093FA328091F732CD
:100FD0009091F832A091F932B091FA32BC01CD0172
:100FE0000E94901CDC01CB0120910C0130910D017D
:100FF00040910E0150910F01BC01CD010E94441D92
:10100000DC01CB012091F3323091F4324091F53282
:101010005091F632BC01CD010E948D1BDC01CB0149
:101020008093F3329093F432A093F532B093F6327A
:101030008091F3329091F432A091F532B091F63272
:1010400020E030E04AE754E4BC01CD010E94401D9D
:1010500018166CF480E090E0AAE7B4E48093F332D1
:101060009093F432A093F532B093F6321EC0809183
:10107000F3329091F432A091F532B091F63220E043
:1010800030E04AE754ECBC01CD010E94F11B8823FB
:1010900064F480E090E0AAE7B4EC8093F33290939C
:1010A000F432A093F532B093F6322091F7323091BA
:1010B000F8324091F9325091FA328091C003909108
:1010C000C103A091C203B091C30379018A01E81A58
:1010D000F90A0A0B1B0BD801C701BC01CD010E9404
:1010E000901CDC01CB0120910C0130910D0140914D
:1010F0000E0150910F01BC01CD010E94F51BDC01D6
:10110000CB018093010490930204A0930304B09355
:1011100004048091F7329091F832A091F932B091A5
:10112000FA32BC01CD010E94901CDC01CB01209160
:101130000001309101014091020150910301BC0175
:10114000CD010E94441DDC01CB016C017D01809129
:10115000040190910501A0910601B0910701209131
:10116000F3323091F4324091F5325091F632BC01B5
:10117000CD010E94441DDC01CB019C01AD01C701E2
:10118000B6010E948D1BDC01CB016C017D018091B9
:10119000080190910901A0910A01B0910B012091E1
:1011A0000104309102044091030450910404BC01F5
:1011B000CD010E94441DDC01CB019C01AD01C701A2
:1011C000B6010E948D1BDC01CB01BC01CD010E9448
:1011D0005D1CDC01CB01909308048093070480918F
:1011E0000704909108049093C7038093C60372DAB2
:1011F000E8E00C947E22A0E0B0E0E1E0F9E00C949D
:1012000068228AE290E02AE230E0F9012081206839
:10121000FC01208387E290E027E230E0F9012081A1
:101220002068FC01208380EB90E023E8FC01208310
:1012300081EB90E022E0FC01208383EB90E0FC0155
:101240001082E2E00C9484221F920F9200905F00C3
:101250000F92112400905B000F922F933F938F9376
:101260009F93AF93BF93EF93FF93CF93DF9300D000
:1012700000D0CDB7DEB789E290E0FC018081882FF5
:1012800090E08470992721E0181619060CF020E0F0
:10129000822F90E09A83898389E290E0FC0180812B
:1012A000882F90E08870992721E0181619060CF015
:1012B00020E0822F90E09C838B8380911F2B909164
:1012C000202B9C0189819A8128173907A1F48091EC
:1012D000FD039091FE03A091FF03B09100040196DD
:1012E000A11DB11D8093FD039093FE03A093FF0306
:1012F000B09300041DC08091F1329091F2329C01B4
:101300008B819C812817390799F48091FD03909176
:10131000FE03A091FF03B09100040197A109B10958
:101320008093FD039093FE03A093FF03B09300040A
:1013300089819A819093F2328093F1328B819C81E2
:101340009093202B80931F2B0F900F900F900F9056
:10135000DF91CF91FF91EF91BF91AF919F918F91CD
:101360003F912F910F9000925B000F9000925F00D1
:101370000F901F901895A0E0B0E0E1ECF9E00C941C
:10138000682283E790E02FE0FC01208388E690E06C
:101390002FEFFC0120838BE390E02FEFFC012083F3
:1013A00089E290E0FC018081882F90E08470992789
:1013B00021E0181619060CF020E0822F90E090939F
:1013C000F2328093F13289E290E0FC018081882F33
:1013D00090E08870992721E0181619060CF020E09B
:1013E000822F90E09093202B80931F2B7894E2E043
:1013F0000C948422A0E0B0E0E0E0FAE00C946822D3
:1014000080E890E020E8FC01208381E890E02AE079
:10141000FC01208388E890E028EA31E6FC01318372
:1014200020838FE690E022E0FC012083E2E00C9430
:101430008422A0E0B0E0EFE1FAE00C946822109280
:10144000F3321092F4321092F5321092F63210927A
:10145000F7321092F8321092F9321092FA3210925A
:1014600001041092020410920304109204041092DA
:10147000C0031092C1031092C2031092C303E2E0B2
:101480000C948422A0E0B0E0E8E4FAE00C94682236
:1014900080E090E0A0E8BEE380930001909301011A
:1014A000A0930201B093030188E490E5ACEFBBE3A5
:1014B0008093040190930501A0930601B093070166
:1014C00086E696E6A6E4B0E48093080190930901CD
:1014D000A0930A01B0930B01E2E00C948422A0E0F7
:1014E000B0E0E5E7FAE00C9468228DEC9CECACEC03
:1014F000BEE38093000190930101A0930201B09399
:1015000003018DEC9CECACE4BDE38093040190936B
:101510000501A0930601B093070180E090E0A0E0F0
:10152000B0E48093080190930901A0930A01B0935D
:101530000B01E2E00C948422A0E0B0E0E2EAFAE0E1
:101540000C946822809111018F5F80931101E2E079
:101550000C948422A4E0B0E0E0EBFAE00C94682262
:101560009A8389837C836B832B8189819A81422F23
:10157000BC0182E00E94DC16A1D52496E2E00C9426
:101580008422A2E2B0E0E7ECFAE00C94682240E8A2
:1015900055E260E070E082E00E94FA1540E26DECF6
:1015A0007AE382E00E94E414CE01039629E1E4EBA1
:1015B000F1E0DC0101900D922A95E1F788E190E0DD
:1015C0009A83898329813A81CE010396B901C2DFCA
:1015D00068E170E08DEC91E0BDDFA296E2E00C9452
:1015E0008422AFE3B0E0E7EFFAE00C945E229FAF15
:1015F0008EAFCE01CA96292F2F938F93CE01C99615
:10160000292F2F938F9386EE91E0892F8F9386EE6B
:1016100091E08F938FAD8F938EAD8F930E94C925EC
:101620002DB73EB7285F3F4F0FB6F894DEBF0FBE11
:10163000CDBF9A8389838AAD9BADACADBDAD29ADDD
:10164000332727FD30954B2F4F934A2F4F93492F28
:101650004F938F93832F8F93822F8F938CEE91E0F4
:10166000892F8F938CEE91E08F93CE010996292FCD
:101670002F938F930E949A25EDB7FEB73A960FB637
:10168000F894DEBF0FBECDBF9C838B832B813C8142
:10169000CE010996B9015EDF89AD992787FD909546
:1016A000AA2797FDA095BA2F44E450E022E330E04A
:1016B000841B950B2817390708F491C48A5B9F4F48
:1016C000FC010C944822CE0109962EE0EBEFF1E0EC
:1016D000DC0101900D922A95E1F78DE090E09C836A
:1016E0008B832B813C81CE010996B90133DFCE017A
:1016F000099624E3E9E0F2E0DC0101900D922A95DD
:10170000E1F783E390E09C838B832B813C81CE01C6
:101710000996B9011FDF1092CD031092CC031092ED
:10172000CF031092CE0381E090E09093D103809399
:10173000D0035AC48091FD039091FE03A091FF0352
:10174000B09100042B2F2F932A2F2F93292F2F9303
:101750008F938DE392E0892F8F938DE392E08F93A7
:10176000CE010996292F2F938F930E949A252DB78A
:101770003EB7285F3F4F0FB6F894DEBF0FBECDBF18
:101780009C838B832B813C81CE010996B901E2DEDB
:101790008091C6039091C703292F2F938F9383E5E0
:1017A00092E0892F8F9383E592E08F93CE01099683
:1017B000292F2F938F930E949A250F900F900F90AF
:1017C0000F900F900F909C838B832B813C81CE01D7
:1017D0000996B901BFDE8091F7329091F832A0915D
:1017E000F932B091FA322B2F2F932A2F2F93292FD2
:1017F0002F938F938DE692E0892F8F938DE692E061
:101800008F93CE010996292F2F938F930E949A25AB
:10181000EDB7FEB738960FB6F894DEBF0FBECDBF5A
:101820009C838B832B813C81CE010996B90192DE8A
:101830008091070490910804292F2F938F938AE7B2
:1018400092E0892F8F938AE792E08F93CE010996D9
:10185000292F2F938F930E949A250F900F900F900E
:101860000F900F900F909C838B832B813C81CE0136
:101870000996B9016FDEE0900801F090090100912E
:101880000A0110910B012091040130910501409152
:101890000601509107018091000190910101A091F2
:1018A0000201B0910301612F6F93602F6F936F2D31
:1018B0006F936E2D6F93652F6F93642F6F93632FCC
:1018C0006F932F932B2F2F932A2F2F93292F2F9303
:1018D0008F9385E892E0892F8F9385E892E08F932C
:1018E000CE010996292F2F938F930E949A252DB709
:1018F0003EB7205F3F4F0FB6F894DEBF0FBECDBF9F
:101900009C838B832B813C81CE010996B90122DE19
:10191000E0900104F090020400910304109104048B
:101920002091F3323091F4324091F5325091F632F9
:101930008091F7329091F832A091F932B091FA3259
:10194000612F6F93602F6F936F2D6F936E2D6F9339
:10195000652F6F93642F6F93632F6F932F932B2FAC
:101960002F932A2F2F93292F2F938F9384EA92E07E
:10197000892F8F9384EA92E08F93CE010996292FC5
:101980002F938F930E949A25EDB7FEB770960FB6EE
:10199000F894DEBF0FBECDBF9C838B832B813C812F
:1019A000CE010996B901D6DD8091D90B9091DA0B61
:1019B000A091DB0BB091DC0B2091C4033091C503E7
:1019C0004B2F4F934A2F4F93492F4F938F93832F32
:1019D0008F93822F8F938FEB92E0892F8F938FEBD2
:1019E00092E08F93CE010996292F2F938F930E9417
:1019F0009A252DB73EB7265F3F4F0FB6F894DEBF4E
:101A00000FBECDBF9C838B832B813C81CE01099679
:101A1000B901A0DD8091F7329091F832A091F932AE
:101A2000B091FA32BC01CD010E94901CDC01CB01C7
:101A30002091000130910101409102015091030178
:101A4000BC01CD010E94441DDC01CB016C017D0174
:101A50008091040190910501A0910601B0910701C8
:101A60002091F3323091F4324091F5325091F632B8
:101A7000BC01CD010E94441DDC01CB019C01AD01E4
:101A8000C701B6010E948D1BDC01CB016C017D01F9
:101A90008091080190910901A0910A01B0910B0178
:101AA00020910104309102044091030450910404F8
:101AB000BC01CD010E94441DDC01CB019C01AD01A4
:101AC000C701B6010E948D1BDC01CB018D839E8373
:101AD000AF83B8878091080190910901A0910A0114
:101AE000B0910B0120910104309102044091030454
:101AF00050910404BC01CD010E94441DDC01CB01C6
:101B00004C015D018091040190910501A0910601B5
:101B1000B09107012091F3323091F4324091F532C7
:101B20005091F632BC01CD010E94441DDC01CB0175
:101B30006C017D018091F7329091F832A091F932D9
:101B4000B091FA32BC01CD010E94901CDC01CB01A6
:101B50002091000130910101409102015091030157
:101B6000BC01CD010E94441DDC01CB0128852F93CF
:101B70002F812F932E812F932D812F932B2D2F93F8
:101B80002A2D2F93292D2F93282D2F932F2D2F93EF
:101B90002E2D2F932D2D2F932C2D2F932B2F2F93D5
:101BA0002A2F2F93292F2F938F938BED92E0892F3C
:101BB0008F938BED92E08F93CE010996292F2F936F
:101BC0008F930E949A25EDB7FEB774960FB6F894DE
:101BD000DEBF0FBECDBF9C838B832B813C81CE01AA
:101BE0000996B901B7DC80910C0190910D01A0918B
:101BF0000E01B0910F012B2F2F932A2F2F93292FF6
:101C00002F938F9385E093E0892F8F9385E093E066
:101C10008F93CE010996292F2F938F930E949A2597
:101C20002DB73EB7285F3F4F0FB6F894DEBF0FBE0B
:101C3000CDBF9C838B832B813C81CE010996B9015A
:101C400089DCD2C18091FD039091FE03A091FF0336
:101C5000B0910004BC01CD010E94901CDC01CB01BD
:101C60002AAD3BAD4CAD5DADBC01CD010E948D1BDD
:101C7000DC01CB01BC01CD010E945D1CDC01CB016C
:101C80008093C8039093C903A093CA03B093CB0376
:101C90002091FD033091FE034091FF035091000419
:101CA0008091C8039091C903A091CA03B091CB035E
:101CB000652F6F93642F6F93632F6F932F932B2F49
:101CC0002F932A2F2F93292F2F938F9382E193E025
:101CD000892F8F9382E193E08F93CE010996292F6C
:101CE0002F938F930E949A25EDB7FEB73C960FB6BF
:101CF000F894DEBF0FBECDBF9C838B832B813C81CC
:101D0000CE010996B90126DC94DB81E090E0909346
:101D1000D7038093D6031092D5031092D403109268
:101D2000D9031092D80381E090E09093CF03809381
:101D3000CE035AC17EDB81E090E09093CD03809387
:101D4000CC0381E090E09093D5038093D40310926C
:101D5000D7031092D6031092D9031092D8038AADFC
:101D60009BADACADBDADBC01CD010E945D1CDC01E5
:101D7000CB019093C5038093C40336C18AAD9BAD5C
:101D8000ACADBDAD8093000190930101A093020121
:101D9000B093030129C18AAD9BADACADBDAD8093BD
:101DA000080190930901A0930A01B0930B011CC193
:101DB0008AAD9BADACADBDAD8093040190930501A0
:101DC000A0930601B09307010FC18AAD9BADACADE6
:101DD000BDAD80930C0190930D01A0930E01B093C3
:101DE0000F0102C126DB1092D7031092D603109286
:101DF000D5031092D40381E090E09093CF038093B9
:101E0000CE031092CD031092CC0381E090E090932A
:101E1000D9038093D803E8C080E090E0A0E8BEE357
:101E20008093000190930101A0930201B0930301FC
:101E300088E490E5ACEFBBE3809304019093050147
:101E4000A0930601B093070186E696E6A6E4B0E407
:101E50008093080190930901A0930A01B0930B01AC
:101E6000E0900801F090090100910A0110910B0126
:101E70002091040130910501409106015091070124
:101E80008091000190910101A0910201B0910301A4
:101E9000612F6F93602F6F936F2D6F936E2D6F93E4
:101EA000652F6F93642F6F93632F6F932F932B2F57
:101EB0002F932A2F2F93292F2F938F9389E393E02A
:101EC000892F8F9389E393E08F93CE010996292F71
:101ED0002F938F930E949A252DB73EB7205F3F4FD7
:101EE0000FB6F894DEBF0FBECDBF9C838B832B81D2
:101EF0003C81CE010996B9012DDB76C08DEC9CECBE
:101F0000ACECBEE38093000190930101A093020129
:101F1000B09303018DEC9CECACE4BDE38093040131
:101F200090930501A0930601B093070180E090E033
:101F3000A0E0B0E48093080190930901A0930A0106
:101F4000B0930B01E0900801F090090100910A01A3
:101F500010910B012091040130910501409106017F
:101F6000509107018091000190910101A09102011F
:101F7000B0910301612F6F93602F6F936F2D6F935B
:101F80006E2D6F93652F6F93642F6F93632F6F93F5
:101F90002F932B2F2F932A2F2F93292F2F938F930C
:101FA0008DE693E0892F8F938DE693E08F93CE019A
:101FB0000996292F2F938F930E949A25EDB7FEB78C
:101FC00070960FB6F894DEBF0FBECDBF9C838B8397
:101FD0002B813C81CE010996B901BCDA05C06BE1C9
:101FE00070E08EE993E0B6DA68E170E08DEC91E0A4
:101FF000B1DAEF96ECE00C947A22A0E2B0E0E3E0F4
:10200000F0E10C94682228C08091DE039091DF03F8
:102010002091ED3A222F30E02353354CF9014081D5
:102020009E012F5F3F4F820F931FFC0140838091E1
:10203000DE039091DF0301969093DF038093DE032C
:102040008091ED3A8F3119F41092ED3A05C08091EC
:10205000ED3A8F5F8093ED3A82E0B2D2982F809173
:10206000ED3A981789F68091DE039091DF0300978F
:1020700009F18091DE039091DF038130910541F4F5
:1020800089818A3029F41092DF031092DE0312C096
:102090008091DE039091DF039E012F5F3F4F820FFF
:1020A000931FFC011082CE0101969BDA1092DF0390
:1020B0001092DE03A096E2E00C948422A0E0B0E04F
:1020C000E4E6F0E10C94682201C042D682E088D2B6
:1020D0008823D9F3E2E00C94842280E090E0089514
:1020E00081E090E06F9364E06A95F1F76F9101975A
:1020F000C9F708950F931F93CF93DF9317B13D98BE
:102100002898299AC0E0D0E0EBDF2A9AE9DF06B1EF
:102110002A98E6DF2A9AE4DF2A98249605FF10C061
:102120009E0140E050E08091E4039091E503A0918E
:10213000E603B091E703281739074A075B0720F346
:102140009E0140E050E08091E4039091E503A0916E
:10215000E603B091E703281739074A075B0728F021
:1021600082E390E0A0E0B0E004C080E395E7A0E067
:10217000B0E08093E4039093E503A093E603B0936B
:10218000E70317B9DF91CF911F910F91089528B1FF
:1021900090E08F709070880F991F880F991F237C93
:1021A000282B28B92A9A9CDF2A989ACFA2E0B0E07F
:1021B000ECEDF0E10C946522182F4A83698358D026
:1021C00099DFF7B008B1299869814A81662311F037
:1021D000289A01C0289887B18C6387B9413021F0D3
:1021E000812F82958F70D3DF812F8F70D0DFF7B86A
:1021F00008B92296E5E00C94812260E042E0D6CF57
:1022000061E042E0D3CF60E041E0D0CF3D98459A15
:1022100080E395E7A0E0B0E08093E4039093E503CA
:10222000A093E603B093E703209A219A229A8EE1C5
:1022300090E063D683E0E7DF86E090E05ED683E05F
:10224000E2DF82E090E059D683E0DDDF82E090E0DB
:1022500054D682E0D8DF82E090E04FD688E2CDDF2E
:1022600088E0CBDF81E0C9DF86E0C7DF8CE0C5CF47
:102270008091E803882321F481E08093E803C6CFAE
:10228000089581E0BADF8091E0039091E103009727
:1022900011F1A0E0B0E208C0E091E003F091E103A9
:1022A000E20FF31FB083AF5F2A2F30E0809112015D
:1022B00090E001976091130170E0869FA001879FD5
:1022C000500D969F500D1124241735072CF31092B2
:1022D000E3031092E2030895D4CF0895A5E0B0E09F
:1022E000E4E7F1E10C946722182F80E8898380EC01
:1022F0008A8384E98B8384ED8C83FE01E60FF11DD4
:102300008181810F6D8379DF1093E3036D81609389
:10231000E2032596E3E00C948322E0CF0895A0E049
:10232000B0E0E5E9F1E10C946222D82E8091E0035F
:102330009091E103009709F4F2C02D2D2A3009F4A1
:1023400042C02830C9F48091E30381508093E303B5
:102350008F3F51F48091E20381508093E20380919A
:10236000130181508093E3038091E2038F3F09F0D2
:10237000D1C01092E203CCC08D2D42DF8091E203E8
:102380008823B9F090E001974091130150E0849FB9
:102390009001859F300D949F300D11248091E303AF
:1023A000E091E003F091E103E20FF31FE80FF11D6C
:1023B000D0828091E3038F5F8093E30390911301B8
:1023C000891709F0ACC04091E203242F30E08091DE
:1023D000120190E001972817390709F096C0C0E074
:1023E000D0E03FC080E06C2F79DFCC248E010F5FFE
:1023F0001F4F32C0EC2CFF2430E0C29FC001C39FAE
:10240000900DD29F900D1124E091E003F091E10333
:10241000EE0DFF1DE80FF91F8081F2DE8091E003D1
:102420009091E1032091130130E0C29FF001C39F1E
:10243000F00DD29FF00D11248E0D9F1DE80FF91F96
:10244000029FD001039FB00D129FB00D1124A80F61
:10245000B91F8C918083C39420911301C21650F24E
:10246000E80160911201862F90E00297C817D90702
:102470000CF4B8CF6230D0F1625080E02FDF00E082
:1024800010E230C0C02FD0E08091120190E002979E
:1024900050E0849F9001859F300D949F300D112452
:1024A000E091E003F091E103EC0FFD1FE20FF31F59
:1024B0008081A6DE8091120190E002974091130185
:1024C00050E0849F9001859F300D949F300D112422
:1024D000E091E003F091E103EC0FFD1FE20FF31F29
:1024E00010830F5F40911301041760F26091120195
:1024F000615080E0F3DE10E003C080E281DE1F5F08
:10250000809113011817C8F303C04F5F4093E20393
:102510001092E3038091E3036091E203DFDE2D2D4F
:10252000332727FD3095C901CDB7DEB7E8E00C941D
:102530007E228091E0039091E103009711F00E94C8
:1025400036232091120130E0215030408091130158
:1025500090E0AC01249FC001259F900D349F900D09
:1025600011240E949E229093E1038093E003009740
:1025700021F1A0E0B0E208C0E091E003F091E103B6
:10258000E20FF31FB083AF5F2A2F30E0809112017A
:1025900090E001976091130170E0869FA001879FF2
:1025A000500D969F500D1124241735072CF38FE8FA
:1025B00091E16DE670E10C94CE240895BACF0895B0
:1025C000282F30E0F901EE0FFF1F43E0220F331FE9
:1025D0004A95E1F7E20FF31FEC5EFE4F828108950A
:1025E000282F30E0F901EE0FFF1F73E0220F331F99
:1025F0007A95E1F7E20FF31FEC5EFE4F4181282F41
:1026000030E0F901EE0FFF1F53E0220F331F5A9500
:10261000E1F7E20FF31FEC5EFE4F81E09381491377
:1026200080E00895282F30E0F901EE0FFF1FB3E09E
:10263000220F331FBA95E1F7E20FF31FEC5EFE4F56
:10264000408551854115510509F452C0282F30E0CD
:10265000F901EE0FFF1F73E0220F331F7A95E1F7A8
:10266000E20FF31FEC5EFE4F7281282F30E0F9017C
:10267000EE0FFF1FB3E0220F331FBA95E1F7E20F11
:10268000F31FEC5EFE4F9481791790F5282F30E010
:10269000F901EE0FFF1F73E0220F331F7A95E1F768
:1026A000E20FF31FEC5EFE4F9281490F511DFA01BC
:1026B0006083282F30E0F901EE0FFF1F53E0220F57
:1026C000331F5A95E1F7E20FF31FEC5EFE4F928144
:1026D0009F5F282F30E0F901EE0FFF1FB3E0220FBC
:1026E000331FBA95E1F7E20FF31FEC5EFE4F9283C2
:1026F000282F30E0F901EE0FFF1F73E0220F331F88
:102700007A95E1F7E20FF31FEC5EFE4F4281282F2E
:1027100030E0F901EE0FFF1F53E0220F331F5A95EF
:10272000E1F7E20FF31FEC5EFE4F9481491701F5CC
:10273000282F30E0F901EE0FFF1F93E0220F331F27
:102740009A95E1F7E20FF31FEC5EFE4F9581992316
:1027500079F0282F30E0F901EE0FFF1FB3E0220FD0
:10276000331FBA95E1F7E20FF31FEC5EFE4F1282C2
:1027700008950F931F93182F823009F474C0882393
:1027800019F4E1ECF0E002C0E9ECF0E080818F7731
:102790008083812F90E0FC01EE0FFF1F03E0880F84
:1027A000991F0A95E1F7E80FF91FEC5EFE4F80854F
:1027B00091850097A1F1212F30E0F901EE0FFF1F65
:1027C000A3E0220F331FAA95E1F7E20FF31FEC5E9F
:1027D000FE4F9281212F30E0F901EE0FFF1F63E0E1
:1027E000220F331F6A95E1F7E20FF31FEC5EFE4FF5
:1027F00084819817A0F4112319F4E0ECF0E002C0F2
:10280000E8ECF0E0808187FF0AC0112319F4E6ECC0
:10281000F0E002C0EEECF0E06081812F03DF212FB9
:1028200030E0F901EE0FFF1F43E0220F331F4A95FE
:10283000E1F7E20FF31FEC5EFE4F8081882309F081
:1028400057C0112319F4E1ECF0E002C0E9ECF0E02C
:102850008081806880834CC080912D01882319F08D
:1028600010922A0145C0809130019091310100976A
:1028700009F43EC090912A0180912C019817C0F56F
:102880008091E903882399F43DD38093E90310E014
:102890000AC035D3E02FF0E03197E11BF109E65192
:1028A000FC4F80831F5F0091E903101790F3A09104
:1028B000E903AA23E9F080912A01E0913001F09127
:1028C0003101E80FF11DA150A093E903B0E0A6513A
:1028D000BC4F8C91808380912A018F5F80932A0165
:1028E00090912A0180912C01981709F0BCCFB4CFA8
:1028F0001F910F910895823051F0882319F4E1EC73
:10290000F0E002C0E9ECF0E090819F779083A82F7F
:10291000B0E0FD01EE0FFF1F53E0AA0FBB1F5A9559
:10292000E1F7EA0FFB1FEC5EFE4F71876087682FAF
:1029300070E0FB01EE0FFF1F93E0660F771F9A9583
:10294000E1F7E60FF71FEC5EFE4F1282682F70E092
:10295000FB01EE0FFF1FA3E0660F771FAA95E1F7BB
:10296000E60FF71FEC5EFE4F4483482F50E0FA015C
:10297000EE0FFF1F63E0440F551F6A95E1F7E40F68
:10298000F51FEC5EFE4F25838230D9F0282F30E012
:10299000F901EE0FFF1F43E0220F331F4A95E1F7C5
:1029A000E20FF31FEC5EFE4F9081992351F48823D0
:1029B00019F4E1ECF0E002C0E9ECF0E0808180681D
:1029C0008083089521E097CFFDCF08951F920F9245
:1029D0000FB60F920BB60F9211242F933F934F9384
:1029E0005F936F937F938F939F93AF93BF93EF9377
:1029F000FF936091C60080E015DEFF91EF91BF91DB
:102A0000AF919F918F917F916F915F914F913F9186
:102A10002F910F900BBE0F900FBE0F901F90189527
:102A20001F920F920FB60F920BB60F9211242F9395
:102A30003F934F935F936F937F938F939F93AF9346
:102A4000BF93EF93FF936091CE0081E0EBDDFF91A8
:102A5000EF91BF91AF919F918F917F916F915F9116
:102A60004F913F912F910F900BBE0F900FBE0F9083
:102A70001F901895882319F4E1ECF0E002C0E9EC0E
:102A8000F0E08081806280830895882319F4E1EC6E
:102A9000F0E002C0E9ECF0E080818F7D8083089552
:102AA000282F30E0F901EE0FFF1F93E0220F331FB4
:102AB0009A95E1F7E20FF31FEC5EFE4F2681378116
:102AC0002115310591F1282F30E0F901EE0FFF1F9C
:102AD000A3E0220F331FAA95E1F7E20FF31FEC5E8C
:102AE000FE4F4181282F30E0F901EE0FFF1F63E018
:102AF000220F331F6A95E1F7E20FF31FEC5EFE4FE2
:102B00009381491790F4282F30E0F901EE0FFF1F51
:102B100043E0220F331F4A95E1F7E20FF31FEC5E0B
:102B2000FE4F9081992309F4A5CFAFCF823029F1D0
:102B3000282F30E0F901EE0FFF1F53E0220F331F63
:102B40005A95E1F7E20FF31FEC5EFE4F9081992357
:102B500049F4882319F4E1ECF0E002C0E9ECF0E07C
:102B600098E908C0882319F4E1ECF0E002C0E9EC30
:102B7000F0E098E1908394DF78940895882319F029
:102B8000813029F402C080E0D1CF81E0CFCF089519
:102B9000A0E0B0E0EEECF5E10C946322D82E7A01CF
:102BA0008B01ECDF8D2D823001F1DD2019F4C4ECB6
:102BB000D0E002C0CCECD0E0C801B70128EF3FEF75
:102BC0004FEF5FEF0E9417226050734D8E4C9E4F67
:102BD000A8019701E4E0220F331F441F551FEA9517
:102BE000D1F70E94262239832883CDB7DEB7E7E0EC
:102BF0000C947F22CDCF0895282F30E0F901EE0FFD
:102C0000FF1F73E0220F331F7A95E1F7E20FF31FE6
:102C1000EC5EFE4F468157814115510509F465C0B0
:102C2000282F30E0F901EE0FFF1F93E0220F331F32
:102C30009A95E1F7E20FF31FEC5EFE4F6181282FBA
:102C400030E0F901EE0FFF1FA3E0220F331FAA951A
:102C5000E1F7E20FF31FEC5EFE4F9381691708F076
:102C600044C0882319F4E0ECF0E002C0E8ECF0E0A6
:102C7000908195FF3AC0882319F4A6ECB0E002C019
:102C8000AEECB0E0282F30E0F901EE0FFF1F63E05B
:102C9000220F331F6A95E1F7E20FF31FEC5EFE4F40
:102CA0009181490F511DFA0190819C93282F30E0AA
:102CB000F901EE0FFF1F93E0220F331F9A95E1F702
:102CC000E20FF31FEC5EFE4F91819F5F282F30E0F3
:102CD000F901EE0FFF1FA3E0220F331FAA95E1F7C2
:102CE000E20FF31FEC5EFE4F9183DACE1F93182F95
:102CF000823021F0CADE812F7FDF1CC080912E013F
:102D000090912F010097B1F03091290120912B0172
:102D1000321780F406C0809129018F5F80932901CA
:102D2000EDCF20912901820F911DFC018081EED011
:102D3000882389F71F91089580E0D8DF81E0D6DFEE
:102D400082E0D4DF80E015DD81E013DD82E011CD8B
:102D5000F3CF0895282F30E0F901EE0FFF1F93E025
:102D6000220F331F9A95E1F7E20FF31FEC5EFE4F3F
:102D700077836683282F30E0F901EE0FFF1FA3E071
:102D8000220F331FAA95E1F7E20FF31FEC5EFE4F0F
:102D90001182282F30E0F901EE0FFF1F63E0220FB0
:102DA000331F6A95E1F7E20FF31FEC5EFE4F43839A
:102DB000823009F075CE0895CDCF08951F920F92FD
:102DC0000FB60F920BB60F9211242F933F934F9390
:102DD0005F936F937F938F939F93AF93BF93EF9383
:102DE000FF9380E009DFFF91EF91BF91AF919F9139
:102DF0008F917F916F915F914F913F912F910F90A4
:102E00000BBE0F900FBE0F901F9018951F920F9240
:102E10000FB60F920BB60F9211242F933F934F933F
:102E20005F936F937F938F939F93AF93BF93EF9332
:102E3000FF9381E0E1DEFF91EF91BF91AF919F9110
:102E40008F917F916F915F914F913F912F910F9053
:102E50000BBE0F900FBE0F901F9018956F9364E0FC
:102E60006A95F1F76F910197C9F708952F928F93A3
:102E70009F932FB68091F3039091F4030196809372
:102E8000F3039093F40390E08091F503891F8093FE
:102E9000F5039091FB039C5F9093FB038091FA03F1
:102EA00080519742C0F09093FB038093FA03809186
:102EB000F6039091F70301968093F6039093F7033E
:102EC00090E08091F803891F8093F8038091F903C3
:102ED000891F8093F9032FBE9F918F912F90189592
:102EE000CF93DF93EC0104C088EE93E0B7DF219726
:102EF0002097D1F7DF91CF910895F2CF08958FEF0A
:102F000064E043C083E867E040D0F9CF1F93182FF7
:102F1000982F9095991F9927991F85E8891B65E03F
:102F200034D0812F8F7765E030D01F9108956F9353
:102F300064E06A95F1F76F910197C9F70895A1E0F0
:102F4000B0E0E5EAF7E10C946722182F249908C055
:102F50002C9906C02C9A8EE190E06983E8DF6981A4
:102F600084B1806A84B92698812F837080656C7AD9
:102F7000862B8CBD81E012FF80E08DBD81E090E06A
:102F8000AFDF2196E3E00C9483220F931F93082F69
:102F9000162F0CB406FC03C080E064E0D0DF0CB454
:102FA00004FC03C08CB580618CBD0EBD03C00CB4A5
:102FB00004FE0AC00DB407FEFACF112319F0812FC9
:102FC00090E0B5DF8EB501C080E01F910F910895AC
:102FD0002F923F924F925F926F927F928F929F9229
:102FE000AF92BF92CF92DF92EF92FF920F931F9317
:102FF000CF93DF93CDB7DEB763970FB6F894DEBFFC
:103000000FBECDBF7C011B016A01FC011782168235
:10301000838181FF66C3BE016F5F7F4F4B01F70164
:103020009381F10193FD859193FF81911F01882385
:1030300009F453C3853239F493FD859193FF81914F
:103040001F01853239F4B70190E00E9456255601E0
:103050006501E5CF10E0512C20E02032A0F48B3246
:1030600069F030F4803259F0833269F420612CC069
:103070008D3239F0803339F4216026C0226024601B
:1030800023C0286021C027FD27C030ED380F3A301B
:1030900078F426FF06C0FAE01F9F300D1124132F8D
:1030A00013C06AE0569E300D1124532E20620CC0CE
:1030B0008E3221F426FD11C3206406C08C3611F433
:1030C000206802C0883641F4F10193FD859193FF99
:1030D00081911F018111C1CF9BEB980F933018F4A0
:1030E0002061805E06C09BE9980F933008F0AAC16A
:1030F0002F7E26FF16E02F73722E853621F4F22FD5
:10310000F0647F2E08C0863621F4622F6068762E28
:1031100002C01111115077FE07C01C3348F444243B
:103120004394410E27E00BC0183030F4212F06C025
:1031300027E04CE3442E03C027E017E0412C560162
:1031400074E0A70EB11CF6016081718182819381C8
:10315000042DA4010E94C5236C01098100FF02C057
:1031600003FF06C071FC07C072FC08C0612C08C0D8
:103170003DE2632E05C02BE2622E02C090E2692E72
:10318000802F8C7099F1662011F084E001C083E0FB
:10319000851510F0512C0BC0581A73FC08C0B701EC
:1031A00080E290E00E9456255A94C9F7F3CF66203A
:1031B00029F0B701862D90E00E94562503FD03C03B
:1031C00006EF10E002C002EF10E0F72DF0717F2E45
:1031D000F8018491882309F476C271108052B701F6
:1031E00090E00E9456250F5F1F4FF2CF77FE0FC071
:1031F0004C0C04FF04C08A81813309F44A941414EE
:1032000074F5F8E0F41578F588E0482E2CC076FCCB
:103210002AC0812F90E08C159D059CF06CEFC6169E
:103220006FEFD60674F0772D7068772E0AC0E2E053
:10323000F0E0EC0FFD1FE10FF11D8081803319F4E8
:1032400011501111F4CF77FE0EC044244394410E67
:10325000812F90E0C816D9062CF41C1904C0442410
:10326000439401C010E077FE07C01C141D043CF419
:1032700096012F5F3F4F05C025E030E002C021E0FE
:1032800030E0662011F02F5F3F4F112331F0412FC6
:1032900050E04F5F5F4F240F351F452D50E024173E
:1032A000350714F4521A01C0512C872D897049F446
:1032B000552039F0B70180E290E00E9456255A94DB
:1032C000F7CF662029F0B701862D90E00E945625A1
:1032D00073FC09C0552039F0B70180E390E00E94EB
:1032E00056255A94F7CF77FE5FC09C2D8D2DD7FEC3
:1032F00002C090E080E0692E782E40E050E0C601E8
:10330000841991099D878C87960126193709280D04
:10331000391D812F90E0EE27FF27E81BF90BFF876F
:10332000EE87FFEF6F167F0669F4B7018EE290E03B
:103330002B8B3A8B488B598B0E945625598948898B
:103340003A892B89C614D70454F06C857D8566159F
:1033500077052CF4F901E40FF51F818101C080E3AA
:1033600071E0671A71084F5F5F4FEE85FF856E163B
:103370007F066CF0B70190E02B8B3A8B488B598B12
:103380000E9456252B893A8948895989CACF6C14DD
:103390007D0439F49A81963318F4953311F404FFBF
:1033A00081E3B70190E04BC08A81813309F00F7E41
:1033B000B70190E00E945625111105C074FE18C097
:1033C00085E490E017C0B7018EE290E00E94562598
:1033D00082E066246394680EF401E80FF11D808199
:1033E000B70190E00E945625115041F3862DF1CF90
:1033F00085E690E0B7010E945625D7FC05C0C114B0
:10340000D10439F404FF05C0D194C194D1088DE2F0
:1034100001C08BE2B70190E00E94562580E36AE08C
:10342000C616D1042CF08F5FFAE0CF1AD108F7CF7F
:10343000B70190E00E945625B701C601C0960E94D0
:10344000562541C1833631F0833779F0833509F051
:1034500058C021C0560172E0A70EB11CF601808150
:10346000898301E010E0640114C05601F2E0AF0E60
:10347000B11CF601C080D18026FF03C0612F70E02F
:1034800002C06FEF7FEFC6012B8B0E94C3248C011B
:103490002B892F7715C05601F2E0AF0EB11CF60153
:1034A000C080D18026FF03C0612F70E002C06FEFA3
:1034B0007FEFC6012B8B0E94B8248C012B892068DA
:1034C000722E23FD1AC0852D90E008171907A8F465
:1034D000B70180E290E00E9456255A94F4CFF6019D
:1034E00077FC859177FE81916F01B70190E00E9492
:1034F000562551105A94015011090115110579F7FB
:10350000E2C0843611F0893651F5560127FF09C013
:10351000F4E0AF0EB11CF60160817181828193816C
:103520000AC0F2E0AF0EB11CF601608171818827FC
:1035300077FD8095982F022F0F7697FF08C0909502
:103540008095709561957F4F8F4F9F4F00682AE05F
:1035500030E0A4010E940326C82EC8183EC0022FE6
:10356000853721F40F7E2AE030E01DC0097F8F36B9
:1035700091F018F4883559F0B0C0803719F08837C9
:1035800011F0ABC0006104FF09C0046007C024FF54
:1035900008C0066006C028E030E005C020E130E049
:1035A00002C020E132E0560107FF09C0F4E0AF0E8F
:1035B000B11CF601608171818281938108C0F2E0C3
:1035C000AF0EB11CF6016081718180E090E0A40132
:1035D0000E940326C82EC8180F7706FF0BC0202FA5
:1035E0002E7FC11650F404FF0AC002FD08C0202F30
:1035F0002E7E05C0DC2C202F03C0DC2C01C0D12E78
:1036000024FF0DC0FE01EC0DF11D8081803311F40B
:10361000297E09C022FF06C0D394D39404C0822F10
:10362000867809F0D39423FD13C020FF06C01C2D1B
:10363000D51418F4150D1D19D52CD51468F4B7013F
:1036400080E290E02B8B0E945625D3942B89F5CFF6
:10365000D51410F45D1801C0512C24FF12C0B7011D
:1036600080E390E02B8B0E9456252B8922FF17C008
:1036700021FF03C088E590E002C088E790E0B70131
:103680000CC0822F867859F021FD02C080E201C073
:103690008BE227FD8DE2B70190E00E945625C1160E
:1036A00038F4B70180E390E00E9456251150F7CF1F
:1036B000CA94F401EC0DF11D8081B70190E00E94E5
:1036C0005625C110F5CF552009F4C2CCB70180E2D0
:1036D00090E00E9456255A94F6CFF7018681978193
:1036E00002C08FEF9FEF63960FB6F894DEBF0FBE58
:1036F000CDBFDF91CF911F910F91FF90EF90DF90A1
:10370000CF90BF90AF909F908F907F906F905F9081
:103710004F903F902F9008955058BB27AA270ED066
:1037200075C166D130F06BD120F031F49F3F11F4B8
:103730001EF45BC10EF4E095E7FB51C1E92F77D190
:1037400080F3BA17620773078407950718F071F4BE
:103750009EF58FC10EF4E0950B2EBA2FA02D0B0114
:10376000B90190010C01CA01A0011124FF27591BC6
:1037700099F0593F50F4503E68F11A16F040A22FCC
:10378000232F342F4427585FF3CF4695379527953D
:10379000A795F0405395C9F77EF41F16BA0B620B3C
:1037A000730B840BBAF09150A1F0FF0FBB1F661F83
:1037B000771F881FC2F70EC0BA0F621F731F841FC6
:1037C00048F4879577956795B795F7959E3F08F0EC
:1037D000B3CF9395880F08F09927EE0F97958795AB
:1037E0000895D9D008F481E008950CD00FC107D115
:1037F00040F0FED030F021F45F3F19F0F0C05111DD
:1038000039C1F3C014D198F39923C9F35523B1F307
:10381000951B550BBB27AA2762177307840738F03F
:103820009F5F5F4F220F331F441FAA1FA9F333D09E
:103830000E2E3AF0E0E830D091505040E695001C52
:10384000CAF729D0FE2F27D0660F771F881FBB1F0E
:10385000261737074807AB07B0E809F0BB0B802DE8
:10386000BF01FF2793585F4F2AF09E3F510568F034
:10387000B6C000C15F3FECF3983EDCF386957795C8
:103880006795B795F7959F5FC9F7880F911D969536
:10389000879597F90895E1E0660F771F881FBB1F92
:1038A000621773078407BA0720F0621B730B840B3F
:1038B000BA0BEE1F88F7E095089504D06894B11113
:1038C000D9C00895BCD088F09F5790F0B92F9927A0
:1038D000B751A0F0D1F0660F771F881F991F1AF01B
:1038E000BA95C9F712C0B13081F0C3D0B1E00895E4
:1038F000C0C0672F782F8827B85F39F0B93FCCF365
:10390000869577956795B395D9F73EF49095809510
:10391000709561957F4F8F4F9F4F0895E89409C030
:1039200097FB3EF490958095709561957F4F8F4FF2
:103930009F4F9923A9F0F92F96E9BB279395F69508
:10394000879577956795B795F111F8CFFAF4BB0F86
:1039500011F460FF1BC06F5F7F4F8F4F9F4F16C0EA
:10396000882311F096E911C0772321F09EE8872F74
:10397000762F05C0662371F096E8862F70E060E030
:103980002AF09A95660F771F881FDAF7880F9695A9
:10399000879597F90895990F0008550FAA0BE0E84D
:1039A000FEEF16161706E807F907C0F01216130601
:1039B000E407F50798F0621B730B840B950B39F441
:1039C0000A2661F0232B242B252B21F408950A26A7
:1039D00009F4A140A6958FEF811D811D089597F9E7
:1039E0009F6780E870E060E008959FEF80EC0895A5
:1039F00000240A94161617061806090608950024CE
:103A00000A9412161306140605060895092E039447
:103A1000000C11F4882352F0BB0F40F4BF2B11F4BB
:103A200060FF04C06F5F7F4F8F4F9F4F089557FD1A
:103A30009058440F551F59F05F3F71F04795880F1C
:103A400097FB991F61F09F3F79F0879508951216B3
:103A500013061406551FF2CF4695F1DF08C016165F
:103A600017061806991FF1CF869571056105089410
:103A70000895E894BB2766277727CB0197F9089527
:103A80008ADF08F48FEF08950BD0C0CFB1DF28F0A4
:103A9000B6DF18F0952309F0A2CFA7CF1124EACF03
:103AA000C6DFA0F3959FD1F3950F50E0551F629F9D
:103AB000F001729FBB27F00DB11D639FAA27F00D87
:103AC000B11DAA1F649F6627B00DA11D661F829FAE
:103AD0002227B00DA11D621F739FB00DA11D621F93
:103AE000839FA00D611D221F749F3327A00D611DB0
:103AF000231F849F600D211D822F762F6A2F112492
:103B00009F5750408AF0E1F088234AF0EE0FFF1FE4
:103B1000BB1F661F771F881F91505040A9F79E3F1B
:103B2000510570F05CCFA6CF5F3FECF3983EDCF31D
:103B3000869577956795B795F795E7959F5FC1F758
:103B4000FE2B880F911D9695879597F9089520FD76
:103B500009C0FC0123FD05C022FF02C073836283FC
:103B600051834083089544FD10C046FD10C0DB0121
:103B7000FC01AA0FBB1FEE1FFF1F1094D1F76A0FA5
:103B80007B1F8E1F9F1F31E003C033E001C034E074
:103B9000660F771F881F991F3150D1F7620F711D73
:103BA000811D911D08950F931F93CF93DF938C0177
:103BB000C8013ED7EC0197FD07C0BFD6892BC1F7DE
:103BC000B801CE010E94EA25CE01DF91CF911F916D
:103BD0000F9108956F927F929F92AF92BF92CF9272
:103BE000DF92EF92FF920F931F93CF93DF931F9279
:103BF000CDB7DEB78C013B015A01298319D7AC013F
:103C0000552729814B32510521F04D32510579F468
:103C1000206831E0631A71086114710411F480E0C6
:103C200078C0C801298304D7298197FDF8CFE22FF6
:103C3000ED7F9E2E322F307369F5803359F5730175
:103C4000F1E0EF1AF108E114F10409F44FC0C801E2
:103C50002983EED6298197FD49C0382F3F7D38351D
:103C600079F4292D2264922E32E0631A71086114CE
:103C7000710409F43BC0C801DBD697FF0BC036C006
:103C800026FF04C0E92DE2609E2E03C0F92DF261EB
:103C90009F2E3701C12CD12C760120ED280F283022
:103CA00078F094FE03C0B80195D71DC02A3040F0CB
:103CB00096FEF9CF2F7D3FEE320F3630A0F727501A
:103CC000492DC701B6014FDF6B017C01292D226010
:103CD000922E31E0631A71086114710451F0C80129
:103CE000A7D697FFDACF91FC04C099CFC12CD12C75
:103CF000760197FE08C0F094E094D094C094C11C63
:103D0000D11CE11CF11C292DB701A601C5011FDF43
:103D100081E00F90DF91CF911F910F91FF90EF9075
:103D2000DF90CF90BF90AF909F907F906F9008955D
:103D30004F925F926F927F928F929F92AF92BF92BB
:103D4000CF92DF92EF92FF920F931F93CF93DF9367
:103D5000CDB7DEB7A0970FB6F894DEBF0FBECDBFCC
:103D60005C014B017A018E010F5F1F4F680180E2F9
:103D7000F80111928A95E9F7F501638080E090E0FF
:103D8000712C412CB0E041E050E0F90163FC55900A
:103D900063FE51908F01A52D9F01511003C080E05B
:103DA00090E07DC0FEE55F1202C0009761F16B2FCD
:103DB00070E0681779074CF46DE5561661F1EDE295
:103DC0005E1203C0442009F103C0411001C0752CEC
:103DD0006A2F669566956695F601E60FF11D6A2FC6
:103DE00067708A0102C0000F111F6A95E2F7B801DF
:103DF0007081762B7083A71559F0A71510F4AF5F6B
:103E0000E7CFA150E5CFB1E004C04424439401C002
:103E1000412C0196BACF442019F08E8180628E83A6
:103E2000B11103C07724739419C0F601CE018196B5
:103E3000208120952193E817F907D1F7F3CFE114FA
:103E4000F10429F0F7018083C70101967C0191E01C
:103E5000891A910881149104E1F0712CC501E8D50B
:103E600097FD15C0282F269526952695F601E20F79
:103E7000F11D208130E0AC014770552702C0359517
:103E800027954A95E2F720FDDACFB501A3D6711048
:103E900086CFE114F10411F0F7011082C801A09659
:103EA0000FB6F894DEBF0FBECDBFDF91CF911F914B
:103EB0000F91FF90EF90DF90CF90BF90AF909F90C9
:103EC0008F907F906F905F904F9008952F923F92C8
:103ED0004F925F926F927F929F92AF92BF92CF92DA
:103EE000DF92EF92FF920F931F93CF93DF9300D057
:103EF00000D000D0CDB7DEB76C018B011A0198D588
:103F00009E838D8399278B32910529F08D9791F4AB
:103F100080E8982E01C0912C01501109011511055E
:103F200011F480E028C1C60183D59E838D8397FF5D
:103F300002C0F7CF912C8D819E8107D589369105DE
:103F400041F08E369105C1F5BCE06B2EB1E07B2EC1
:103F500004C0AFE06A2EA1E07A2E8FEF681A780ACB
:103F6000F3013197B490BB20D9F00150110901152C
:103F7000110559F0C6015CD57C0197FD06C0E5D45A
:103F8000B81659F3B601C70125D622E1621621E021
:103F9000720609F0C6CF80E090E0A0E8BFE709C054
:103FA0009FE0691691E07906B1F780E090E0A0EC1F
:103FB000BFE7BC01CD01CFC0412C512C3201E12C17
:103FC000F12C2D8120532A3020F5E92DE260BE2E00
:103FD000892D887092FE06C0811122C0FFEFEF1A72
:103FE000FF0A1EC0882319F081E0E81AF10840E2B8
:103FF000C301B201B8DD2B013C0198E9491699E9EA
:104000005906690699E1790658F0E92DE660BE2E59
:1040100007C02E3F99F493FC11C0F92DF860BF2E14
:10402000015011090115110541F0C60101D59E830A
:104030008D839B2C97FD02C0C4CF9B2C91FE71CF2A
:104040008D818F7D853409F052C0580121E0A21A7C
:10405000B108A114B10409F464CFC601E9D49E8368
:104060008D8397FD5ECF99278B32910529F08D972F
:1040700079F4892D8061982E580192E0A91AB1082F
:10408000A114B10409F44DCFC601D2D49E838D830F
:104090008D819E81C0970A9708F043CF8501A12C9E
:1040A000B12CB501882777FD8095982F2D8120535D
:1040B00040E259DDAB01BC015A0101501109011563
:1040C000110569F0C60149835A836B837C83B0D4A0
:1040D0009E838D83C09749815A810A9710F394FE7D
:1040E00004C0AA24BB24A41AB50AEA0CFB1C012BA9
:1040F00039F0ED81FE81F7FD03C0B601CF016AD52D
:10410000C301B2010BDCF7FE08C0F194E194F108A1
:10411000FBE2AF2EF1E0BF2E04C0E3E4AE2EE1E0FF
:10412000BE2E6501F8E1CF1AD10800E210E0E016DA
:10413000F10648F0F5012591359145915491A4DCA3
:10414000E01AF10AF4CF24E0A21AB10816950795F7
:10415000AC14BD0461F797FE05C0DC01CB01B0587B
:10416000BC01CD012114310429F0F1016083718378
:104170008283938381E026960FB6F894DEBF0FBE4C
:10418000CDBFDF91CF911F910F91FF90EF90DF9006
:10419000CF90BF90AF909F907F906F905F904F9027
:1041A0003F902F9008954F925F926F927F928F92DF
:1041B0009F92AF92BF92CF92DF92EF92FF920F93B6
:1041C0001F93CF93DF931F92CDB7DEB78C012B01E6
:1041D0007A01FC0117821682A12CF801D380F2012A
:1041E000D3FC8591D3FE8191382F2F01882309F4C8
:1041F00007C190E03983A1D33981892B19F0C80117
:10420000D2DCEBCF353241F4F201D3FC3591D3FE51
:1042100031912F01353259F4C801398309D43981DC
:1042200097FDECC03817C9F2B801D4D4E9C03A32CE
:1042300041F4D3FC3591D3FE31912F01BB24B394CB
:1042400001C0B12C812C912C20ED230F2A3080F459
:10425000FB2DF260BF2EB40180E090E040E283DCF1
:104260004B01F201D3FC3591D3FE31912F01ECCFFC
:10427000B1FE04C08114910421F4C2C088248A9440
:10428000982C383619F03C3661F014C0F201D3FC9A
:104290003591D3FE31912F01383661F4FB2DF86052
:1042A000BF2E8B2D8460B82EF201D3FC3591D3FE46
:1042B00031912F01332309F4A3C0632F70E08AEFFB
:1042C00090E039834AD33981892B09F499C0B0FC35
:1042D00007C0F701C080D180C70102967C0102C0EF
:1042E000C12CD12C3E3649F4F8014681578160E05B
:1042F00070E02B2DC6012BDC70CF3336C1F4B1FC3E
:1043000003C088248394912CC80192D397FD76C072
:10431000C114D10429F0F6018083C60101966C0115
:1043200091E0891A91088114910471F763C03B35BB
:1043300051F49201A601B401C801FADC2C010097E6
:1043400009F058C052C0C80139832DDC398197FD6E
:1043500055C03F36D9F140F43436A1F13936C9F1B0
:10436000383509F03CC02AC03337B9F018F430377B
:1043700029F135C0353731F1383701F130C0C1147A
:10438000D10429F0F6016082C60101966C0191E02A
:10439000891A91088114910459F0C80149D33C014C
:1043A00097FD06C0CAD2892B51F3B801C30112D4BC
:1043B000C114D104F9F0F60110821CC0FB2DF06489
:1043C000BF2E07C08B2D8062B82E03C09B2D90613D
:1043D000B92E2B2DA601B401C801FCDB04C0A60137
:1043E000B401C80173DD811105C0F80183818073B8
:1043F00029F406C0B0FCF1CEA394EFCEAA2019F0A8
:104400008A2D90E002C08FEF9FEF0F90DF91CF9148
:104410001F910F91FF90EF90DF90CF90BF90AF90E2
:104420009F908F907F906F905F904F900895DB01E9
:104430008F939F9333D0BF91AF91A29F800D911D19
:10444000A39F900DB29F900D11240895A1E21A2E02
:10445000AA1BBB1BFD010DC0AA1FBB1FEE1FFF1F28
:10446000A217B307E407F50720F0A21BB30BE40B78
:10447000F50B661F771F881F991F1A9469F76095BF
:104480007095809590959B01AC01BD01CF01089579
:10449000EE0FFF1F0590F491E02D099440D0A59FE9
:1044A000900DB49F900DA49F800D911D112408952F
:1044B0002F923F924F925F926F927F928F929F9234
:1044C000AF92BF92CF92DF92EF92FF920F931F9322
:1044D000CF93DF93CDB7DEB7CA1BDB0B0FB6F894D3
:1044E000DEBF0FBECDBF09942A88398848885F8413
:1044F0006E847D848C849B84AA84B984C884DF8084
:10450000EE80FD800C811B81AA81B981CE0FD11D67
:104510000FB6F894DEBF0FBECDBFED010895A29F88
:10452000B001B39FC001A39F700D811D1124911D87
:10453000B29F700D811D1124911D0895CF93DF93BB
:104540008230910510F482E090E0E091103BF09110
:10455000113B20E030E0A0E0B0E0309739F140813D
:10456000518148175907B8F04817590771F48281EB
:104570009381109729F013969C938E9312972CC0D9
:104580009093113B8093103B27C02115310531F0EA
:104590004217530718F0A901DB0101C0EF019A018E
:1045A000BD01DF010280F381E02DD7CF2115310558
:1045B000F9F0281B390B2430310580F48A819B8166
:1045C0006115710521F0FB019383828304C09093F0
:1045D000113B8093103BFE01329644C0FE01E20F76
:1045E000F31F8193919322503109398328833AC074
:1045F00020910E3B30910F3B232B41F420913C0145
:1046000030913D0130930F3B20930E3B20913A01B6
:1046100030913B012115310541F42DB73EB7409152
:104620003E0150913F01241B350BE0910E3BF09170
:104630000F3BE217F307A0F42E1B3F0B2817390797
:1046400078F0AC014E5F5F4F2417350748F04E0FEE
:104650005F1F50930F3B40930E3B8193919302C099
:10466000E0E0F0E0CF01DF91CF910895CF93DF93A9
:10467000009709F487C0FC01329713821282C0911F
:10468000103BD091113B209781F420813181280F7C
:10469000391F80910E3B90910F3B8217930779F55C
:1046A000F0930F3BE0930E3B6DC0DE0120E030E065
:1046B000AE17BF0750F412964D915C9113979D0170
:1046C0004115510509F1DA01F3CFB383A28340818B
:1046D0005181840F951F8A179B0771F48D919C91CE
:1046E0001197840F951F02969183808312968D9166
:1046F0009C911397938382832115310529F4F093BC
:10470000113BE093103B3EC0D9011396FC93EE930E
:1047100012974D915D91A40FB51FEA17FB0779F42D
:1047200080819181840F951F0296D90111969C93E7
:104730008E938281938113969C938E931297E0E0DF
:10474000F0E08A819B81009719F0FE01EC01F9CF1E
:10475000CE01029628813981820F931F20910E3B52
:1047600030910F3B2817390769F4309729F41092DC
:10477000113B1092103B02C013821282D0930F3B68
:10478000C0930E3BDF91CF910895283008F027E0C9
:104790003327DA01990F311D87FD9160009661057D
:1047A000710539F432602E5F3D9330E32A95E1F7CD
:1047B00008959F3F30F080387105610509F03C5F36
:1047C0003C5F3D93913008F08068911DDF93CF935B
:1047D0001F930F93FF92EF92192F987F9695E92FD1
:1047E00096959695E90FFF27EF55FE4F99273327AA
:1047F000EE24FF24A701E70105900894079428F40C
:10480000360FE71EF81E491F511D660F771F881FC0
:10481000991F0694A1F70590079428F4E70EF81E57
:10482000491F561FC11D770F881F991F661F0694C9
:10483000A1F70590079428F4F80E491F561FC71FCB
:10484000D11D880F991F661F771F0694A1F7059049
:10485000079420F4490F561FC71FD81F990F661FD2
:10486000771F881F0694A9F784911095177041F05F
:10487000D695C79557954795F794E7941A95C1F73C
:10488000E7E4F1E068941590159135916591959163
:1048900005907FE27395E118F10A430B560BC90BA3
:1048A000D009C0F7E10CF11E431F561FC91FD01DD0
:1048B0007EF4703311F48A95E6CFE894015030F01D
:1048C000080F0AF40027021708F4202F2395022F5F
:1048D0007A3328F079E37D932A95E9F710C07D9328
:1048E0002A9589F6069497956795379517951794A5
:1048F000E118F10A430B560BC90BD00998F0239528
:104900007E9173957A3308F070E37C932013B8F7A7
:104910007E9170617D9330F0839571E37D9370E3B8
:104920002A95E1F71124EF90FF900F911F91CF91FD
:10493000DF91992787FD909508959111DCC1803210
:1049400019F089508550D0F7089591110895815438
:104950008A5108F4805E855A0895FC010590061678
:1049600021F00020D9F7C00108953197CF010895B3
:10497000FC010590615070400110D8F7809590952A
:104980008E0F9F1F0895FC0161507040019001102F
:10499000D8F7809590958E0F9F1F08950F931F93C2
:1049A000CF93DF93EC018B01009731F46115710512
:1049B00019F480E090E037C06EE070E081E090E0B4
:1049C00080D1FC010097A9F380E8838301151105CC
:1049D00071F01387028781E883838091123B909165
:1049E000133B892B21F4F093133BE093123B209768
:1049F000C9F0D187C0878381826083838091143B13
:104A00009091153B892B71F4F093153BE093143B87
:104A10008091163B9091173B892B21F4F093173B23
:104A2000E093163BCF01DF91CF911F910F91089535
:104A3000CF93DF93EC012B8120FF33C026FF0AC008
:104A40002F7B2B838E819F8101969F838E838A810A
:104A500090E029C022FF0FC0E881F9818081992769
:104A600087FD9095009719F420622B831AC0319628
:104A7000F983E8830EC0EA85FB85099597FF09C095
:104A80002B81019611F480E101C080E2822B8B839F
:104A900008C02E813F812F5F3F4F3F832E83992790
:104AA00002C08FEF9FEFDF91CF9108950F931F9377
:104AB000CF93DF93182F092FEB018B8181FD03C06A
:104AC0008FEF9FEF20C082FF10C04E815F812C814D
:104AD0003D81421753077CF4E881F9819F012F5FE4
:104AE0003F4F39832883108306C0E885F985812FDD
:104AF0000995892B29F72E813F812F5F3F4F3F83F7
:104B00002E83812F902FDF91CF911F910F910895C8
:104B1000CF93DF93CDB7DEB7FE01359661917191EA
:104B2000AF018091143B9091153B0E94E817DF91F3
:104B3000CF9108950F931F93CF93DF93CDB7DEB737
:104B40002E970FB6F894DEBF0FBECDBF0D891E891C
:104B500086E08C831A8309838FEF9FE79E838D8382
:104B6000AE01475E5F4F6F89788DCE0101960E943E
:104B7000E817EF81F885E00FF11F10822E960FB62F
:104B8000F894DEBF0FBECDBFDF91CF911F910F9183
:104B90000895CF93DF93CDB7DEB72E970FB6F89475
:104BA000DEBF0FBECDBF85E08C838B899C899A8345
:104BB0008983AE01495E5F4F6D897E89CE01019682
:104BC000F2DA2E960FB6F894DEBF0FBECDBFDF919E
:104BD000CF910895FB01238120FF12C026FD10C054
:104BE0008F3F3FEF930761F082832F7D2064238303
:104BF00026813781215031093783268399270895EB
:104C00008FEF9FEF0895FA01AA27283051F1203144
:104C100081F1E8946F936E7F6E5F7F4F8F4F9F4F50
:104C2000AF4FB1E03ED0B4E03CD0670F781F891F92
:104C30009A1FA11D680F791F8A1F911DA11D6A0F60
:104C4000711D811D911DA11D20D009F468943F9113
:104C50002AE0269F11243019305D3193DEF6CF0112
:104C60000895462F4770405D4193B3E00FD0C9F7D8
:104C7000F6CF462F4F70405D4A3318F0495D31FD45
:104C80004052419302D0A9F7EACFB4E0A695979598
:104C9000879577956795BA95C9F70097610571056E
:104CA00008959B01AC010A2E0694579547953795B8
:104CB0002795BA95C9F7620F731F841F951FA01D12
:104CC00008950F931F93CF93DF93869F8001879F53
:104CD000100D969F100D1124C80130DCEC010097D7
:104CE00021F0A80160E070E009D0CE01DF91CF9102
:104CF0001F910F910895992788270895DC0101C01D
:0E4D00006D9341505040E0F70895F894FFCFB6
:104D0E000000803E4850FC3B666646400000803FF7
:104D1E000101021000000000000000000000000071
:104D2E000000000000000000010000000000000074
:104D3E000000FFFFFFFFFFFFFFFF0000183B2000FA
:104D4E00543A2530326C6400433A2530326C64009C
:104D5E00533A2530336C640044533A253033642083
:104D6E00453A25336C64004C6F6767696E67205057
:104D7E0072696E74696E670D0A004B703A25662C67
:104D8E004B693A25662C4B643A25660D0A0025368A
:104D9E006C642C25366C642C2520336C642C2536E3
:104DAE006C642C252E33662C252E33662C25336C05
:104DBE00640D0A005553422053657269616C204997
:104DCE006E697469616C697A65640D0A000D4D65D2
:104DDE006E753A207B4C56525350494454487D3C94
:104DEE00696E743E3A002563202566000D0A307008
:104DFE003A256320563A25660D0A004C6F672065EA
:104E0E006E61626C65640D0A0050726F766964653E
:104E1E0020706F736974696F6E28522F722323236B
:104E2E002329206F7220737065656428532F7323B6
:104E3E00232920636F6D6D616E640D0A00456E63EC
:104E4E006F64657220436F756E74733A20256C64BF
:104E5E000D0A0043757272656E74206D6F746F72F9
:104E6E002073706565643A2025640D0A00457272E0
:104E7E006F723A20256C640D0A00546F72713A20DD
:104E8E0025640D0A004B703A25202E35662C204BDA
:104E9E00693A25202E35662C204B643A25202E3576
:104EAE00660D0A00503A2520326C6420493A2520BE
:104EBE00342E326620442520342E32660D0A0044EC
:104ECE0065736972656420563A2564204375727263
:104EDE00656E7420563A25640D0A00466F726D7524
:104EEE006C6120503A25202E336620493A25202E1B
:104EFE00346620443A25202E326620543A25202E40
:104F0E0031660D0A00506572696F643A2025660D90
:104F1E000A00546172676574204C6F633A25203025
:104F2E00356C642043757272656E74204C6F633AF3
:104F3E00252030356C640D0A00506F736974696FEB
:104F4E006E2064656661756C7473207365743A20A7
:104F5E004B703D25322E3366204B693D25322E3463
:104F6E0066204B643D25332E33660D0A0053706563
:104F7E0065642064656661756C7473207365743A3C
:104F8E00204B703D25322E3366204B693D25322E47
:104F9E003466204B643D25332E33660D0A00436F75
:104FAE006D6D616E6420646F6573206E6F74206327
:0A4FBE006F6D707574652E0D0A000A
:00000001FF
